S0120000426F6F744C6F616465722E7372656327
S11300000080002015050000C30400004F05000017
S11300105B050000790500007B050000000000007E
S11300200000000000000000000000007D0500004A
S11300307F0500000000000081050000830500002A
S113004075050000750500007505000075050000C4
S113005075050000750500007505000075050000B4
S113006075050000750500007505000075050000A4
S11300707505000075050000750500007505000094
S11303F0750500007505000075050000FFFFFFFF8F
S1130400FFFFFFFFFFFFFFFFFFFFFFFFFEFFFFFFF9
S113041010B5114C606800F07F40B0F17C4F18BFFC
S11304204FF4016008D140F60800406800F07F40B6
S1130430B0F17C4F02D0094800F012F840F60801F0
S113044020680968884234BF04484FF4016000F012
S113045007F8002010BD0000080800101008001064
S11304604368D0F800D0184600477047103A07D3C5
S113047030B4B1E83810103AA0E83810F9D230BCE2
S1130480530724BFB1E80810A0E8081044BF51F88E
S1130490043B40F8043BD20724BF31F8022B20F878
S11304A0022B44BF0B7803707047083A07D3B1E8B6
S11304B00810083A40F8043B40F804CBF7D253073D
S11304C0E4E7FEE780B50748800806D005488208BF
S11304D0920005490548FFF7C9FF0448044908602C
S11304E001BD00BF0000000000000000000000008B
S11304F008ED00E04CF22050044908804DF6281025
S113050008804FF4E9700249088070470E200540C6
S11305100020054072B6034880470348804762B60E
S113052002480047F5040000C50400006905000006
S11305300120C046002801D0C046C0460020C04665
S1130540C046FFF765FF00F000F800F001B8FEE7D1
S11305500746384600F002F8FBE7FEE720210903CE
S113056026311820ABBEF9E7C046C046C046C04697
S1130570FFF7DEFFFFF7FEBFFEE7FEE7FEE7FEE75D
S1070580FEE7FEE7A9
S1130800FFFFFFFFFFFFFFFFFFFFFFFFFFFFFFFCF7
S113081000800020016901001B39000033690100D8
S1130820376901003B6901003F69010000000000D5
S1130830000000000000000000000000DB360000A3
S11308404369010000000000513700002F690100D6
S1130850856D0100856D0100856D0100856D0100C8
S1130860856D0100856D0100856D0100856D0100B8
S1130870856D0100856D0100856D0100856D0100A8
S1130880856D0100856D0100856D0100856D010098
S1130890856D0100856D0100856D0100856D010088
S11308A0856D0100856D0100856D0100856D010078
S11308B0856D0100856D0100856D0100856D010068
S11308C0856D0100B1670100BB670100CF670100BE
S11308D0856D0100856D0100D9670100856D0100FA
S11308E0856D0100E3670100ED6701000168010007
S11308F0856D0100856D01000B680100856D0100A7
S1130900856D0100856D0100856D0100856D010017
S1130910856D0100856D0100856D0100856D010007
S1130920856D0100856D0100856D0100856D0100F7
S1130930856D0100856D0100856D0100856D0100E7
S1130C002B6901002B6901002B690100FFFFFFFF25
S1130C10DFF8C80A00214160002200F144010A60A3
S1130C208A604A60CA60FF218260C26002614261D8
S1130C308261C261026201704270704738B54FF43C
S1130C40836002F098F90A2002F095F940F2062038
S1130C5002F09BF94FF4037002F097F940F20D2073
S1130C6002F093F9082002F086F9002002F0F7F967
S1130C70012002F0F4F94FF4BE74DFF8645A2146FF
S1130C80284602F0B1FA2146681802F0ADFA0020B5
S1130C902870012085F87C01BDE83140B8E72DE9D2
S1130CA0F04F040095B021784FF0010801D00229DB
S1130CB006DB0FF6402002F0B1FA15B0BDE8F08F64
S1130CC004208DF816008DF8158007208DF8170084
S1130CD004F1F4051020049002208DF81400002083
S1130CE08DF820004FF4406002F099FB286728B982
S1130CF00FF6202002F092FA02F0EDFC9DF820207D
S1130D009DF81410204601F021FD28B90FF6282083
S1130D1002F084FA02F0DFFCD82002F080FBDFF856
S1130D20BC19486228B90FF6342002F077FA02F0B1
S1130D30D2FCDFF8A809DFF8A429406A00F11B01FE
S1130D40916200F13601D16200F15101116300F1A9
S1130D506C01516300F18701916300F1A201BD3080
S1130D601064D1634FF4A27020440A90002102F071
S1130D7085FD4FF4AA7020440990002102F07EFD05
S1130D802078002807BF002102200021032002F060
S1130D90D6FDADF80600BDF8060030B921780FF68F
S1130DA0E81002F03BFA02F096FC21780FF60C20D2
S1130DB002F034FA4FF4BC7020440E904FF4BA7031
S1130DC02044029054E2761C7F1E30464FF0000A05
S1130DD0012190F90020491E130034D0A2F1300300
S1130DE00A2B4FEA0A1A38BF303A0AD3A2F1410358
S1130DF0062B38BF373A04D3A2F16103062B22D263
S1130E00573A401C00299244E3D1761CA7F101070C
S1130E1023D03078752806D101A9701C01F06AFC32
S1130E2008B1761D7F1F5FFA8AF319460A2929DA69
S1130E302078020008BF022916D101460FF6A81037
S1130E4002F0ECF975E031780FF6C8105FFA8AF217
S1130E5002F0E4F94FF001086BE0DFF88818DFF8DE
S1130E60880802F0DBF9DEE78DF817304FF0000850
S1130E700FF6C81002F0D2F930780D2807D1761C8D
S1130E807F1E6AE00FF6D01002F0C8F951E00FF6A9
S1130E90E81002F0C3F94FF001084AE001208DF890
S1130EA01600761C7F1E5FEA080004D00FF6F010CF
S1130EB002F0B4F93DE030464FF0000A012190F908
S1130EC00020491E13002DD0A2F130030A2B4FEA53
S1130ED00A1A38BF303A0AD3A2F14103062B38BFAD
S1130EE0373A04D3A2F16103062B1BD2573A401CB4
S1130EF000299244E3D1761CA7F101071CD0307875
S1130F00752806D101A9701C01F0F4FB08B1761D07
S1130F107F1F16F8010B0D2815D00FF6BC1002F038
S1130F207DF906E031780FF6D0105FFA8AF202F00C
S1130F3075F94FF007091BE0DFF8A817DFF8A807D9
S1130F4002F06CF9E5E7A87C7F1E18B32278DFF87D
S1130F509C170FF6D01002F061F9012F08DBB9F1EC
S1130F600D0F02BFDFF888070078002800F08F819A
S1130F70039803F08BF82078801CC0B203F033F997
S1130F80070040F08483DFF864170FF6B41002F012
S1130F9045F96DE12078002807BF002104A804A9C1
S1130FA0002001F035F901460FF6BC1002F036F9C5
S1130FB00A982860099868605FFA8AF00028207807
S1130FC00ED1010004D14FF4836001F0D4FF11E08D
S1130FD0012803D10A2001F0CEFF0BE003210AE02F
S1130FE0010008BF4FF4836002D00128F6D10A2023
S1130FF001F0CBFF00215FFA8AF20FF6901002F0A5
S11310000DF9204601F043F901460FF6B81002F03D
S113101005F90120A8749DF81500002842D0207815
S1131020002103F0E8FF00210FF6BC1002F0F6F8EF
S11310304FF0000A207800235246002103F0F5FF08
S1131040207800235246012103F0EFFF0AF1010A40
S1131050BAF1100FEEDB0FF6C41002F0DFF80298BD
S11310604078002802984268207814BF01210021AA
S113107003F0C7FF40B220B10B990FF6B81002F08D
S1131080CDF86A6F9DF82010207804F0BAF820B1EA
S11310900B990FF6D81002F0C1F82078002104F063
S11310A0C7F82BE02078012103F0A5FF00210FF6FB
S11310B0F01002F0B3F84FF0000A20784FF4E06328
S11310C05246002103F0B1FF42B251460FF6FC1024
S11310D002F0A4F8012000904FF4E063524600218E
S11310E0204601F05EF9024651460FF6102002F048
S11310F095F80AF1010ABAF10E0FDEDB207820B967
S11311004FF4007001F037FF27E79DF9170002281C
S113111013D10FF6102002F081F840F2062001F0FE
S11311202AFF4FF4037001F026FF40F20D2001F076
S11311302CFF082001F029FF0EE040F2062001F008
S113114024FF4FF4037001F020FF40F20D2001F062
S11311501CFF082001F00FFF142004F04BFB4FF498
S11311600170CFE7761CA7F1010712D030787528FB
S113117006D101A9701C01F0BDFA08B1761D7F1FCC
S113118016F8010B0D280BD00FF6B41002F046F838
S1131190CFE6DFF85015DFF8500502F03FF8EFE72F
S11311A020787F1E00280CBF4FF400704FF40170AC
S11311B001F0EBFE207801004FF0010808BF4FF466
S11311C0836002D0012804D10A2001F0D4FE00215A
S11311D000E003210FF68C1002F020F8204601F005
S11311E032F801460FF6A81002F018F80020A8748F
S11311F0686F10B1A96F04F093FC0020E867FFF753
S113120007FD00208DF816008DF8158007208DF855
S113121017001020049002208DF8140000208DF88F
S11312202000642004F0E6FA97E68DF840009DF86B
S11312301600012804D10FF67C1001F0EFFF78E6C8
S11312403078542818BF522851D101208DF840001D
S1131250092F53DA9DF8400001284FD10FF6701082
S113126001F0DCFF039802F011FF012004F0C2FA40
S1131270BDF80600012102F0D5FB00280390F4D04C
S113128000F111060088A0F111074FF00D090020AC
S1131290ADF80400317843293FF464AF462900F0E7
S11312A0CC814C293FF4FAAD4D2900F0CE804F2972
S11312B03FF4F7AD5229BAD0532908D05429B6D0F7
S11312C06D2949D0722918BF7429AED0D8E1032FF3
S11312D0FFF643AEA87C00281CBF9DF81600012829
S11312E03FF471AD0FF6041001F098FF21E6042FCE
S11312F0AEDA9DF840000028ACD1AFE70FAA791E02
S1131300701C01F0C9F810BB94F80601D0B19DF827
S113131040000F9B8DF830000CAA11980D900E21FF
S1131320207803F009FF48B912A800900CAA0F9B7B
S113133020780E2103F01FFF20B993E7DFF8DC0DBE
S113134001F06CFF0FF6D00001F068FF8AE70FF69A
S1131350EC0001F063FFECE50A2F01DBA87C20B16F
S11313600FF6F40001F05AFFE3E50298082104F0B7
S1131370D7FB70787F1E522806D054280BD07228D1
S113138005D0742811D00AE0029901204870012088
S11313900299087009E002990120487005E00FF6EF
S11313A0801001F03BFF4FF007097F1EB61C781E2A
S11313B0002E3CD0C0B2082801DA002837D10E989C
S11313C0A8B30299002048606946304601F092F9BA
S11313D088B30299BDF8000048606946301D01F0E9
S11313E089F940B30298BDF80010406841EA004012
S11313F0029908364860A7F1080721D0307875288B
S113140006D101A9701C01F075F908B1761D7F1F82
S113141030780D283FF433AD0FF6540001F0FEFE92
S11314200298082104F07CFB4FF00709A0E5DFF8DF
S1131430B40D01F0F3FE0FF6680001F0EFFE78E55D
S1131440A849A94801F0EAFEE2E70A2F01DBA87CDB
S113145020B10FF6680001F0E1FE6AE5686F761CC2
S113146020B90FF6740001F0D9FE62E5E86FA96FA8
S1131470B0EBD10F05D30FF6800001F0CFFE0020B2
S1131480E867686FEA6F082100EBC20004F048FBCC
S113149030784FF0000A4628D3461DD0522808D091
S11314A0542812D066281BD0722808D0742820D063
S11314B019E0686FE96F00EBC1000121417001225E
S11314C0686FE96F00F8312013E0686FE96F00EB93
S11314D0C100012141700CE04FF0010AD34608E03D
S11314E04FF0010A05E00FF6380001F097FE4FF0C7
S11314F00709761CBF1EBAF1000F40D07748407828
S1131500810800EB5171C908A0EBC1007349BBF11C
S1131510000F487004D04A781144012081F84C002F
S113152039466E4A304601F063F820B10FF61400D4
S113153001F074FEFDE4BBF1000F07BF1736173F3F
S11315402136213F002E5AD03078752806D101A9C2
S1131550701C01F0CFF808B1761D7F1F30780D287C
S11315605ED0BAF1000F4FD00FF6000001F056FE26
S11315705A48427800EB82001B21406A4DE0686FB4
S1131580E96F00EBC10000F1040B781E76B3C0B222
S1131590082800DA50BBBBF1000F27D00020CBF89D
S11315A000006946304601F0A5F818B3BDF8000004
S11315B0CBF800006946301D01F09CF8D0B1DBF88F
S11315C00000BDF8001041EA0040CBF800000836E6
S11315D0E96F686F00EBC100083F426800924378EE
S11315E002780FF2A47001F019FEABE7DFF8F40BF8
S11315F001F014FE0FF2BC7001F010FE99E43949B9
S1131600394801F00BFEA9E70FF2CC7001F006FE99
S1131610686FEA6F082100EBC20004F081FA88E4E5
S1131620BAF1000F05D02D482C494078401C487071
S113163025E4E86F401CE86721E4761CA7F1010764
S113164019D03078752806D101A9701C01F052F820
S113165008B1761D7F1F30780D283FF410AC0FF2CF
S1131660787001F0DBFD686FEA6F082100EBC200BF
S113167004F056FA5DE41B491B4801F0CFFDEAE78C
S11316803B460A460FF2807001F0C8FDEAE50020EF
S1131690387307F10D06BDF8040040B102460FF29D
S11316A09471304601F0C8FD05203873761D86F824
S11316B00090387B401C38732078811CC9B23846AE
S11316C002F0AFFD00287FF4D3AD20780FF26C71E7
S11316D0821C0FF2787001F0A1FDC9E59888FF1F04
S11316E0A085FF1F602D0000742D00003C1E00002B
S11316F0F7A3FF1F43414E5F54582074687265611D
S1131700642077726F6E6720706172616D20257539
S11317100A0000004552524F5220616C6F6361749D
S113172065206D65737361676520717565756520E6
S11317306275666665720A004552524F5220616CAA
S11317406F63617465204649464F204944206669A9
S11317506C746572207461626C650A004552524F64
S11317605220616C6F6361746520666C6F772063CF
S11317706F6E74726F6C206D65737361676573202F
S11317806275666665720A000A436F756C64206E42
S11317906F74206372656174652061206D65737375
S11317A061676520706F6F6C2043414E2025752062
S11317B05F54585F515545550A000000464C455842
S11317C043414E5F54785F5461736B205461736B73
S11317D03A204C6F6F7020696E7374616E6365207C
S11317E02575200A000000004572726F722073652F
S11317F0742062617564726174652033334B687A56
S113180020746F20696E7374616E63652025640AA9
S1131810000000004572726F72207061727365205F
S11318207468652042617564726174652076616CC8
S113183075652025782025780A00000053657420FA
S1131840626175647261746520636F6D6D616E644D
S1131850202578200A0000004572726F72206765A7
S11318607420626175647261746520636F6D6D616B
S11318706E64202563200A0057726F6E67205365DB
S11318807420426175647261746520636F6D6D616B
S11318906E64200D206E6F7420666F756E640A008E
S11318A0546865206261756472617465206E6F743A
S11318B020636F6E66696775726564204F70656E2C
S11318C020636F6D6D616E64207465726D696E6105
S11318D07465640A0000000057726F6E67204F70D1
S11318E0656E20636F6D6D616E64200D206E6F7484
S11318F020666F756E640A004572726F72207061A3
S113190072736520746865205465726D696E6174C4
S1131910696F6E2076616C75652025782025780ABC
S11319200000000025733A43414E256420616C7227
S113193065616479206F70656E65640A000000005B
S113194025733A204572726F7220676574206D6545
S11319506D20666F722055534220726573706F6EEE
S113196063655F0A00000000466C657843616E445D
S113197065766963655F496E6974282029207265FC
S11319807475726E2025640A00000000466C657848
S113199043616E4465766963655F5365745465722B
S11319A06D696E6174696F6E282029207265747583
S11319B0726E202564206F6E207365742025640A7E
S11319C000000000466C657843616E446576696387
S11319D0655F53746172742820292072657475726E
S11319E06E2025640A000000466C657843616E44ED
S11319F065766963655F53657452784D61736B54A2
S1131A0079706528202920746F20676C6F62616C7F
S1131A102072657475726E2025640A005365742003
S1131A204649464F20666F72207265636965766524
S1131A300A0000000D0A464C455843414E20736588
S1131A4074207278206669666F20676C6F62616CBF
S1131A50206D61736B206661696C65642E2072650C
S1131A6073756C743A203078256C78000D0A464CF6
S1131A70455843414E5F4452565F436F6E666967F3
S1131A8052784669666F206661696C65642E2072BF
S1131A906573756C743A203078256C78000000000A
S1131AA0466C657843616E4465766963655F53652A
S1131AB07452784D61736B547970652820292072B3
S1131AC0657475726E2025640A000000466C6578A2
S1131AD043616E4465766963655F53657452784902
S1131AE06E646976696475616C4D61736B202564FD
S1131AF02072657475726E2025640A00466C6578E0
S1131B0043616E4465766963655F7365744D6169AD
S1131B106C626F782025642072657475726E20255E
S1131B20640A000053657420656C656320666F2049
S1131B3033332E33332062617564726174650A0035
S1131B4057726F6E6720636C6F736520636F6D6D82
S1131B50616E64200D206E6F7420666F756E640A6A
S1131B6000000000466C657843616E4465766963E5
S1131B70655F5365745465726D696E6174696F6EE7
S1131B802820292072657475726E2025640A00006D
S1131B90466C657843616E4465766963655F446548
S1131BA0496E69742820292072657475726E202527
S1131BB0640A00004572726F722043414E20696EC0
S1131BC0206C697374656E6572206D6F64650A00BC
S1131BD04572726F722043414E207472616E736D50
S1131BE0697420666F726D61740A00005468652020
S1131BF062617564726174652074726965642063DE
S1131C0068616E6765206F6E206F70656E20696E07
S1131C107374616E63650A002121214572726F72CB
S1131C2020466C657843616E4465766963655F54EC
S1131C30784D6573736167650A00000021212145B1
S1131C4072726F72206465636F6465205452206DF4
S1131C506573736167650A004552524F522073657C
S1131C6074204649464F204D41534B0A0000000062
S1131C7057726F6E6720536574204649464F206142
S1131C80636365707461626C65206D61736B20734E
S1131C906574200D206E6F7420666F756E640A0083
S1131CA04552524F52207061727365204944204658
S1131CB049464F204D41534B0A0000004552524FB4
S1131CC05220736574204649464F20494420666972
S1131CD06C6465720A0000004552524F52207365CD
S1131CE074204649464F204944207461626C652043
S1131CF04E554C4C0A0000004F7665727772697439
S1131D0065204649464F2049442046696C746572F3
S1131D10207461626C652073746172740A0000003F
S1131D204552524F5220666F726D6174206578740B
S1131D30656E6465642F72656D6F74652062697485
S1131D400A0000004572726F72206465636F6469F3
S1131D506E6720666C6F7720636F6E74726F6C2091
S1131D606D657373616765200A0000005365742014
S1131D70666C6F7720636F6E74726F6C2066616936
S1131D806C65640A00000000536574204649464FA0
S1131D90207461626C655B25645D20525452202579
S1131DA064204944452025642076616C2025780A06
S1131DB0000000004552524F52207061727365203A
S1131DC04649464F204944207461626C652076611F
S1131DD06C75650A0000000057726F6E67205365CA
S1131DE074204649464F2049442066696C746572E4
S1131DF0207461626C6520736574200D206E6F74AD
S1131E0020666F756E640A004552524F5220436F2C
S1131E106D6D616E64206E6F74207265636F676EA2
S1131E20697A65642025632025642073697A6520B6
S1131E3025640A007525303478000000464C455866
S1131E4043414E5F54785F5461736B0025733A20AD
S1131E504572726F722073656E64206461746120D0
S1131E60746F204344435F25640A00002DE9F04F5A
S1131E70050083B0297801D0022904DB0FF2BC10DD
S1131E8001F0CCF9D6E00FF2D410DFF808760FF2A7
S1131E90F81801F0C3F94FF4A270284401904FF4EC
S1131EA0AA702844009095F8060108B90220B9E008
S1131EB02878002202A903F0C8FB002840F0B18072
S1131EC04FF00009CB4602E0012003F093FC009898
S1131ED00089C04621283EBF594601F1010B022961
S1131EE0F2D3002800F09D80834686B92878801CB0
S1131EF0C0B202F078F9060005D141460FF29810FD
S1131F0001F08CF97BE0002006F10D093073009894
S1131F1001F0D7FC040062D03A46494600F053FC75
S1131F2082460198214601F0B0FC3878FF282BD076
S1131F30DFF8400A006801F0D5FF040004D10FF275
S1131F40781001F06BF91FE03878391807EB80003E
S1131F5091F84420416A04F1110003F0E5FD0121E8
S1131F60002001F0DBFCA080287800281ABF0321A0
S1131F700020022101F0D2FC608015202080022084
S1131F802074204601F070FEBAF1000F04D50FF260
S1131F90501001F043F91AE0307BDFF8DC195044AB
S1131FA03073C0B20988081A20280FDA2878811CF7
S1131FB0C9B2304602F035F94FF0000920B9414664
S1131FC00FF2381001F02AF9002600E0D144DFF8BE
S1131FD0AC09DFF8A8198068401C88600FE02878F5
S1131FE0811CC9B2304602F01CF920B941460FF2F7
S1131FF00C1001F013F9022003F0FCFB0026BBF1E6
S1132000010B7FF472AF66B12878811CC9B23046E7
S113201002F007F920B941460FF2E00001F0FEF8A2
S11320200026012003F0E6FBDFF8680A00780028A8
S11320303FF439AF03B0BDE8F08F000043414E5F79
S11320405258207468726561642077726F6E6720DD
S1132050706172616D2025750A000000464C455878
S113206043414E5F52785F5461736B205461736BCC
S11320703A204C6F6F7020696E7374616E636520D3
S11320802575200A00000000464C455843414E5F28
S113209052785F5461736B0025733A204572726FF6
S11320A07220676574206D656D20666F72205553CC
S11320B0422064726F700A004552524F523A2061B6
S11320C07070206D65737361676520616C6C6F63FC
S11320D06174696F6E206661696C65640A00000052
S11320E04572726F7220706172732043414E207486
S11320F06F20537472696E670A00000025733A20DA
S11321004572726F722073656E642064617461201D
S1132110746F20434443310A00000000682C00001F
S1132120F8B50E00054601D0022D01DB00F0F4BB2A
S11321304FF4BE71DFF8600911FB05F144188021EA
S113214004F1700003F0ECFC04F1FC07B079B87101
S11321500021707978713068401E386030793871A8
S1132160F0797872012038724FF48670204403F0BD
S11321709EFD064640B248B172B229460FF268008D
S113218001F04CF8002038724FF0FF36BD6E35B3C5
S11321904FF4AA70271802E0384601F092FB384643
S11321A001F0B6FB0028F7D04FF4A2702718384688
S11321B001F0AEFB18B9384601F083FBF4E7802444
S11321C02946384601F061FB30B90FF6E80001F00A
S11321D025F84FF0FF3602E01835641EF0D170B2D6
S11321E0F2BD0000882C00004572726F7220696E87
S11321F06974206D7574657820666F7220696E73DA
S113220074616E6365202575202D2025780A0000F1
S113221038B50C46002548B101460020FFF780FF81
S1132220050044BF0FF6A80000F0F8FF4CB12146AA
S11322300120FFF775FF050044BF0FF6B40000F05E
S1132240EDFF284632BD38B5040001D1032032BD6C
S113225094F80401D0B1012084F84001204600F034
S11322603DF8050004D029460FF6A40000F0D6FF7F
S11322704FF48670204403F0CCFC18B10FF6B00084
S113228000F0CCFF002084F80401284632BD70B56C
S1132290040001D1032070BD4FF482702518287802
S11322A030B90FF6A40000F0B9FF4FF0FF3070BD55
S11322B0207804F1FC02211D02F0CDFE46B2314625
S11322C0012905DB0FF6A40000F0A8FF304670BD1D
S11322D095F901102046BDE870400BE080B508B9BF
S11322E0032002BD90F8061111B1007802F0A9FF95
S11322F0002002BDF8B504001FBF4FF482702618F9
S1132300307800280D4601D00A2D01DB0320F2BDF0
S1132310DFF88807217850F82100001D400100F102
S113232084403430006800281ABF012100200021B5
S113233003F03CFF0746776039460FF6600000F073
S11323406DFF7068DFF8581788420ED0DFF8541715
S1132350884213D1DFF8500705EB850100EB8101BA
S1132360207802F03FFE40B2F2BDDFF83C0705EBF7
S1132370850100EB810000F16401F1E7DFF82C072F
S1132380C01942F21071884209D2DFF81C0705EB2C
S1132390850100EB81004FF496710144E0E70420CD
S11323A0F2BD2DE9F04F050083B00E4692469B46E0
S11323B008D095F8060110B94FF0FF303AE6BAF1AB
S11323C0100F01D3032035E605EBCA0000F17007B6
S11323D038780C9C504504BF7868584506D1B878C5
S11323E0884202BF7878A042002052D097F801902A
S11323F087F800A04FF48670C7F804B005EB000816
S1132400BE7020007C70404636D003F09DFC2878D6
S11324105B465246314602F008FE46B25246314609
S11324200FF28C7000F0FAFEA14520D0B8788DF838
S113243000005146082001900FF2A07000F0EEFE5B
S11324407B6828786A46514602F0A6FE41B219B16B
S11324500FF2AC7000F0E2FE39782878002202F026
S1132460DBFE46B231460FF2D07000F0D7FE404694
S113247003F01DFD3046DDE503F066FC28780023FB
S11324805246314602F0D1FD0446404603F00FFDAA
S113249060B2CFE59888FF1F2DE9F8438846040011
S11324A018BFB8F1000F16464FF0030900D016B953
S11324B00320BDE8F2833079012808BF4FF00809F2
S11324C01421304603F02CFBC9F1000131440020F3
S11324D00B312BE0326813013360A44600224FF025
S11324E0010E9CF90050002DAEF1010E79D0A5F13A
S11324F030070A2F38BF303D0AD3A5F14107062F14
S113250038BF373D04D3A5F16107062F69D2573D83
S1132510BEF1000F05EB02120CF1010CE1D102F047
S11325200F021A433260641C401C491C94F90020B9
S11325300D2A5AD0B8F1020F57D34845CAD3814562
S1132540234627D100224FF0010C93F900E0BEF19D
S1132550000FACF1010C44D0AEF130070A2F38BFA4
S1132560AEF130050CD3AEF14107062F38BFAEF102
S1132570370505D3AEF16105062D32D2AEF157050C
S11325805B1CBCF1000F05EB0212DED102F00F025E
S1132590B260C8E700224FF0020C93F900E0BEF1EC
S11325A0000FACF1010C1CD0AEF130070A2F38BF7C
S11325B0AEF130050CD3AEF14107062F38BFAEF1B2
S11325C0370505D3AEF16105062D0AD2AEF15705E4
S11325D05B1CBCF1000F05EB0212DED10A70A41CD7
S11325E0A2E74FF0FF30BDE8F2830020BDE8F2839C
S11325F02DE9F047164603275FEA0008747818BFF0
S1132600002900D016B90320BDE8F08706EB840545
S11326101B21686A03F084FA3619002086F8440006
S1132620686096F84C0050B1696A54200870082715
S113263096F84400401C86F84400192408E0696AAE
S113264074200870142496F84400401C86F8440052
S113265000200CE0AEF1570E0EEB0C1C521C9BB983
S11326600CF00F021143696008F10108401C98F94D
S113267000100D2927D0B84225D269680901696084
S113268042464FF0000C012392F900E05B1EBEF1BC
S1132690000F14D0AEF1300ABAF10A0F38BFAEF110
S11326A0300ED9D3AEF1410ABAF1060F38BFAEF1FC
S11326B0370ED1D3AEF16109B9F1060FCAD34FF089
S11326C0FF30BDE8F087686A22464146401C03F0AB
S11326D02BFA96F84400201886F84400C0B26A6ABF
S11326E00D21115496F84400401C86F84400002043
S11326F0BDE8F08770B5002818BF002904D10FF297
S1132700A05000F08BFD1FE000220A8004220B88F9
S11327101B010B80521E0478A4F130060A2E07D246
S1132720303C401CE318002A0B80F0D1012070BD1E
S1132730A4F14106062E38BF373CF2D3A4F161055B
S1132740062D38BF573CECD3002070BD70B500286F
S11327500D46164636D04FF4B4714418206800284C
S11327601CBF6168002909D000F0A8FE010005D053
S11327700FF25C5000F052FD002070BD0020032ECB
S1132780A06019D8DFE806F002121502681C800167
S1132790606000F046FE206088B90FF21C510FF211
S11327A0545000F03BFD0020606070BD681CC00107
S11327B0EEE7681C4002EBE76060206070BD00201B
S11327C0A060012070BDF8B504000E4618BF002EAD
S11327D0154606D10FF248510FF25C5000F01EFD71
S11327E09AE0A068410DC00201F0010203D57220F5
S11327F022B1522002E0742002B154203070002A29
S1132800E26808D00FF24851701C00F015FD06F183
S113281009010A2006E00FF24051701C00F00CFD83
S1132820311D0520A268120C02F00F0303F13002DF
S1132830012B01F8012B16DB1818181804F11006E7
S1132840327812090A2AACBF373230320A70327831
S113285002F00F020A2AACBF373230324A70891CA8
S1132860761C5B1EECD1CE1C00210423A268CA4056
S113287002F00F020A2AACBF37323032091D5B1E48
S113288006F80129F2D1471D207C10283ED1696841
S1132890002000293CD0E2688A4213D12870FF222C
S11328A0002000907F21012003F07EFD142002F01F
S11328B0A1FF00200090002300227F21012003F0CB
S11328C073FD25E0A968012011B38A42E6D0E968C6
S11328D00220E9B18A42E1D029690320C1B18A42C8
S11328E0DCD06969042099B18A42D7D0A96905204E
S11328F071B18A42D2D0E969062049B18A42CDD069
S1132900296A072021B18A4202D1C7E7FF20287033
S11329100D207071F8B2F2BD4FF0FF30F2BD70B50A
S11329200446144800680D4601F0DCFA060005D19F
S1132930BDE870400FF2504000F070BC2A462146BA
S113294006F1110003F0F0F80121002000F0E6FF89
S1132950B0800321002000F0E1FF708005F1110038
S11329603080032030743046BDE8704001F07CB9FB
S113297000000000808AFF1F706D0100E092FF1FBD
S1132980F0B50FF23C419BB0D1E900236846082121
S1132990C0E90023FFF7C3FF322002F02BFF0FF240
S11329A028417CC915A811217CC015A8FFF7B7FFE1
S11329B0322002F01FFF0FF224417CC910A811211C
S11329C07CC010A8FFF7ABFF322002F013FF0FF218
S11329D02041B1E8FC5008A82021A0E8FC5008A838
S11329E0FFF79DFF322002F005FF0FF224411CC9BE
S11329F005A81CC02E4C206801F074FA050004D10F
S1132A000FF2843000F00AFC16E0092205A905F152
S1132A10110003F089F80121002000F07FFFA88055
S1132A200321002000F07AFF68801A202880032008
S1132A302874284601F018F9322002F0DBFE0FF268
S1132A40DC312CC902A82CC0206801F04BFA040028
S1132A5004D10FF2343000F0E1FB16E0092202A9A0
S1132A6004F1110003F060F80121002000F056FF8A
S1132A70A0800321002000F051FF60801A202080F4
S1132A8003202074204601F0EFF8322002F0B2FE59
S1132A901BB0F0BDF7A3FF1FA085FF1F0C6D010045
S1132AA0006CDC0200879303A0A7FF1F4FBE87FBC7
S1132AB0808AFF1F4552524F522061646420656C26
S1132AC0656D656E7420746F2071756575650A0097
S1132AD04572726F7220496E697469616C697A65B6
S1132AE020696E7374616E636520300A0000000013
S1132AF04572726F7220496E697469616C697A6596
S1132B0020696E7374616E636520310A00000000F1
S1132B10204572726F7220466C657843616E44651D
S1132B20766963655F53746F70202D2025780A00E1
S1132B30204572726F72205F6D757465785F64658D
S1132B407374726F790A0000496E7374616E636501
S1132B50206E6F7420696E697469616C697A65644A
S1132B6020636F72726563740A0000000D0A464C9C
S1132B70455843414E20696E6974696C697A617481
S1132B80696F6E206661696C65642E207265737569
S1132B906C743A2030782578200A0000466C6578F9
S1132BA043616E20636C6F636B2025750A0000001F
S1132BB00D0A466C657843414E205365745278493A
S1132BC06E646976696475616C4D61736B207265BE
S1132BD074202575204D422025780A000D0A466C84
S1132BE0657843414E204D42207265636569766580
S1132BF020636F6E666967204D422025780A0000C5
S1132C000D0A466C657843414E205258204D4220AF
S1132C10636F6E66696775726174696F6E20666151
S1132C20696C65642E20726573756C743A20307813
S1132C30256C780A000000000D0A464C45584341B3
S1132C404E5F4452565F52784D65737361676542B7
S1132C5075666665722E20726573756C743A2030E1
S1132C6078256C78200A00004572726F7220464CF9
S1132C70455843414E5F4452565F436F6E666967E1
S1132C8054784D620A0000004572726F72207061C0
S1132C9072736541736369546F496E740A0000006E
S1132CA04572726F72207061727365417363695407
S1132CB06F53686F72740A00416C6C6F6361746562
S1132CC04649464F46696C7465725461626C65008E
S1132CD04552524F52282564292066726565204664
S1132CE049464F2066696C746572207461626C6534
S1132CF00A00000025733A4552524F5220616C6F0E
S1132D0063617465204649464F2049442066696CD6
S1132D10746572207461626C6520656C656D0A006F
S1132D20506172736543616E4D657373546F537470
S1132D3072696E670000000025733A204572726F55
S1132D40722077726F6E6720706172616D730A0012
S1132D50253038780000000025303378000000006A
S1132D60436865636B436F6D6D616E64496453754D
S1132D707070000025733A204572726F7220706182
S1132D8072616D0A00000000434443335F7265734F
S1132D907620555342205461736B3A204552524F6A
S1132DA0523A206D65737361676520616C6C6F6363
S1132DB06174696F6E206661696C65640A00000065
S1132DC04375303030310D006D7430303030303771
S1132DD0464675303030320D000000004D743030FE
S1132DE030303037453075303030330D000000005E
S1132DF04D663765303765383830313032303330EE
S1132E0034303530363037303875303030340D00AA
S1132E10533275303030350D000000004F317530BD
S1132E203030360D0000000038B504000D4608D0DF
S1132E3003E0204600F010F80C34206810F1010F74
S1132E40F7D145B103E0284600F057F80C3528685F
S1132E5010F1010FF7D131BD2DE9F041044620688E
S1132E60C0F3072500F0FF06634850F82570634857
S1132E7050F82580284603F0ACF958F8260060493C
S1132E80084040F4807048F8260000223146384655
S1132E9003F070FC08EB86004001217900F18442C4
S1132EA042F8041F00F184426179116000F184400A
S1132EB0A17940F8101FD8F8C000E179B140084367
S1132EC0C8F8C0004F4958F826000840217A090480
S1132ED001F47021084348F82600207A58B14A4882
S1132EE04057010007D0012100F01F029140474ADA
S1132EF0400942F82010BDE8F081F8B50446216885
S1132F00C1F3072001F0FF053B4951F820603B491C
S1132F1051F8207003F05DF957F82500384908404E
S1132F2040F4807047F8250001222946304603F01A
S1132F3021FC62682946304603F027FC07EB850034
S1132F404001217A00F1844242F8081F00F18442D2
S1132F50617A42F8181F00F18440A17A40F8141FE6
S1132F60F1BD0A4600F0FF01234BC0F3072053F8DC
S1132F70200003F00ABC2049C0F3072251F82210B4
S1132F80012202FA00F0486070471B49C0F307228F
S1132F9051F82210012202FA00F0886070471649A5
S1132FA0C0F3072251F822100969C14001F0010061
S1132FB070471249C0F3072251F8221000F0FF00B5
S1132FC001EB8000400100F1844060300068401E45
S1132FD08041C043C00F70470849C0F3072251F82D
S1132FE0221000F0FF0001EB8000400100F184405A
S1132FF0012140F8601F70470C6B0100206B010039
S1133000FFF8FFFEFFFFF0FE346B010000E100E07B
S11330100901002806D54B4A00F00F00104400F8BF
S1133020041C7047484A1154704770B50D46202D52
S11330300446164608D3FF220FF230110FF2201077
S113304003F0ACFBC046C04654F825003F49084095
S1133050310201F4E061084344F8250070BD10B565
S113306010B1012824D010BD394C0222132120466E
S1133070FFF7DBFF022212212046FFF7D6FF0321D0
S11330801D20FFF7C5FF03211E20FFF7C1FF032109
S11330901F20FFF7BDFF03212020FFF7B9FF032105
S11330A02120FFF7B5FFBDE8104003212220AFE740
S11330B0284C022210212046FFF7B7FF02221121DB
S11330C02046FFF7B2FF244830210170417081701F
S11330D0C1700171417110BD10B5022815D11C4C8D
S11330E0022214212046FFF7A0FF022215212046C8
S11330F0FFF79BFF022216212046FFF796FF20468A
S1133100BDE81040022217218FE710BD10B5032837
S113311002D0042809D010BD104C032204212046FB
S1133120FFF783FF0322052107E00A4C03220E2147
S11331302046FFF77AFF03220F212046BDE8104006
S113314073E7000018ED00E000E400E0FFF8FFFE84
S113315000A0044000B0044025E400E000D0044096
S113316070696E203C20333255000000433A5C55B0
S1133170736572735C616269642E65736D61696CF9
S11331805C446F63756D656E74735C6D6963726FB7
S11331906E65745C736F757263655C4E6574383606
S11331A0395F4D54355C4D43555F5441534B535C2B
S11331B06961722F2E2E2F2E2E2F4D51585F4F5393
S11331C02F4253502F706C6174666F726D2F68615B
S11331D06C2F696E635C66736C5F706F72745F688A
S11331E0616C2E6800000000002203F0F5BA38B5C7
S11331F004462068017841F080010170256805E0EB
S1133200206A4FF0FF32904218BF804728780006AA
S1133210F6D52068007800F0310032BD0EB400B558
S113322082B003A9009103464FF0FF320B490C48CA
S1133230406803F024FB0EE00DB400B582B004A88E
S113324000900B464FF0FF32064903A803F017FB2A
S11332500021039A117006BC5DF810FB6D6B010030
S1133260F0B1FF1F517200002DE9F0470446884673
S1133270154699460027A868DFF80414884203D04D
S1133280382004F067F957E004F10C00102838BF27
S113329010200F300409240104F062FB6E69D5F894
S11332A014A001E0B246B668B6B3AE6104F066FBA2
S11332B004F056FBA869864202D06E69B2465EB33A
S11332C03068A042EED3011B102906D330190160E7
S11332D04560B1688160346001E00446B0686969A2
S11332E08E420CBF6861CAF80800D8F80C0030811F
S11332F07781756030688019401EE96A814238BF61
S1133300E862B9F1000F05D0A4F10C0106F10C003C
S113331002F006FC06F10C076869A8616869E861B7
S113332068692862E8686862E868A86204F026FBB5
S113333017B9042004F00EF93846BDE8F0872DE9EA
S1133340F8430746884691461D460026A868DFF8DC
S11333503013884203D0382004F0FCF85CE007F115
S11333600C00102838BF10200F3007093F0104F06B
S1133370F7FA6C6900E0A468002C3DD0AC6104F05D
S1133380FDFA04F0EDFAA869844201D06C699CB39B
S11333902068A8F10C0104F11002914221BF211808
S11333A008EB07020C3A9142E5D3A8F10C010A1B81
S11333B0C01B801A2260102806D3CA1910605560F9
S11333C0A0689060A26001E0C719A2680F608A60DB
S11333D0D9F80C0008814E814D6020680019401E08
S11333E0E96A814238BFE862089820B1A7F10C016C
S11333F0404602F095FB46466869A8616869E86141
S113340068692862E8686862E868A86204F0B6FA45
S113341016B9042004F09EF83046BDE8F283002378
S113342000E00123DFF85C120968D1F81C23DFF8FF
S113343054120968C96917E7F8B504460D461646DB
S1133440DFF840020768A81900090001206105F1AE
S11334500F0000090001E060E0622169091A0160BF
S11334600021816044606061A061E061206204F039
S113347077FAD7F80C0328B900214FF44370384485
S113348004F046FB21464FF44370384404F047FBF4
S113349004F074FADFF8E801A060B5F1005F0BD224
S11334A0A819B0F1005F07D3002000902346FA6901
S11334B04FF00051FFF743FF2046F2BD70B5DFF82F
S11334C0C411096800B9BDE0A0F10C046568A868DE
S11334D0DFF8AC21904204D0382004F03BF83820C7
S11334E070BD2089C969C96889B288421CBF4FF67A
S11334F0FF71884200D0AAE004F032FA08E00646E0
S1133500EE6104F03BFA04F02BFAE869864200D03D
S11335106E69686910B16869844212D26E69206864
S11335202044B0420AD12068316808182060B0688D
S1133530A06000200021002207C600E0A6606C61A4
S113354026E0B068844201D30028D8D12068204402
S1133550B16888420BD12068096808182060B068F7
S11335608068A0600C21B06802F0DAFA00E0A16083
S113357030683044A0420AD13068216808183060AD
S1133580A068B06000200021002207C400E0B460FD
S11335906869A8616869E86168692862E8686862BE
S11335A0E868A86204F0EAF9002070BD00235DE039
S11335B080B5DFF8D0000268D2F8D801C2F81C0345
S11335C000F13001D2F8DC21521AFFF735FF002058
S11335D002BDF8B50446DFF8AC00056819B9D5F8A2
S11335E00C63F76804E0A1F10C0046680168471811
S11335F004F0B6F9706901E039680F4431698F420B
S113360010D23989E26892B29142F5D100E0806823
S113361008B1B842FBD3B842EED004F0AFF907F1D9
S11336200C00F2BD3668F7684FF4437028448642B4
S1133630E0D104F0A3F90020F2BD10B120F8021C7F
S113364001207047012003F085FF012070BD032095
S113365003F080FF032070BDC96820F8041C704784
S1133660D16820F8041C002070470123054909682B
S1133670D1F81C23034909685031FFF7F5BD000058
S113368070656D6CB4B1FF1F000000000000000005
S113369072B6EFF3088383F309888908491C714AD9
S11336A001E040F8042B491EFBD162B601DF7047EC
S11336B001DFFEE76C48006872B6018B31B9416ADC
S11336C0C269D369994201D062B603DF62B670471A
S11336D003DF7047FEE702DF704772B61EF0040F87
S11336E00CBFEFF30881EFF30981896911F8021C1B
S11336F0032905D100B500F01CF85DF804EB16E0D1
S1133700012902D15848006830E002290FD15648F7
S11337100068C1698A6842F001028A6000B54A689B
S11337200B6813605A6000F004F85DF804EB62B6AD
S1133730704707B54D48416811F0805F07D1EFF33A
S11337401182A2F1100280F822204949416007BD8C
S113375072B645480068EFF3098C46498A78EFF35E
S113376011832CE9FC4FC369C3F814C072B6416AD3
S11337700A688A4203D189680900F9D1FEE74162E7
S1133780C261938C4383D2F814C0BCE8FC4F83F32A
S113379011888CF3098835483749416062B670470F
S11337A072B600B5304B1B68198B01F10101198306
S11337B0002001B4EFF31182EFF30581586B07B4D5
S11337C0EFF30880586308461A6B02B92FE0904261
S11337D02DD8DA6A811A2ADB9A6B4FEAD1014FEAB3
S11337E08101515801B922E00A6822B1824203D012
S11337F0C9680942F8D11AE088684A6808B462B610
S1133800904772B608BC07BC586301BC198B491EAB
S11338101983DA69906A10F4805F0AD129B9596A68
S11338200968914218BFFFF784FF62B600BD9A6A27
S1133830E4E740F40030906262B600BD000000008E
S113384070474FF08002D0E84F1F00290CBFC0E83A
S1133850432F01E0002BF6D108467047EFF30380B5
S1133860704700006B617473B4B1FF1F00ED00E09A
S11338700000001020ED00E00000000800600022BD
S1133880406002814181C260704730B41F4AEFF347
S113389011831360302383F311884489038925003D
S11338A003D0A34201D3106826E0446824680C6066
S11338B04568296045684D606160591C0181106844
S11338C01FE030B41149EFF311820A60302282F311
S11338D0118802890B68110002D183F311880DE06D
S11338E001684C680D6825606C60521E028183F388
S11338F01188084630BC704780F3118830BC002022
S1133900704780F3118830BC01207047EC88FF1F9A
S11339100189481E8041C00F7047FEE7DFF8442349
S11339201268FF2801DD00207047030008BFD2F8A9
S1133930B00101F0FF0141EA002080B2704780B578
S1133940002200920023012200F001F802BD2DE9BB
S1133950F8430446884616469946DFF80803056886
S1133960D5F81C7227B900F00EFBD5F81C723FB3D2
S113397003F0F6FF20001CD1B8694FF480710844AD
S1133980082401E02030641C7969A1420CD3818AA7
S1133990A2B29142F6D0A0B230B1B869A4B200EBA1
S11339A04410818AA1420ED103F0E8FF40F2117065
S11339B006E078698442F0D303F0E0FF40F21B7024
S11339C003F0C8FD8AE28482002101604160016144
S11339D00181C682A0F80A80C0F818900899C161D4
S11339E0012E12D1E969C160D1F88C203AB9C1F82D
S11339F08C00C1F890000020C1F8940007E0D1F8D1
S1133A0090201061C1F8900001E00021C16003F032
S1133A10B5FFD5F8B00104F0FF0141EA002080B2FF
S1133A20BDE8F28310B584B0044608000DD001A9A6
S1133A30401E04F0C5F8DDE90101801C41F10001DC
S1133A40CDE901016B46022201E06B46002201A987
S1133A50204600F002F804B010BD2DE9F84F0446EA
S1133A60884693461F46002038607E480168088BCC
S1133A7020B10D2003F06EFD0D2007E0D1F81C02EB
S1133A80009028B9182003F065FD18203860E8E19B
S1133A900025D1F81C9020002CD1D9F88C000028E6
S1133AA041D003F05DFFD9F89400C0B90720C9F8EC
S1133AB00800C9F83850C9F89850BBF1000F02D17A
S1133AC0FFF709FE08E0BBF1020F404602D101F006
S1133AD0CFFE01E001F023FFD9F89850A0E0D9F817
S1133AE08C6000E03669002E00F0B6803089002832
S1133AF0F8D099E004F0FF0A200AD1F8B011884206
S1133B0002D1BAF1000F07D14FF4E26003F022FDB5
S1133B104FF4E2603860A1E00098806900EB4A1637
S1133B20B08A504507D040F2137003F013FD40F201
S1133B301370386092E0F068002818BF484507D039
S1133B4040F2127003F006FD40F21270386085E016
S1133B5003F006FF3089002866D1F06800287BD086
S1133B600520C9F80800C9F838A0C9F89850BBF175
S1133B70000F02D1FFF7AFFD08E0BBF1020F404692
S1133B8002D101F075FE01E001F0C9FED9F89850A8
S1133B90002D1FBF6888A0423089002840D00098BB
S1133BA08069A97800EB4114608918B12089618982
S1133BB0884230D2A5F11401088946F66752904232
S1133BC018BF40F2167028D10122204600F04CF9AB
S1133BD0E06828B1D0F89400401CE168C1F8940072
S1133BE03089401E308131680868306000280FBF7A
S1133BF07060002032685060F06828B1D0F89400FA
S1133C00401EF268C2F8940001F114050020C87245
S1133C10C1F8109004E040F2177003F09BFC0025FB
S1133C200020C9F8980017E0401E30813168086808
S1133C30306000280EBF706032685560F06828B1AB
S1133C40D0F89400401EF268C2F8940001F1140503
S1133C500020C872C1F8109003F090FE2846BDE819
S1133C60F28F0000B4B1FF1F4288002100E0000081
S1133C702DE9F84F0446894692460648D0F800B02C
S1133C80DBF81C82B8F1000F06D1182003F062FCA7
S1133C90E7E000BFB4B1FF1F5CB1A4F114052889AB
S1133CA046F66751884204BFA87A002801D1E87A11
S1133CB020B140F2167003F04DFCD2E05FEA1A2006
S1133CC006D1DBF8B001618860F30F21618003E065
S1133CD0DBF8B011884202D11AF0FF0707D1204661
S1133CE000F0D4F94FF4E26003F034FCB9E0D8F802
S1133CF0180000EB4716B08AB84200D13EB92046FE
S1133D0000F0C4F940F2137003F024FCA9E003F0BE
S1133D1027FE708920B130897189884280F09780AC
S1133D20F08A012840F08480F168087A072804D0DA
S1133D30052804BF886BB84224D105F11400C1F8EA
S1133D40980029618868C0050ED548680A68026031
S1133D505060BBF88C01401EABF88C01886820F4DD
S1133D60807040F003008860084603F00AFDB069E3
S1133D7010B1F069B1698847B9F1000F4ED1FFF76E
S1133D8099FC5FE00022A0791F2318421CBFD1F8E0
S1133D90980000282ED00746A079C0060AD4B87926
S1133DA0C00627D4B87900F00F00A37903F00F03FD
S1133DB098421FD2C1F8984044F8041CA7F1140596
S1133DC02A6101227888824514D0D8F81800B9787D
S1133DD000EB4116708968B130897189884209D332
S1133DE003F0CCFD384600F051F940F2177003F0AF
S1133DF0B1FB36E02946304600F036F8F06828B1C9
S1133E00D0F89400401CF168C1F89400B06910B176
S1133E10F069B1698847B9F1000F13D0BBF81800F5
S1133E2080B90D20DBF81C108860FFF754FC09E012
S1133E3000222946304600F017F8B06910B1F06945
S1133E40B169884703F09AFD0120BDE8F28F03F0C1
S1133E5095FD40F2177003F07DFB05F1140000F0AE
S1133E6015F90020BDE8F28F30B4036823B90022AD
S1133E704A600A60016029E08B7EDB0612D48AB9AD
S1133E808A7E0F231A421BD002F00F02002304681B
S1133E90A57E05F00F05954203D323462468002C24
S1133EA0F6D13BB902680A6000224A600268516098
S1133EB001600CE024B14B600C601960616006E0A5
S1133EC042684A6000220A604268116041600289C7
S1133ED0521C02810120C87230BC70470020BDE82A
S1133EE0F283000070B50446DFF89C020568D5F83B
S1133EF01C0208B9182028E0A08A46F667518842B7
S1133F0006BFA069052840F203701ED12089A0B91C
S1133F10608A90B16089E18A884201D308000CD19B
S1133F20618AE08A6289801A80B288423CBFE08A52
S1133F30811A89B2204603F009FF03F011FDE668F7
S1133F403EB903F01BFD40F2017003F003FB0020B7
S1133F5070BD3068E0602089401E208103F00EFDB2
S1133F600020B072F072288B002814BF0020E8698A
S1133F70306106F11400002141808180218A018092
S1133F806021817170BDF8B57F4804684FF4F0700A
S1133F90204403F0E9FF002877D1D4F81C0228B1AB
S1133FA04FF4F070204403F0ACFF6DE02020FFF7E5
S1133FB05CFB050006D14FF4F070204403F0A1FF30
S1133FC00420F2BD0921FFF738FBD4F8C80110B969
S1133FD00120C4F8C801D4F8C801C0EBC0018800AE
S1133FE0FFF743FB060007D14FF4F070204403F0C1
S1133FF088FF40F20670F2BD0B21FFF71EFBD4F8D8
S1134000CC014FF6FF72904228BF4FF6FE7001D2EA
S113401000B90120C4F8CC01401C4001FFF725FB86
S113402007000AD14FF4F070204403F06AFF3046D1
S1134030FFF744FA40F21970F2BD0A21FFF7FDFAC6
S1134040686860B92861A860E860D4F8C80128608D
S1134050D4F8CC0168616E600026AF6100274B483C
S1134060E861C4F81C520FF27100C4F84C024FF41A
S1134070F070204403F045FF16B13046FFF71EFAF6
S113408017B13846FFF71AFA0020F2BD38B5A0F18F
S11340901404208946F66751884218BF012007D1CD
S11340A0A07A08B1032003E0E07A28B140F21A7044
S11340B0BDE8324003F04EBAE5680120A07203F077
S11340C04FFCE8682060EC602889401C2881BDE82A
S11340D0314003F053BC00002DE9F04780462A48E4
S11340E00068D0F81C62002E4CD0D8F88C700FE019
S11340F02C680020E87205F11400FFF7C7FF25467D
S1134100002DF5D138463F690021016001618182AB
S113411057B1F86830B1D0F894003989401AF96879
S1134120C1F894003D68EBE70020C8F88C00C8F89B
S1134130900077683068461C00E01C37761E21D05A
S1134140B88A46F667518842F7D13C6810E028697E
S1134150404504BFA87A002805D1E87A18B905F1CA
S11341601400FFF793FF4D44BAF1010AEFD124681C
S1134170002CE2D0D4F8049004F11005A06800F1FA
S1134180010AF1E7BDE8F087B4B1FF1F7373656DF1
S113419038B5DFF814494FF478712046FFF724F856
S11341A04FF46E70251843F2DE006860FFF737F9AC
S11341B06968286020B90FF6D010FFF72FF80EE0D9
S11341C00FF6EC10FFF72AF84FF47070002120442A
S11341D003F034FE28B10FF6F810FFF71FF80020A3
S11341E032BD012032BD10B5052808DB02460FF6AA
S11341F0F0110FF60020FFF711F8002010BDDFF8D2
S1134200A81800EBC00201EB021404F1600003F0F3
S1134210A1FC28B904F17000BDE8104003F09ABC79
S113422010BD70B504000D4601D0052D06DB0FF658
S1134230E4110FF6F410FEF7F1FF2EE0217BDFF816
S1134240686805EBC500002906EB0010214618D06C
S1134250703003F064FC30B923462A460FF6B411DB
S11342600FF6E01017E04FF47070304403F049FE8D
S1134270A8B12A460FF69C110FF6F010FEF7CEFFF8
S11342800BE0603003F04BFC48B923462A460FF696
S113429084110FF6F410FEF7C1FF002070BD012059
S11342A070BD0A2917DA1168097A00F84D1F1168E0
S11342B0497A41701168897A81701168C97AC1702C
S11342C01168097B01711168497B41711168897B0F
S11342D0817100207047CE2070470A2904DA1168E2
S11342E0097800F8541F0AE0CE2070470A2904DA3E
S11342F01168097800F8561F01E0CE207047116854
S113430049784170002070472DE9F04F0FF6A8114D
S1134310DFF894978DB0D1E900230BA80026C0E9FB
S113432000230020029009F1040803F0C1FFC046F5
S1134330C0464FF4567048440190056E4FF43770F0
S113434048440790824609F18400069009F1F00080
S113435000904FF48A70484405904FF4C07048446C
S11343600A904FF4D270484404904FF404704844C7
S113437009904FF40D70484403904FF4287048445A
S113438008904FF4317009EB00040FF2FD20CAF8D5
S11343900000CAF80480CAF8148007220FF24530DE
S11343A0CAF810000BA9DFF80407CAF81C000020A3
S11343B08AF82000DFF8F806CAF8180002208AF804
S11343C0280008F14D0001F0AFFB0DF10A0008F1DF
S11343D0540102780A7042784A7002A808F1560122
S11343E002780A7042784A7008F14A00002101708C
S11343F0867308F18800C8F844100160416008F130
S11344005C0003F085FB002108F16C0003F080FBE5
S1134410042E00F2E080DFE806F003548EABC60001
S11344207DB900220FF6DC210FF6E820FEF7F6FE38
S113443031460FF68C00FEF7F1FE00200DB0BDE80A
S1134440F08F069845600520069908700020A86042
S11344502873294609F1600003F061FB58B305F1A4
S113446052070020B8603873394609F1600003F040
S113447056FB00B352370020B8603873394609F14F
S1134480600003F04CFBB0B152370020B8603873C1
S1134490394609F1600003F042FB60B15237002055
S11344A0B8603873394609F1600003F038FB10B185
S11344B04FF4CD708EE000210FF67020FEF7AEFEB3
S11344C0B6E70DB90122ADE70598456005200599C9
S11344D008700020A86028732946009803F01FFB89
S11344E038B305F194070020B86038733946009852
S11344F003F015FBE8B194370020B86038733946EF
S1134500009803F00CFBA0B194370020B860387316
S11345103946009803F003FB58B194370020B86083
S113452038733946009803F0FAFA10B14FF4397031
S113453050E00121C0E72F0001D1022272E7049864
S1134540456014200499087083460020B8603873CD
S113455039460A9803F0E3FA40B14FF488703F18E3
S1134560BBF1010BF1D14FF4AA5033E00221A3E7D0
S11345702F0001D1032255E70398456014200399C5
S1134580087083460020B86038733946099803F0F0
S1134590C6FA30B14FF488703F18BBF1010BF1D16A
S11345A0E1E7032188E72F0001D104223AE765609F
S11345B00A20207083460020B86038733946089872
S11345C003F0ADFA00285CD03037BBF1010BF2D117
S11345D04FF4F0700544761C052E08F190080AF19A
S11345E02C0AFFF6D2AEDFF8CC04002101804A4643
S11345F040214180818005202074079860614FF438
S1134600357009EB0001002003F078FE09F14F003A
S113461002214170032101700521E06BC9F80400F7
S113462009F1DF0041700621017009F18401A06ED7
S11346300861082109F26F104170092101704FF4DB
S11346408A71019800684944086109F2FF100B213E
S113465041700C2101704FF4D2710198C06A494431
S1134660086109F28F200E2141700F2101704FF46F
S11346700D710198806D49440DB008610120BDE8B9
S1134680F08F042118E7000038B51468010011D137
S1134690002082F848002046DFF81854294604F028
S11346A077F9F0B92988204603F09CFD4020688002
S11346B0A88031BD01280CD1DFF8F803438802F14A
S11346C04805121DE978204604F05BF901202870A2
S11346D031BD062805D1BDE832400FF2F850FEF78F
S11346E09DBD31BDF8B5069D2E680024042871D007
S11346F0052855D0202827D021280FD0232814D0CE
S1134700242819D0252824D0262827D063283AD055
S1134710642829D0672800F0AE80ABE0C9B20A292A
S113472080F2A88005F14D000CE0C9B20A2980F29C
S1134730A18005F1540005E0C9B20A2980F29A80EB
S113474005F15600106096E0C9B22846FFF7A9FDAE
S113475008E0C9B22846FFF7C0FD03E0C9B2284605
S1134760FFF7C4FD044686E005F1440738790028C4
S113477000F08180397D0FF29850FEF74FFD012043
S11347807871B87177E005F144073879002872D060
S1134790397D0FF29050FEF741FD7C71BC716AE0E7
S11347A005F14407387900281CBF7879002862D0C5
S11347B018683860002818BF10F1010F5BD0284634
S11347C000F0B8F8BB484388F9792A1D304604F054
S11347D0D8F850E0002B1CBF1868002805F14407E6
S11347E00DD0B4498988B0FBF1FC01FB1C0030B941
S11347F0397A00230022304604F0BCF83BE03879D3
S113480000281CBF787900281ED0106808B91868E1
S113481098B9B96B59B105F15C0003F080F928B976
S1134820BA6B397D0FF21050FEF7F8FCBC6301201F
S1134830B871B86C401CB8641DE0B86BD8B10FF205
S11348402450FEF7EBFC16E0BA6B0FF2AC410FF20A
S11348501C50FEF7E3FCB96B69B105F15C0003F091
S11348605EF928B9BA6B397D0FF2CC40FEF7D6FC5D
S1134870BC6300E0CE242046F2BDF0B50FF20C502C
S113488085B0D0E90023CDE9002302A8002100224D
S113489000230EC0FFF738FD28B90FF2F840FEF7E9
S11348A0BDFCFEF718FF0020009002A964200190CF
S11348B0684601F01EF928B90FF2C4410FF2F8401E
S11348C0FEF7ACFC784C4FF4707002A9204403F05E
S11348D096FB0D2818BF1F2806D101460FF2F4409D
S11348E0FEF79CFC64201DE04C3405250FF2F846CD
S11348F00FF28C47207800281CBF607800280DD068
S1134900A07858B154F8480CA4F1480100F0D8F844
S113491020B9227C39463046FEF780FC90346D1E67
S1134920E8D1012000F066FF634800780028BAD07F
S113493005B0F0BD30B5040085B000F0B2805A492E
S113494020684A68904221D120797E286AD15B4848
S11349500068FFF7C7FA050004D10FF29C40FEF788
S11349605DFC5FE0626C211D05F1110001F0DCF8D3
S113497001210020FEF7D2FFA8800B210020FEF7C2
S1134980CDFF6880606C2880002047E0D1F8942037
S1134990904200F08680D1F8242190421DD14748EE
S11349A00068FFF79FFA050008BF0FF2844058D053
S11349B0626C211D05F1110001F0B6F801210020FF
S11349C0FEF7ACFFA88002210020FEF7A7FF688055
S11349D0606C11302880022020E0D1F8B42190428C
S11349E024D136480068FFF77DFA050008BF0FF2AE
S11349F0784036D0626C211D05F1110001F094F865
S1134A0001210020FEF78AFFA88003210020FEF781
S1134A1085FF6880606C1130288003202874284644
S1134A20FFF722F90020606405B030BDD1F84412CC
S1134A30884236D1684600210022002300252EC07A
S1134A40616C032905D20FF25840FEF7E7FB05B06D
S1134A5030BD1A480068FFF745FA050005D10FF28A
S1134A606C40FEF7DBFB05B030BD626C211D68466F
S1134A7003F0B7FF626C05F11101684603F0B8FF5B
S1134A8001210020FEF74AFFA88006210020FEF73E
S1134A9045FF6880606C2880042028742846FFF74E
S1134AA0E3F805B030BD0000F88DFF1F9901010047
S1134AB09CB1FF1FF0A3FF1FF7A3FF1F808AFF1FF6
S1134AC0F8B50F00064606D10FF284410FF290406C
S1134AD0FEF7A4FB39E007F17C0507F14A042968D5
S1134AE061B107F15C0003F01AF828B92A68A17BC8
S1134AF00FF24420FEF792FB0020286007F16C00BF
S1134B0003F028F8286080B30021217000F10D0221
S1134B10037BA178304603F02DFFC0B1A27B0FF2D6
S1134B2030410FF25040FEF779FB296807F15C0031
S1134B3002F0F5FF28B92A68A17B0FF2FC10FEF7FA
S1134B406DFB00202860012020700020F2BDE86881
S1134B50431C2869EB60984207D30090A27B0FF2B4
S1134B60F0310FF22C40FEF759FB2078002804BFE7
S1134B702868002806D1A27B0FF2D4310FF24C40F2
S1134B80FEF74CFB0120F2BD4552524F5220616C9E
S1134B906C6F6361746520555342206F7574206295
S1134BA075666665727320733D25640A0000000013
S1134BB0555342204F757420627566666572732082
S1134BC0616C6C6F636174656420733D25640A00D5
S1134BD04552524F52205553422073656D610A006D
S1134BE047657455534257726974654275666665C4
S1134BF07200000025733A4552524F522074686582
S1134C002055534220706F72742025642077726F90
S1134C106E670A005365745553425772697465424E
S1134C20756666657200000025733A4552524F520C
S1134C3020706172616D65746572732077726F6E36
S1134C40670A000025733A4552524F52206164644A
S1134C5020717565756520656C656D2063646325D9
S1134C60642C20616464722025780A0025733A4517
S1134C7052524F52207365742073656D20666F72B3
S1134C802063646325640A0025733A4552524F52E7
S1134C902061646420746F20667265652071756597
S1134CA0756520656C656D2063646325642C2061E3
S1134CB06464722025780A0000C201000000080024
S1134CC04552524F522073746172742043444325F9
S1134CD0640A00004552524F5220555342206765E2
S1134CE074205553425F4445565F4556454E545FC4
S1134CF04552524F520A0A005553425F4170705F49
S1134D00436C6173735F43616C6C6261636B00003D
S1134D10506F72742564206163746976617465648C
S1134D200A000000506F7274256420646561637426
S1134D306976617465640A0025733A204572726F5E
S1134D40722061646420746F2066726565207175D9
S1134D5065756520706F72742564206D656D2025FE
S1134D60780A000073746F70310A000025733A20CA
S1134D704576436F6D70352025780A0A00000000DF
S1134D805573625F7461736B0000000000000000E3
S1134D90000000004572726F7220696E69616C696F
S1134DA07A6520555342207461736B20626C6F6383
S1134DB06B65640A0000000025733A204572726F27
S1134DC07220636F6E762074696D653274696B73DB
S1134DD00A00000025733A204572726F7220256420
S1134DE02073656D0A00000025733A5741524E2026
S1134DF06364635F25640A00434443305F726573F0
S1134E007620555342205461736B3A204552524FD9
S1134E10523A206D65737361676520616C6C6F63D2
S1134E206174696F6E206661696C65640A000000D4
S1134E30434443325F726573762055534220546174
S1134E40736B3A204552524F523A206D6573736129
S1134E50676520616C6C6F636174696F6E20666155
S1134E60696C65640A000000434443335F726573F0
S1134E707620555342205461736B3A204552524F69
S1134E80523A206D65737361676520616C6C6F6362
S1134E906174696F6E206661696C65640A00000064
S1134EA0434443345F726573762055534220546102
S1134EB0736B3A2072656320646174612073697A4C
S1134EC065202564203C2033200A000043444334F9
S1134ED05F7265737620555342205461736B3A2098
S1134EE04552524F523A206D657373616765206174
S1134EF06C6C6F636174696F6E206661696C656464
S1134F000A0000004344435F51756575655F696E2F
S1134F10697400004572726F20706172616D2025A2
S1134F2073204344432025640A0000004552524F35
S1134F30522061646420656C656D656E7420746FC5
S1134F40204344432025642071756575650A00007B
S1134F504344435F53656E64446174610000000020
S1134F6025733A204572726F7220706172616D0A06
S1134F700000000025733A204572726F7220736539
S1134F806E642055534220706F72745F25640A006A
S1134F9025733A207061636B657420616C7265617E
S1134FA064792073656E74205420505F25643A2020
S1134FB073656E645061636B6574733A2025642C69
S1134FC020636F6D706C3A2025640A0025733A20C3
S1134FD05365742073656E6452205420505F2564B9
S1134FE00A00000080B5DFF8EC2752F8200003F037
S1134FF081FD002002BDDFF8DC2752F8200004F018
S11350009FB880B5DFF8CC3753F820000B0004D1EB
S1135010114604F0B6F8002002BD012903D111465F
S113502004F0C4F8F7E7032002BD18B414461A4686
S1135030DFF8A03753F820000B0003D1214618BC39
S113504004F0D0B8012903D1214618BC04F0F1B80A
S113505012BC03207047F8B50446DFF8780750F80F
S113506024700D461646204601F0E2F80121384628
S113507003F00BFD01005ED1384603F0E7FC38462F
S113508003F00BFD010056D13168384603F003FFED
S1135090707918B13179384603F0C7FEB1793846D2
S11350A004F0EDF8010046D1002105F1080004F0F8
S11350B059F9002105F1280004F054F9DFF8180724
S11350C00257DFF81807012102F01F0301FA03F366
S11350D0520940F82230DFF80827125702F01F0364
S11350E001FA03F3520940F82230DFF8F826125788
S11350F002F01F0301FA03F3520940F82230DFF8EB
S1135100E826125702F01F039940520940F8221072
S113511005F1480000210170417005F14A00102199
S113512000F0FEFC002028606860DFF8C00600EB99
S11351308400C5630020F2BD30B5DFF8B04604EB4F
S1135140800485B0E46B6160556803951278DFF8DC
S113515084568DF80820082201920022009201AAA8
S113516055F8200003F0F6FC01001CBF002184F870
S1135170481005B030BD38B5DFF8704604EB800444
S11351800025E46B84F85A50049C009400F06EFAF5
S1135190010008BF002032BD70B50C46DFF834169C
S11351A084B051F82060DFF8441601EB80001D46FE
S11351B0C06B01680123A340194301602B4650686A
S11351C00290214610788DF804006A460F20009062
S11351D0304603F07AFD010011D1002000902B46E7
S11351E06A462146304603F070FD010007D10420D1
S11351F000902B466A462146304603F066FD04B013
S113520070BD80B5DFF8CC3553F8200003F070FE94
S1135210010008BF002002BD18B4DFF8D03503EB4D
S113522080030024DB6B0B4483F85C4018BC55E21C
S1135230DFF8B82502EB80020023D26B82F85B30E2
S113524073E2F8B50446DFF8A40500EB8405DFF843
S1135250840550F82460EF6B00224FF4004130467F
S113526003F0F4FE00224FF48041304603F0EEFEDA
S1135270B06A0020B062052000F0BCFA07F1080013
S113528004F097F807F1280004F093F8DFF84805D4
S11352900257DFF85C05012102F01F0301FA03F352
S11352A0520940F82230DFF83825125702F01F0364
S11352B001FA03F3520940F82230DFF82825125787
S11352C002F01F0301FA03F3520940F82230DFF819
S11352D01825125702F01F039940520940F8221072
S11352E0304604F00BF8304603F0BFFB0020E863BF
S11352F0204600F0A0FF0020F2BD00002DE9F04F91
S1135300044687B0206BDFF8E4540E46A16A0840D7
S1135310049005F11401204603F0DDFE16B9206B5C
S113532020638FE1206A009040F207310098084220
S113533017D00098400711D5DFF898040068A04200
S113534005D1E86B90F8480040B1002004E0286CD7
S113535090F8480010B1012000F01DFA204603F037
S1135360C3FE0498002800F06C817168012000FAE3
S113537001F7206B07420ED0A869401CA861DFF832
S113538054040068A0420CBF0020012000F003FA7E
S1135390206B38402063206B10F0E00F76D0600162
S11353A000F184407430006800286FD006F1EC07E7
S11353B03878002840F0458101203870206B400681
S11353C002D52869401C2861206B000609D5E868CD
S11353D0401CE86005E02869401C286100BF00BF4C
S11353E000BF206B80063DD5786800281CBFB968D3
S11353F000292AD0FEF765FA060017D006F1080145
S1135400204603F078FE206B00F020002063206B20
S1135410400603D5206B00F0400020633146B86895
S1135420FEF733FA2868401C28600EE0A068206B61
S113543000F020002063206B400603D5206B00F0B1
S1135440400020636868401C686001224FF480417A
S1135450204603F0FBFD01224FF40041204603F0F7
S1135460F5FDBEE7206B4006B5D4206B400603D59E
S1135470206B00F040002063206B000603D5206BF6
S113548000F08000206300203870DBE0306804996D
S113549011EA000A1EBF06F1EC07786800281CBF59
S11354A0B868002800F0CD804FF0000806F17009BC
S11354B05FEACA7040F1BA807868FEF729FAB8B991
S11354C07868FEF7FEF9060015D04146204603F041
S11354D09DFC06F108024146204603F05EFCB868D4
S11354E03146FEF7D2F9A0682868401C286002E023
S11354F06868401C6860012000FA08F00590C04309
S11355000490B448D0F800B0CDF818B05846A04282
S113551003D1CDF800B0EE6B03E0AE4840680090D4
S11355202E6C0022414603F07EFD30680499084049
S11355303060306828B9009800224FF4804103F0AD
S113554085FD06EB08004A300090807C18B106F116
S1135550280003F02AFF00990020087005982063B2
S113556019F8030C002861D0069919F8020CD9F82F
S11355700060A1422AD1E96B0A68059B1A430A60BC
S11355808DF8080008210F2003910190334601AAE9
S11355904146584603F099FB78B90190334601AA75
S11355A04146584603F091FB38B904200190334634
S11355B001AA4146584603F088FB19F8041CEA6B1B
S11355C00A44002082F85C0000222DE08149D1F8D1
S11355D004B0296C0A68059B1A430A608DF8080018
S11355E008210F2003910190334601AA41465846F1
S11355F003F06BFB78B90190334601AA4146584643
S113560003F063FB38B904200190334601AA4146F4
S1135610584603F05AFB19F8041C2A6C0A4400206B
S113562082F85C000022012000F058F85FEA5A0A70
S113563008F1010809F1080903D0B8F1100FFFF4CB
S113564037AF00BF07B0BDE8F08F80B5674A02EB03
S11356508001C96BD1F8F41031B108460089C04605
S1135660002814BF00200420C0B202BDF0B50C46CF
S11356705E4901EB800185B0CD6B564951F820603D
S11356806C6021465068039010788DF8080001AAD8
S11356900C2001900A980090304603F05BFA070052
S11356A011D101222146304603F0BDFC01224FF402
S11356B08041304603F0CAFC01224FF400413046D9
S11356C003F0C4FC07E000222146304603F0ABFCA3
S11356D0002085F84800384605B0F0BD38B53D4A8D
S11356E052F82040414A02EB80001029C06B01D3DC
S11356F0012032BD084490F84A200AB1072032BD87
S1135700012280F84A20204603F08DFC0546012240
S11357104FF48041204603F099FC01224FF40041EC
S1135720204603F093FC284632BD10B5294951F8B0
S113573020402E4901EB8000C06B90F8491009B15C
S1135740072010BD012180F849100122002180F8B2
S1135750EC102046052103F066FC01001AD1012259
S11357600621204603F05FFC010013D1012207212A
S1135770204603F058FC01000CD101224FF4804173
S1135780204603F063FC01224FF40041204603F05D
S11357905DFC002010BD38B50E4951F82040134976
S11357A001EB80000022C56B6968204603F03BFCD6
S11357B000224FF48041204603F048FC05F14804E0
S11357C0A07C18B105F1080003F0EFFD0020207063
S11357D031BD00000C6D0100146D010000E100E01A
S11357E0166D0100186D01001A6D0100E092FF1F93
S11357F080E100E038B5DFF820130C68002804BF0E
S1135800BDE8314003F0ACBEE56905F14401401E3A
S113581002F0D6F9D5E91101801C41F10001C5E976
S1135820110102F09DF805F144024FF4B6702118FD
S113583005F1440003F01AFF284600F033F813E0A2
S113584002F08EF8A068C0050ED56068216801607A
S11358504860B5F88C01401EA5F88C01A06820F4BE
S1135860807040F00300A060BDE8314002F086B8CB
S113587070B50400DFF8A002056804D10C20BDE86F
S1135880704001F067BEEE6902F06AF806F1440266
S11358904FF4B6702918204603F0E8FE304600F0B5
S11358A001F838E0F8B50446DFF86C0200684FF4FC
S11358B0C2710144B0F88C21DAB1D0F8845102F1FC
S11358C0010C01E029462D68BCF1010C11D0D4E98A
S11358D01167D5E911239F420BD301D8964208D30F
S11358E0D5E91167D4E911239F42EBD301D896423D
S11358F0E8D36268236813605A6022464FF4C27387
S1135900184402F03EF9A06840F48070A060BDE83D
S1135910F140FDF7DDBEBDE8704002F02FB838B5A8
S113592020B90C20BDE8324001F014BEDFF8E811C4
S11359300968CC6904F144012CC82CC102F010F8A8
S11359402046FFF7AFFF8FE780B5002818BF002976
S113595000D00AB90C2002BD03F0AAFE002002BD4B
S113596010B584B014466A46FFF7EEFF2146684638
S113597003F008FF04B010BD38B5040012D0DFF8FE
S1135980980101684FF4B67008442CC82CC40C3C30
S1135990D1F8A80128B1D1F8AC01D1F8A8118847F1
S11359A0A06034E031BD10B584B00446684600F010
S11359B00CF82146684603F0E7FE04B010BDDFF89A
S11359C058010068D0F89C01704738B504001BD01A
S11359D0DFF84401056801F0C3FF4FF4B6702844B2
S11359E00EC80EC40C3CD5F8A80128B1D5F8AC01FA
S11359F0D5F8A8118847A06022464FF4BC70291836
S1135A00204603F033FE00E031BD01F0B7FF20462D
S1135A10BDE8324003F0FCBE2DE970433E48046803
S1135A20D4E95B01401C61F1FF31C4E95B0101F081
S1135A3097FFD4F8A80130B1D4F8AC01D4F8A81178
S1135A408847C4F874014FF4B670204403F0E0FEB4
S1135A50B4F88C0188B3D4F88401B4F88C61056877
S1135A60D0E91189D4E95B23761E99450BD301D87B
S1135A70904508D3D4E95B23D0E911894B451CD365
S1135A8001D8424519D3B4F88C11491EA4F88C11DD
S1135A90416802680A6051608168490508D5016C53
S1135AA0C26B0A605160816B0989491E826B118146
S1135AB001F067FE2846002ED1D101F05FFFD4F833
S1135AC0500300281CBFBDE870430047BDE8708345
S1135AD011490968C1F89C0170470F4A1268C2F85D
S1135AE0A801C2F8AC1170470B490968C1F8A401B8
S1135AF0704780B5002918BF002807D00268074BFB
S1135B009A423CBF4268B2F57A7F01D3002002BDBD
S1135B1003F098FE012002BDB4B1FF1F005786F4C4
S1135B20002203F0A7BE000062B38B0708D0521E08
S1135B3011F8013B00F8013B00F024808B07F6D1FB
S1135B40830740F0208000BF103A07D330B4B1E897
S1135B503810103AA0E83810F9D230BC530724BFEB
S1135B60B1E80810A0E8081044BF51F8043B40F81D
S1135B70043BD20724BF31F8022B20F8022B44BF88
S1135B800B7803707047083A07D3B1E80810083A55
S1135B9040F8043B40F804CBF7D25307E4E7000095
S1135BA000B95EE1002101608160DFF89C1341606F
S1135BB00021C160042151E138B5DFF89003046885
S1135BC0D4F80C0218BB1420FDF74FFD050001D1D9
S1135BD0042032BD1821FDF730FD0021284601F0D4
S1135BE097FFDFF86403286101F0BAFED4F80C02D1
S1135BF028B101F0C3FE2846FDF760FC07E0C4F8B5
S1135C000C520FF26920C4F83C0201F0B7FE0020E8
S1135C1032BD70B50446DFF834030568D5F80C02CC
S1135C2008B9182070BD06463069DFF81C13884295
S1135C3001D01A2070BDE068884200D00BE1E06A10
S1135C40E969884203D0204600F07EF870BB00204A
S1135C50E0602068C8B101F083FE606821680160DB
S1135C6048603089401E30810DE004F11C0001F0D1
S1135C7071FF06464FF4826101F0F2FD01F070FEFF
S1135C80304601F07EFD01F079FEA08C0028ECD1B5
S1135C90ED6901F065FE206B18B10146284603F05A
S1135CA07BFC01F06BFEFDF705FD002070BDF0B537
S1135CB085B004460D00DFF89402076803D16D46F1
S1135CC02846FFF76DFFF4B16868DFF87C1288425C
S1135CD019D1D7F80C6226B9FFF76EFFD7F80C621A
S1135CE086B33069DFF86012884218BF1A2029D1C0
S1135CF001F036FE306800E00068B04207D0A042F0
S1135D00FAD101F03BFE4FF4826005B0F0BD286883
S1135D1029690843A060DFF83002E060E868606148
S1135D20A86820610020A0762063E062002104F1CD
S1135D301C0001F0EDFE2146304601F0F0FE01F0BA
S1135D401DFE002005B0F0BD70B50446DFF8FC016F
S1135D500068C569008B08B10D2070BD002C42D0CD
S1135D60E068DFF8E41188423DD1E06AA84202D13C
S1135D7040F2094070BDE869C68901F0F1FDA07EDA
S1135D8090B3A068C00510D5E06A006AC089864255
S1135D900BD2E06AC069C089864203D23146E06A08
S1135DA003F0F1FB206B401C2063686829680160E4
S1135DB0486004F11C00A863207A0007294604F116
S1135DC01C0002D503F001FC01E001F0A8FE40F242
S1135DD02320A860FDF77CFCE068DFF86C118842A2
S1135DE005D001F0CBFD36E08020A076E562A06806
S1135DF000F48470B0F5807F12D104F11C0003F02C
S1135E00F9FB296AC98988420AD2E969C9898842A1
S1135E1003D20146284603F0B6FB206B401C2063E6
S1135E2001F0ACFDA068800513D501F099FD20694F
S1135E30296AC98988420AD2E969C989884203D290
S1135E400146284603F09FFB206B401C206301F0B1
S1135E5095FD002070BD4FF4826070BD016100208B
S1135E6070474FF4826070470000000070B504462C
S1135E7036480568D5F80C62C6B1306932498842A3
S1135E8014D101F06DFD03E0E969C16200F00FF87F
S1135E903068B04206D0817E11B1C16AA142F3D00C
S1135EA00068F6E7BDE8704001F068BD70BDF8B564
S1135EB0040026480568E86908D0E168224A91424E
S1135EC001BFA17E8029E16A814200D034E001F063
S1135ED047FD266B00202063207A10F0030F03D0C7
S1135EE00020E062A07621E0A08CE8B104F11C005F
S1135EF001F030FE0746E76201F043FCA06880052C
S1135F000FD52069396AC98988420AD2F969C989D1
S1135F10884203D20146384603F035FB206B401C0F
S1135F202063FDF7C7FB01E0A076E0621EB13146B5
S1135F30E86903F031FB02E04FF48260F2BD01F046
S1135F401DFD0020F2BD00007874756DB4B1FF1F13
S1135F504A0900EB820041F228028900104401F052
S1135F607C0101EB401049E14A0900EB820041F257
S1135F7028028900104401F07C0101EB40104FE13C
S1135F804A0900EB820041F228028900104401F022
S1135F907C0101EB401000F184400068401E804108
S1135FA0C043C00F704738B50546DFF8B84268797A
S1135FB000902B79EA78A978204603F0ABFC287886
S1135FC0DFF8A412086020686978890420F440206E
S1135FD001F440210843206031BD10B582B004466D
S1135FE004200090012301220021DFF8780203F04D
S1135FF091FC204603F06CFD04F11000FFF7D3FF81
S113600004F10E01002003F03AFE00F04EF8DFF830
S11360105C120860002016BD38B5002515280C4612
S11360203FD8DFE800F03A3A0B0E11143E3A171A43
S11360303E3E3E1D20252A3E3E2F333700F037F8E2
S11360402DE000F03FF82AE000F046F827E000F0E9
S11360504DF824E000F069F821E000F07DF81EE03E
S113606000F05BF81BE0DFF8080203F0ACFF16E079
S1136070DFF8FC0103F0C3FE11E0DFF8F40103F0E4
S113608040FF0CE07A4803F0AFFF08E0784803F0E3
S113609082FF04E04FF47A7001E000F006F820601B
S11360A001E025600225284632BD80B500E080B5B8
S11360B06F4803F099FF6F490968090F491CB0FB49
S11360C0F1F002BD80B56A4803F08EFF69490968A2
S11360D0090E01F00F01F1E780B5654803F084FF74
S11360E064490968090D01F00F01E7E780B56048CC
S11360F003F07AFF5F490968090C01F00F01DDE73D
S113610059480068C0B210B1012803D003E05848D0
S113611003F075BE5AE0002070475748016857489D
S11361200068C9B201B9C00B70474E480068800CC2
S113613010F0030004D0022808D0032809D009E095
S11361404F480068B0F5004F05D003E04B480068A5
S113615070470CE0002070474A480068400100F195
S113616084401C30007808B14548006870474FF4FB
S11361707A70704710B5444882B00068C0B210B954
S11361804248006816BDFFF7BBFF04466A460DF19E
S11361900101344803F0AFFB9DF800009DF80110A5
S11361A0401C6043491CB0FBF1F016BD002908BF38
S11361B0FFF7D2BF86E7012803D9801E032801D93F
S11361C001E074E77EE7002070470000284803F0F0
S11361D098BE0FF2C40104E00FF2BC0113E00FF209
S11361E0C001085C1F49420901EB820141F2280207
S11361F08000114400F07C0000EB411000F1844069
S1136200012101607047085C1649420901EB8201D3
S113621041F228028000114400F07C0000EB4110A0
S113622000F18440002101607047095C0D48A7E635
S11362300FF27001D5E70FF26C01E4E70FF2680189
S1136240CFE70FF26401DEE70FF2600101E00FF225
S11362506001095C03487BE60FF25401095C0148C4
S113626082E6000000700440C0009042B0B1FF1FFD
S113627000400640448004409000904234B2FF1F26
S113628030B2FF1F806D0100C8009042DC92FF1FF6
S11362900FF21C01C9E70000898A8B8C8D00000075
S11362A0BB5B0000A4440000ACAD4C00666700007A
S11362B06A6B6C6D0A0B000080B5FFE70FF2AC410E
S11362C0012003F0D1FEBDE80240012003F022BF0B
S11362D000B9704710B584B000218DF80C100090FF
S11362E06421029101230421019103AADFF8101310
S11362F0012003F0E5FF040005D0224600210FF23F
S11363000C30FCF78BFFFFE7601E8041C00F04B028
S113631010BD10B582B004466946022000F0B9F8F9
S113632030B10098204300906946022000F0CAF87A
S113633016BD10B582B004466946022000F0A9F8E3
S113634030B10098A04300906946022000F0BAF8EA
S113635016BD70B50D4682B016461C46002118B114
S1136360022807D003D30AE06946122004E06946F4
S1136370112001E06946102000F08BF8014609B9AC
S1136380002076BD15B10098000E287016B1009853
S1136390000C307014B10098000A2070069808B1FF
S11363A000990170012076BD80B5120442EA0161B2
S11363B041EA032202991143009118B1022807D03F
S11363C003D308E06946122004E06946112001E085
S11363D0694610205AE0002002BD80B5694620209D
S11363E000F057F838B1009840F001000090694679
S11363F0202000F067F802BD80B56946202000F037
S113640048F850B17F490020087069460098400858
S113641040000090202000F055F802BD10B50400A3
S113642082B001D1002016BD6946202000F031F869
S113643068B1009800F0010000902178090101F092
S11364407001084300906946202000F03BF816BD17
S113645038B504460D466946222004E038B50446A2
S11364600D466946212000F014F838B114B10098A3
S1136470C00F20700DB100982870012032BD00B902
S1136480704780B5007800906946212000F01AF822
S113649002BD30B585B0044664200290009104200A
S11364A001908DF80C40012303AA5549012003F003
S11364B007FF050005D02A4621460FF25010FCF7CD
S11364C0ADFE17E030B585B004466420029000911B
S11364D0042001908DF80C40012303AA48490120AF
S11364E003F0E0FE050005D02A4621460FF26810AD
S11364F0FCF794FE681E8041C00F05B030BD10B596
S11365000A4601466423012004F0AEF9040004D0D5
S113651021460FF29010FCF781FE601E8041C00FEF
S113652010BDF8B505460F4600261DB1384600F0EB
S113653027F808B10020F2BD324C607801467A1881
S1136540642A0FDBC0F16406F6B23246C019A0F12A
S113655064076018011D2846FFF7E6FA0020FFB221
S11365603544607057B1BA1960782044011DD2B225
S11365702846FFF7D9FA6078381860700120F2BD18
S113658038B5204A5378157819464418AB422A4640
