S0120000426F6F744C6F616465722E7372656327
S11300000080002015050000C30400004F05000017
S11300105B050000790500007B050000000000007E
S11300200000000000000000000000007D0500004A
S11300307F0500000000000081050000830500002A
S113004075050000750500007505000075050000C4
S113005075050000750500007505000075050000B4
S113006075050000750500007505000075050000A4
S11300707505000075050000750500007505000094
S11303F0750500007505000075050000FFFFFFFF8F
S1130400FFFFFFFFFFFFFFFFFFFFFFFFFEFFFFFFF9
S113041010B5114C606800F07F40B0F17C4F18BFFC
S11304204FF4016008D140F60800406800F07F40B6
S1130430B0F17C4F02D0094800F012F840F60801F0
S113044020680968884234BF04484FF4016000F012
S113045007F8002010BD0000080800101008001064
S11304604368D0F800D0184600477047103A07D3C5
S113047030B4B1E83810103AA0E83810F9D230BCE2
S1130480530724BFB1E80810A0E8081044BF51F88E
S1130490043B40F8043BD20724BF31F8022B20F878
S11304A0022B44BF0B7803707047083A07D3B1E8B6
S11304B00810083A40F8043B40F804CBF7D253073D
S11304C0E4E7FEE780B50748800806D005488208BF
S11304D0920005490548FFF7C9FF0448044908602C
S11304E001BD00BF0000000000000000000000008B
S11304F008ED00E04CF22050044908804DF6281025
S113050008804FF4E9700249088070470E200540C6
S11305100020054072B6034880470348804762B60E
S113052002480047F5040000C50400006905000006
S11305300120C046002801D0C046C0460020C04665
S1130540C046FFF765FF00F000F800F001B8FEE7D1
S11305500746384600F002F8FBE7FEE720210903CE
S113056026311820ABBEF9E7C046C046C046C04697
S1130570FFF7DEFFFFF7FEBFFEE7FEE7FEE7FEE75D
S1070580FEE7FEE7A9
S1130800FFFFFFFFFFFFFFFFFFFFFFFFFFFFFFFCF7
S113081000800020A18601006F4B0000D3860100F8
S1130820D7860100DB860100DF860100000000009E
S11308300000000000000000000000003B43000036
S1130840E386010000000000B1430000CF860100F0
S1130850258B0100258B0100258B0100258B0100D0
S1130860258B0100258B0100258B0100258B0100C0
S1130870258B0100258B0100258B0100258B0100B0
S1130880258B0100258B0100258B0100258B0100A0
S1130890258B0100258B0100258B0100258B010090
S11308A0258B0100258B0100258B0100258B010080
S11308B0258B0100258B0100258B0100258B010070
S11308C0258B0100498501005385010067850100DE
S11308D0258B0100258B010071850100258B01000A
S11308E0258B01007B850100858501009985010028
S11308F0258B0100258B0100A3850100258B0100B8
S1130900258B0100258B0100258B0100258B01001F
S1130910258B0100258B0100258B0100258B01000F
S1130920258B0100258B0100258B0100258B0100FF
S1130930258B0100258B0100258B0100258B0100EF
S1130C00CB860100CB860100CB860100FFFFFFFFEE
S1130C1038B5050014D04FF4C0702C18606A50B178
S1130C2003F070F838B101220FF25C010FF26C008E
S1130C3003F04EF904E0D82003F017F8606208B915
S1130C40002032BD4FF4E2704FF4C27128442944AD
S1130C500022042300250D6005700572656A1544A1
S1130C600D6200254D6045704572801C656A15440F
S1130C701B354D62363208315B1EEBD1FF202070EC
S1130C8000206070012032BD666C6F775F636F6E09
S1130C9074726F6C5F696E697400000025733A4565
S1130CA052524F5228256429206672656520666C6D
S1130CB06F7720636F6E74726F6C20726573706FE0
S1130CC06E7365207461626C650A000038B54FF478
S1130CD0836003F0CAF90A2003F0C7F940F2062042
S1130CE003F0CDF94FF4037003F0C9F940F20D207D
S1130CF003F0C5F9082003F0B8F9002003F029FA3D
S1130D00012003F026FA4FF4EA74074D21462846E1
S1130D1003F0E4FA2146681803F0E0FA0020287092
S1130D20012085F8D40131BDE885FF1F2DE9F04F7E
S1130D30A3B001218DF80D10804600218DF80C1010
S1130D4015A8342103F0CAFA00208DF812008DF89A
S1130D501100B8F1000F98F8002001D0022A08DB36
S1130D60DFF8B01CDFF8B00C03F0B2F823B0BDE834
S1130D70F08F04208DF8260008F1F40A07208DF87E
S1130D80270001208DF825001020089002208DF8FE
S1130D90240000208DF830004FF4406002F063FF1F
S1130DA0CAF87000DFF86CBC30B95946DFF87C0D26
S1130DB003F08EF803F0BFFA9DF830209DF824105C
S1130DC0404602F021FB30B95946DFF8640D03F0C8
S1130DD07FF803F0B0FA404602F055FB30B95946AB
S1130DE0DFF8500D03F074F803F0A5FA4046FFF75E
S1130DF00FFF30B95946DFF8400D03F069F803F0EE
S1130E009AFA4FF4A2700021404403F067FB4FF4B8
S1130E10AA700021404403F061FB98F80000002808
S1130E2007BF002102200021032003F0CEFBADF810
S1130E301800BDF8180040B998F80020DFF8FC0C41
S1130E40594603F045F803F076FA98F80020DFF8E5
S1130E50F00C594603F03CF84FF4BA7008EB000765
S1130E6087E3641CA9F1010920460026012190F9B9
S1130E700020491E130036D03601A2F130030A2B9C
S1130E8038BF303A0AD3A2F14103062B38BF373AB0
S1130E9004D3A2F16103062B25D2573A9619401CBC
S1130EA00029E4D1641CA9F1010927D02078752810
S1130EB008D10DF10E01601C02F076FA10B1641D28
S1130EC0A9F10509F6B232460A2A2FDA98F8000089
S1130ED0010008BF022A18D102465946DFF8640C03
S1130EE002F0F6FF7FE02278DFF85C0CF3B259469B
S1130EF002F0EEFF01208DF80D0074E0DFF86C1DA8
S1130F00DFF8480C02F0E4FFDCE78DF8276059466F
S1130F10DFF83C0C02F0DCFF00208DF80D00207897
S1130F200D2809D1641CA9F1010971E05946DFF8C3
S1130F30AC0D02F0CDFF56E05946DFF8A40D02F0E7
S1130F40C7FF01208DF80D004DE001208DF826002B
S1130F50641C9DF80D00A9F1010928B15946DFF878
S1130F60840D02F0B5FF3EE020460026012190F9F1
S1130F700020491E13002FD03601A2F130030A2BA2
S1130F8038BF303A0AD3A2F14103062B38BF373AAF
S1130F9004D3A2F16103062B1ED2573A9619401CC2
S1130FA00029E4D1641CA9F101091ED02078752818
S1130FB008D10DF10E01601C02F0F6F910B1641DA8
S1130FC0A9F1050914F8010B0D2815D05946DFF8CD
S1130FD0180D02F07DFF06E02278DFF8100DF3B261
S1130FE0594602F075FF07251DE0DFF8801CDFF885
S1130FF05C0B02F06DFFE5E79AF81200A9F1010914
S113100018B398F80020DFF8E80C594602F060FFA6
S1131010B9F1010F07DB0D2D02BFDFF8D80C007802
S1131020002800F0B482059803F076FE98F80000DA
S1131030801CC0B203F01DFF060040F0278659460D
S1131040DFF8B40C02F044FF93E298F800000028A3
S113105007BF002108A808A9002001F069FD024685
S11310605946DFF8980C02F033FF4FF4A270404465
S1131070CAF800004FF4AA704044CAF80400F0B261
S1131080002898F800000ED1010004D14FF48360C9
S113109002F0EBFF11E0012803D10A2002F0E5FF82
S11310A00BE003220AE0010008BF4FF4836002D082
S11310B00128F6D10A2002F0E2FF0022F3B25946D9
S11310C0DFF83C0C02F004FF404601F0D3FD024679
S11310D05946DFF8300C02F0FBFE01208AF81200BA
S11310E09DF82500002800F0128198F800000021E6
S11310F004F0C7FD00225946DFF80C0C02F0E8FEAC
S113110098F800006FF00042012104F0C0FD98F847
S11311100000012104F0B5FD00200090002618E035
S1131120396889196FF0604048600120396889196D
S113113048700020396888553868009A80194368D7
S1131140417898F8000004F0B6FD0098401C009027
S113115008360098796888420ED2B9688842EBD381
S1131160C007DDD53968891940F2FF704860002056
S1131170396889194870DDE75946DFF8900B02F0A9
S1131180A7FE00260796DAF8740007993A68079BC9
S1131190D7F804C00844134441785A78002914BF8E
S11311A04AA14BA1002A14BF48A249A2664534BFF4
S11311B05B686FF060430291594640680190009269
S11311C032460FF6603002F083FE0798761C083032
S11311D0182E0790D7D35946DFF8340B02F078FE67
S11311E04FF4E67008EB0006594630780028386B57
S11311F0019014BF35A336A33869009000220FF67E
S1131200603002F065FE70780028786B019014BF9E
S11312102EA32FA378690090012259460FF640307F
S113122002F056FEB0780028B86B019014BF27A3D3
S113123027A3B8690090022259460FF6243002F021
S113124047FEF0780028F86B019014BF1FA320A379
S1131250F8690090032259460FF6043002F038FE74
S113126030790028386C019014BF18A318A3386A89
S11312700090042259460FF6E82002F029FE707906
S11312800028786C019014BF10A311A3786A009011
S1131290052259460FF6C82002F01AFEB07900283C
S11312A0B86C019014BF09A309A3B86A0090062280
S11312B059460FF6AC2002F00BFEF0790028F86CCA
S11312C0019014BF01A302A304E000BF6578740079
S11312D073746400F86A0090072259460FF6802060
S11312E002F0F6FDDAF874209DF8301098F800004A
S11312F004F0D1FD28B10F9A0FF6A020594602F050
S1131300E7FD98F80000002104F0DCFD2DE098F8DA
S11313100000012104F0B5FC002259460FF6C0205C
S113132002F0D6FD002698F800004FF4E063324640
S1131330002104F0C0FC43B2324659460FF6DC20CB
S113134002F0C6FD012000904FF4E0633246002114
S1131350404601F07DFD0346324659460FF6003003
S113136002F0B6FD761C0E2EDDDB98F8000020B9E5
S11313704FF4007002F079FE4AE69DF92700022836
S113138014D159460FF6103002F0A2FD40F20620A7
S113139002F06BFE4FF4037002F067FE40F20D2082
S11313A002F063FE082002F06AFE0EE040F206201E
S11313B002F065FE4FF4037002F061FE40F20D206E
S11313C002F05DFE082002F050FE142005F06EF8D5
S11313D04FF40170CEE7641CA9F1010915D02078FF
S11313E0752808D10DF10E01601C01F0DDFF10B16C
S11313F0641DA9F1050914F8010B0D280CD05946F8
S11314000FF6C42002F064FDEDE5DFF86018DFF8A4
S11314103C0702F05DFDEEE701208DF80D00A9F117
S1131420010998F8000000280CBF4FF400704FF435
S1131430017002F024FE98F80000010008BF4FF488
S1131440836002D0012804D10A2002F00EFE00229B
S113145000E0032259460FF6A02002F039FD404671
S113146001F0B4FB024659460FF6C82002F030FDE5
S113147000208AF812009DF830209DF82410404680
S113148001F0C2FF30B959460FF6DC2002F020FD0E
S113149002F051FF404601F0F6FF30B959460FF60D
S11314A0FC2002F015FD02F046FF4046FFF7B0FBBA
S11314B030B959460FF6183002F00AFD02F03BFF2E
S11314C000208DF8260007208DF8270001208DF8D4
S11314D025001020089002208DF8240000208DF8AB
S11314E03000642004F0E2FF92E58DF80C009DF8D2
S11314F01100401C8DF8110000944B469DF81120FA
S11315000FF60830594602F0E3FC9DF82600012846
S113151005D159460FF6303002F0DAFC63E5207845
S113152054280AD101208DF80C000025B9F1040FCC
S11315300DDA9DF80C0068B910E0522803D101209F
S11315408DF80C0001E07228EFD10125EEE7B9F126
S1131550090F52DA9DF80C0000284ED059460FF6B8
S1131560143002F0B5FC059803F0D6FB012004F01A
S11315709DFFBDF81800012103F09AF8002805909A
S1131580F4D000F111040088A0F111090D25002008
S1131590ADF80E002278432A3FF41DAF462A00F02E
S11315A04783472A00F05B824C2A3FF4CEAC4D2A95
S11315B000F01A814F2A3FF4CBAC522A97D0532A19
S11315C008D0542A93D06D2A50D0722A18BF742A96
S11315D08BD052E3B9F1030FFFF61AAD9AF812005B
S11315E000281CBF9DF8260001283FF43AAC594658
S11315F00FF6AC2002F06CFCF5E4009510AA9DF8FF
S11316000C30A9F10101601C01F04FFD40BB9AF8B8
S11316101200F8B19DF84400109B8DF834000DAA17
S113162012980E900E2198F8000004F0CBFB58B9E4
S1131630019513A800900DAA109B98F800000E21A4
S113164004F0DFFB30B98EE7DFF8C816DFF8C80610
S113165002F03EFC59460FF6882002F039FC82E77E
S113166059460FF6B42002F033FCBCE4B9F10A0F7A
S113167002DB9AF8120038B19AF812200FF6C02053
S1131680594602F025FCAEE43868641C28B9594672
S11316900FF6E02002F01CFCA5E4B86879688842E3
S11316A006D359460FF6F82002F012FC0020B86069
S11316B03868BA68082100EBC20005F0B3F8207856
S11316C0522806D0542810D0722808D0742819D073
S11316D012E03868B96800EBC100012141700120B3
S11316E03968BA6801F832000CE03868B96800EB70
S11316F0C1000121417005E059460FF6E82002F0CF
S1131700E7FB07253868B968641C00EBC100A9F140
S11317100209061D002CA9F101004DD0C0B2082811
S113172001DA002848D1002E46D0002030606946F6
S1131730204601F039FE002844D0BDF80000306096
S11317406946201D01F030FE00283BD03068BDF80A
S1131750001041EA004030600834BA68386800EB91
S1131760C200A9F1080941680191417800915946E4
S113177003780FF6982002F0ABFB4CB32078752861
S113178008D10DF10E01601C01F00EFE10B1641DB4
S1131790A9F1050914F8010B0D2820D059460FF6BC
S11317A0A82002F095FB3868BA68082100EBC20053
S11317B005F038F8072536E4DFF86015DFF8600532
S11317C002F086FB59460FF6B42002F081FB0AE4CE
S11317D0DFF89814DFF8740302F07AFBDAE7B868EC
S11317E0401CB860FFF79FBBB9F10A0F02DB9AF8FF
S11317F0120040B19AF812200FF6A820594602F0C0
S113180067FBFFF7F0BB14F8010F462818BF6628E2
S1131810A9F1010921D0DAF8740030B959460FF65C
S1131820B82002F055FBFFF7DEBBDAF87C00DAF8EB
S11318307810B0EBD10F07D359460FF6C82002F049
S113184047FB0020CAF87C00DAF87400DAF87C2040
S1131850082100EBC20004F0E5FF00268DF80060CB
S11318602078462823D0522808D0542816D0662839
S113187021D072280AD0742825D01EE0DAF874002A
S1131880DAF87C1000EBC100012141700122DAF882
S11318907400DAF87C1000F8312014E0DAF87400EF
S11318A0DAF87C1000EBC100012141700BE0012645
S11318B08DF8006007E0012605E059460FF6882000
S11318C002F006FB0725641C002EA9F101095AD079
S11318D0787B810800EB5171C908A0EBC1007873D3
S11318E09DF8000020B1797B4144012081F8CC01AE
S11318F000208DF812000DF112034FF4C07008EBB4
S113190000024946204601F082FC30B159460FF6E8
S1131910602002F0DDFAFFF766BB9DF812007A7BC7
S11319202418A9EB000908EB8200D0F8A411019156
S11319305946D0F88401009008EB020090F8CC31AD
S11319400FF6642002F0C4FA002C67D020787528C2
S113195008D10DF10E01601C01F026FD10B1641DCB
S1131960A9F1050920780D286CD0002E59465AD0CB
S11319700FF6842002F0ACFA787B08EB80001B2180
S1131980D0F8A4015AE0DAF87400DAF87C1000EB1D
S1131990C100001D0190A9F1010084B3C0B2082860
S11319A000DA60BB019850B30199002008606946D1
S11319B0204601F0F9FC30B30199BDF8000008603D
S11319C06946201D01F0F0FCE8B10198BDF8001053
S11319D0006841EA004001990860DAF87C20DAF8EE
S11319E0740000EBC200083441680191A9F10809B0
S11319F041780091594603780FF63820A2E7C74989
S1131A00C74802F065FA59460FF66C2002F060FAF6
S1131A10FFF7E9BA447701005477010093494B4832
S1131A2002F056FA9EE70FF6842002F051FADAF833
S1131A307400DAF87C20082100EBC20004F0F2FE06
S1131A40FFF7D1BA26B1787B401C7873FFF76ABAE6
S1131A50DAF87C00401CCAF87C00FFF763BAB9F1DD
S1131A60040F06DA59460FF6842002F031FAFFF724
S1131A70BABA60784D28A9F1010505D0662805D0C9
S1131A806D2807D1002002E0012000E002208DF83B
S1131A90100004E059460FF6882002F019FAA41C3D
S1131AA06E1E20460025022190F90020491E1300D5
S1131AB02FD0A2F130030A2B38BF303A0AD3A2F157
S1131AC04103062B38BF373A04D3A2F16103062B36
S1131AD01FD2573A401C002902EB0515E4D1A41C7F
S1131AE0A6F102091CD02078752808D10DF10E0149
S1131AF0601C01F059FC10B1641DA9F1050920789E
S1131B000D2827D059460FF6442002F0E1F9FFF7DB
S1131B106ABA59460FF6602002F0DAF9FFF763BAA1
S1131B2052490A4802F0D4F9E9E700BF707701008E
S1131B309C770100C8770100F0770100207801004C
S1131B405C780100B478010080780100FC39000061
S1131B50EC78010047208DF85400A9F101099DF8A3
S1131B601000F0B1022801D00CD329E0EDB2082D09
S1131B7024DA4FF4C0700DF155022946404401F0B7
S1131B8091FD19E0DAF87800EDB2B5EBD00F15D27B
S1131B90DAF874000DF1550100EBC50001F06BFD9E
S1131BA00AE07868EDB2854208D238680DF1550133
S1131BB000EBC50001F051FD441C03E0002401E0EA
S1131BC04FF0FF3464B25CB398F80000801CC0B2DC
S1131BD003F04FF9060006D159460FF6CC1002F077
S1131BE077F9FFF700BA224615A906F10D0004F0B3
S1131BF01DFE347398F80000811CC9B2304603F00E
S1131C0056F948B998F80000821C59460FF6C410DA
S1131C1002F05EF9FFF7E7B90D250024FFF7F8B9E4
S1131C209DF810200FF6E810EBB25946FFF7D9B92A
S1131C30641CA9F1010916D02078752808D10DF18A
S1131C400E01601C01F0B0FB10B1641DA9F105097F
S1131C5020780D283FF466A959460FF6E41002F0E7
S1131C6037F9FFF7C0B9014902E000BFE8390000C5
S1131C70DFF8500E02F02CF9EAE7CDF80090134695
S1131C8059460FF6E01002F023F96CE4002030739B
S1131C9006F10D04BDF80E0040B102460FF6042112
S1131CA0204602F023F905203073641D2570307B33
S1131CB0401C307398F80000811CC9B2304603F010
S1131CC0F6F800287FF455AC98F80000821C5946B9
S1131CD00FF6D81002F0FCF84BE400BF18790100AD
S1131CE0487901007C790100FC790100C479010084
S1131CF02C7A0100BBA4FF1F24290000547A0100A0
S1131D00887A0100D07A0100047B01004C7B010039
S1131D10907B01004830000060300000443800002F
S1131D205438000025733A494E464F2C20636173A2
S1131D3065204F2C204649464F207461626C655BD8
S1131D40253032645D3A2025303878203A202573D6
S1131D50203A2025303878203A202573200A0000C4
S1131D6025733A494E464F2C2063617365204F2CEE
S1131D7020466C6F77636F6E74726F6C207461624F
S1131D806C655B253031645D3A202573203A20254B
S1131D90303878203A2025730A00000025733A452C
S1131DA052524F522C2063617365204F2C200D0A30
S1131DB020464C455843414E5F4452565F436F6E34
S1131DC066696752784669666F206661696C656406
S1131DD02E20726573756C743A203078256C780007
S1131DE025733A494E464F2C2063617365204F2C6E
S1131DF020466C657843616E4465766963655F531C
S1131E00657452784D61736B54797065282029206C
S1131E1072657475726E2025640A000025733A4950
S1131E204E464F2C2063617365204F2C20466C6511
S1131E307843616E4465766963655F53657452786F
S1131E40496E646976696475616C4D61736B2025B4
S1131E50642072657475726E2025640A00000000A7
S1131E6025733A494E464F2C2063617365204F2CED
S1131E7020466C657843616E4465766963655F737B
S1131E8065744D61696C626F782025642072657495
S1131E9075726E2025640A0025733A494E464F2C0C
S1131EA02063617365204F2C2053657420656C6535
S1131EB06320666F2033332E33332062617564727E
S1131EC06174650A0000000025733A4552524F526E
S1131ED02C206361736520432C20636C6F73652031
S1131EE0636F6D6D616E642C200D206E6F742066BF
S1131EF06F756E640A00000025733A494E464F2CF4
S1131F00206361736520432C20466C657843616EC1
S1131F104465766963655F5365745465726D696E73
S1131F206174696F6E2820292072657475726E2041
S1131F3025640A0025733A494E464F2C2063617389
S1131F406520432C20466C657843616E4465766950
S1131F5063655F4465496E6974282029207265743D
S1131F6075726E2025640A0025733A4552524F5209
S1131F702C206361736520432C20616C6C6F63615A
S1131F8074696E67204649464F2049442066696C4F
S1131F90746572207461626C650A000025733A45A9
S1131FA052524F522C206361736520432C20616C84
S1131FB06C6F636174696E67204649464F204944DB
S1131FC0206D61736B207461626C650A000000000F
S1131FD025733A4552524F522C2063617365204356
S1131FE02C20616C6C6F636174696E6720666C6F22
S1131FF07720636F6E74726F6C206D6573736167A5
S11320006573206275666665720A00000A25733A74
S1132010494E464F2C205357432F43414E2052657F
S113202063656976652C20636F756E743D25642C39
S1132030206D73675F73697A653D25642C20646144
S113204074613D2573200A0025733A4552524F525C
S11320502C206361736520747254522C2043414ECA
S113206020696E206C697374656E6572206D6F648F
S1132070650A000025733A4552524F522C20636181
S1132080736520747254522C2043414E2074726143
S11320906E736D697420666F726D61740A0000005E
S11320A025733A4552524F522C2063617365205375
S11320B02C20547269656420746F206368616E67B4
S11320C065206261756472617465207768656E204D
S11320D043414E206973206F70656E0A0000000052
S11320E025733A4552524F522C2063617365207414
S11320F07254522C20466C657843616E446576694F
S113210063655F54784D65737361676520666169C3
S11321106C65640A0000000025733A4552524F5220
S11321202C206361736520747254522C206465639F
S11321306F6465206D6573736167650A0000000054
S113214025733A4552524F522C2063617365206DBA
S11321502C20696E636F7272656374206D736720DF
S113216073697A652C2063616E496E7374202564EB
S11321700A00000025733A4552524F522C206361E5
S11321807365206D2C20704649464F49644D617338
S11321906B5461626C65204E554C4C0A0000000083
S11321A025733A494E464F2C2063617365206D2C8C
S11321B0204F7665727772697465204649464F20D0
S11321C04D61736B207461626C652C204649464FE7
S11321D04D61736B5461626C65496E64783D300A7D
S11321E00000000025733A4552524F522C2063617F
S11321F07365206D2C20696E636F72726563742041
S11322006D736720747970650A00000025733A497C
S11322104E464F2C2063617365206D2C20536574EA
S1132220204649464F204D61736B5B25645D205207
S11322305452202564204944452025642076616C4D
S11322402025780A0000000025733A4552524F5267
S11322502C2063617365206D2C20736574206D617F
S1132260736B20636F6D6D616E642C200D206E6F37
S11322707420666F756E640A0000000025733A4589
S113228052524F522C2063617365206D2C20706173
S11322907273696E67204649464F204944204D4178
S11322A0534B0A0025733A4552524F522C20636116
S11322B07365204D2C20696E636F727265637420A0
S11322C06D73672073697A652C2063616E496E7340
S11322D0742025640A00000025733A4552524F5277
S11322E02C2063617365204D2C207365742046494E
S11322F0464F204944207461626C65204E554C4C15
S11323000A00000025733A494E464F2C206361733E
S113231065204D2C204F76657277726974696E67FB
S1132320204649464F2049442046696C7465722012
S11323307461626C65204649464F5461626C65491C
S11323406E64783D300A000025733A4552524F526C
S11323502C2063617365204D2C20696E636F72724B
S1132360656374206D736720747970650A000000DA
S113237025733A4552524F522C2063617365204DA8
S11323802066462C206465636F64696E6720666C02
S11323906F7720636F6E74726F6C206D65737361F9
S11323A06765200A0000000025733A494E464F2C09
S11323B02063617365204D20547452722C20536540
S11323C07420666C6F77636F6E74726F6C207461C7
S11323D0626C655B25645D204944453D25642C2081
S11323E06D736749643D257820726573706F6E73F1
S11323F0653D25730A00000025733A4552524F5239
S11324002C2063617365204D2066462C207365740F
S113241020666C6F77636F6E74726F6C20636F6D80
S11324206D616E642C200D206E6F7420666F756E66
S113243064200A0025733A494E464F2C2063617389
S113244065204D20547452722C20536574204649E3
S1132450464F207461626C655B25645D2052545262
S11324603D25642C204944453D25642C2076616C2F
S11324703D25780A0000000025733A4552524F5218
S11324802C2063617365204D20547452722C20708B
S113249061727365204649464F2049442074616245
S11324A06C652076616C75650A00000025733A45F9
S11324B052524F522C2063617365204D2054745244
S11324C0722C20736574204649464F204944206687
S11324D0696C746572207461626C652C200D206EC9
S11324E06F7420666F756E640A00000025733A20CD
S11324F04552524F522C206361736520472C20694A
S11325006E636F72726563742073697A65206F6697
S11325102067657420726571756573740A00000024
S113252025733A4552524F522C20636173652047FC
S11325302C206765745F6D65737361676520496EF0
S113254076616C696420747970650A0025733A4574
S113255052524F522C206361736520472C206765CB
S1132560745F6D6573736167652C200D206E6F74E5
S113257020666F756E640A0025733A4552524F52B5
S11325802C206361736520472C206765745F6D653B
S113259073736167652070617273696E6720696E19
S11325A06465780A0000000025733A4552524F5280
S11325B02C206361736520472C20676574206D654A
S11325C06D20666F722055534220726573706F6E72
S11325D073650A0025733A4552524F522C206361A9
S11325E0736520472C2073656E64696E6720676588
S11325F0745F6D65737361676520726573702064C1
S113260061746120746F204344435F25640A0000B1
S113261025733A4552524F522C206361736520470B
S11326202C206D6573736167655F747970653D25F2
S113263064202C696E6465783D25640A00000000FE
S113264025733A4552524F523A4620636F6D6D617D
S11326506E642C200D206E6F7420666F756E640A94
S11326600000000025733A4552524F522C206361FA
S113267073652064656661756C742C20436F6D6DA1
S1132680616E64206E6F74207265636F676E697A21
S113269065642025632025642073697A6520256498
S11326A00A000000752530347800000025733A458F
S11326B052524F522C2073656E6420646174612001
S11326C0746F204344435F25640A00002DE9F04FF2
S11326D00026050083B02A7801D0022A06DB0FF217
S11326E018210FF2E81001F0F3FBECE00FF20828D8
S11326F00FF21420414601F0EBFB95F8060108B9EE
S11327000220D8E02878002201A903F0E8FD00287F
S113271040F0D0804FF00009CB4602E0012003F0E6
S1132720C5FE4FF4AA7028440089C04621283EBF44
S1132730594601F1010B0229F0D3002800F0BA80B8
S1132740834687B92878801CC0B202F092FB070048
S113275005D141460FF2CC1001F0BAFB98E00020FD
S113276007F10D0938734FF4AA70284401F0D9FE1B
S113277004007DD04FF4C0702A184946204600F06A
S1132780B0FE82464FF4A2702146284401F0ADFE0B
S113279095F88001FF283FD0DFF8E808006802F0D0
S11327A0E7F9040005D141460FF29C1001F090FBBB
S11327B032E095F88001291805EB800091F8C421D6
S11327C0D0F8A41104F1110004F030F80121002024
S11327D001F0EAFEA080287800281ABF0321002017
S11327E0022101F0E1FE6080761C95F88001284406
S11327F0F6B290F8C40111302080324602202074D1
S1132800414604F11100009023880FF2681001F092
S11328105FFB204602F06EF8BAF1000F05D5414681
S11328200FF2981001F054FB1AE0387BDFF85818C7
S113283050443873C0B20988081A20280FDA28785F
S1132840811CC9B2384602F032FB4FF0000920B9AE
S113285041460FF2881001F03BFB002700E0D14411
S1132860DFF82808DFF824188068401C88600FE02F
S11328702878811CC9B2384602F019FB20B94146B8
S11328800FF2581001F024FB022003F00FFE002782
S1132890BBF1010B7FF455AF67B12878811CC9B235
S11328A0384602F004FB20B941460FF2301001F023
S11328B00FFB0027012003F0F9FDDFF8D4070078AF
S11328C000283FF41AAF03B0BDE8F08F25733A45F2
S11328D052524F522C43414E5F52582074687265D5
S11328E0616420696E636F727265637420706172D3
S11328F0616D2025750A0000464C455843414E5FE2
S113290052785F5461736B0025733A494E464F20E9
S11329104C6F6F7020696E7374616E6365202575EA
S1132920200A000025733A4552524F522C20676505
S113293074206D656D20666F722055534220726558
S113294073706F6E73650A0025733A4552524F5285
S11329503A20617070206D65737361676520616CE6
S11329606C6F636174696F6E206661696C65640A7B
S1132970000000000A25733A494E464F2C20535755
S1132980432F43414E205472616E736D697420630A
S11329906F756E743D25642C20666C6F7720636FB1
S11329A06E74726F6C2073697A653D25642C2062A5
S11329B0797465733A25730A0000000025733A455B
S11329C052524F5220706172732043414E20746FF3
S11329D020537472696E670A0000000025733A453B
S11329E052524F522073656E642064617461207486
S11329F06F20434443310A00F8B50E00054601D068
S1132A00022D02DB4FF0FF30F2BD4FF4EA71DFF824
S1132A10840611FB05F14418802104F1700003F0D1
S1132A2001FF04F1FC07B079B87100217079787165
S1132A303068401E386030793871F079787201203E
S1132A4038724FF48670204403F0B3FF064640B258
S1132A5058B173B22A460FF29C010FF26C0001F0D8
S1132A6037FA002038724FF0FF36BD6E45B34FF48D
S1132A70AA70271802E0384601F053FD384601F0E9
S1132A8077FD0028F7D04FF4A2702718384601F0DC
S1132A906FFD18B9384601F044FDF4E78024294657
S1132AA0384601F022FD40B90FF248010FF26000F0
S1132AB001F00EFA4FF0FF3602E01835641EEED135
S1132AC070B2F2BDFC39000025733A4552524F52A0
S1132AD02C20696E6974206D7574657820666F7238
S1132AE020696E7374616E6365202575202D202521
S1132AF0780A0000466C657843616E4465766963C4
S1132B00655F496E6974496E7374616E6365000034
S1132B1025733A4552524F522061646420656C65B6
S1132B206D656E7420746F2071756575650A00009B
S1132B3038B50C46002558B101460020FFF75CFF6C
S1132B40050005D50FF24C010FF2240001F0C0F985
S1132B505CB121460120FFF74FFF050005D50FF2B8
S1132B6034010FF2440001F0B3F9284632BD0000ED
S1132B7025733A4552524F5220496E697469616C0B
S1132B80697A696E6720696E7374616E636520305B
S1132B900A000000466C657843616E44657669639B
S1132BA0655F496E6974000025733A4552524F526D
S1132BB020496E697469616C697A696E6720696E0F
S1132BC07374616E636520310A00000038B5040037
S1132BD001D1032032BD94F80401F0B1012084F83E
S1132BE04001204600F0B0F8050006D02A460FF256
S1132BF050010FF2280001F06BF94FF48670204465
S1132C0003F089FE28B10FF238010FF24C0001F0F5
S1132C105FF9002084F80401284632BD25733A4543
S1132C2052524F5220466C657843616E4465766912
S1132C3063655F53746F70202D2025780A000000AF
S1132C40466C657843616E4465766963655F446587
S1132C50496E69740000000025733A4552524F5280
S1132C60205F6D757465785F64657374726F790A3B
S1132C700000000070B5040001D1032070BD4FF4C2
S1132C8082702518287840B90FF270010FF23C00C9
S1132C9001F01EF94FF0FF3070BD207804F1FC0202
S1132CA0211D03F01EF846B23246012A07DB0FF25B
S1132CB04C010FF25C0001F00BF9304670BD95F940
S1132CC001102046BDE870404DE0000025733A45F0
S1132CD052524F522C20496E7374616E6365206E9C
S1132CE06F7420696E697469616C697A65642063C4
S1132CF06F72726563746C790A000000466C6578C3
S1132D0043616E4465766963655F537461727400F0
S1132D100A25733A4552524F523A464C455843415C
S1132D204E20696E697469616C697A6174696F6E49
S1132D30206661696C65642E20726573756C743AE3
S1132D402030782578200A0010B5040001D1032032
S1132D5010BD94F8060128B1207803F0BCF80020D7
S1132D6084F8060110BDF8B504001FBF4FF482704B
S1132D702618307800280D4601D00A2D01DB0320E7
S1132D80F2BDDFF8CC09217850F82100001D400184
S1132D9000F184403430006800281ABF012100206B
S1132DA0002104F085F8074677603A460FF268017F
S1132DB00FF2800001F08CF87068DFF898198842EF
S1132DC00ED0DFF89419884213D1DFF8900905EB8F
S1132DD0850100EB8101207802F04AFF40B2F2BD88
S1132DE0DFF8780905EB850100EB810000F164014F
S1132DF0F1E7DFF86C09C01942F21071884209D278
S1132E00DFF8580905EB850100EB81004FF496715A
S1132E100144E0E70420F2BD466C657843616E44EA
S1132E2065766963655F536574426974726174653C
S1132E300000000025733A494E464F3A466C6578C7
S1132E4043616E20636C6F636B2025750A0000007C
S1132E502DE9F04F050083B0894616469B4607D0FE
S1132E6095F8060110B94FF0FF302CE5102E01D370
S1132E70032028E505EBC60000F1700738780C9CA8
S1132E80B04204BF7868584506D1B878884202BF7A
S1132E907878A04200205AD04FF4867097F801A0A9
S1132EA03E7005EB00082000C7F804B087F80290D4
S1132EB07C7040463ED003F0C9FD5B46324649462D
S1132EC0284600F0E9F883460FF288090FF2A000C3
S1132ED033465A46494600F0FBFFA24525D0B87850
S1132EE08DF8000032460820019049460FF2B400E4
S1132EF000F0EEFF7B6828786A46314602F096FFC0
S1132F0041B229B142B249460FF2C40000F0E0FFD9
S1132F1039782878002202F0C9FF4FFA80FB5A461C
S1132F2049460FF2EC0000F0D3FF404603F041FEA7
S1132F305846C8E403F08AFD002332464946284631
S1132F4000F0AAF80446404603F033FE2046FFF79B
S1132F50BABC0000466C657843616E44657669636B
S1132F60655F7365744D61696C626F780000000081
S1132F700A25733A494E464F2C20466C65784341E6
S1132F804E205365745278496E646976696475613C
S1132F906C4D61736B20726574202575204D422041
S1132FA025780A000A25733A494E464F2C20466C70
S1132FB0657843414E204D422072656365697665AC
S1132FC020636F6E666967204D422025780A0000F1
S1132FD00A25733A4552524F522C20466C65784369
S1132FE0414E205258204D4220636F6E66696775CA
S1132FF0726174696F6E206661696C65642E2072FB
S11330006573756C743A203078256C780A0000007A
S11330100A25733A494E464F2C20464C45584341A5
S11330204E5F4452565F52784D65737361676542D3
S113303075666665722E20726573756C743A2030FD
S113304078256C78200A0000466C657843616E44EC
S113305065766963655F54784D6573736167650070
S113306025733A4552524F522C20464C4558434101
S11330704E5F4452565F436F6E66696754784D6283
S11330800A000000288BFF1F108B0100A493FF1F70
S1133090BBA4FF1FE885FF1F80B508B9032002BD4C
S11330A0007802F008FE40B202BD2DE9FC478946D3
S11330B05FEA000818BFB9F1000F16461C464FF02E
S11330C0030A00D016B90320BDE8F6871421304660
S11330D003F0A8FB3471012C08BF4FF0080ACAF1B1
S11330E00000304400F10B020A9800212CE0336800
S11330F04FEA031CC6F800C0C646002301249EF90B
S11331000050641E002D7BD0A5F130070A2F38BF74
S1133110303D0AD3A5F14107062F38BF373D04D30C
S1133120A5F16107062F6BD2573D002C05EB031365
S11331300EF1010EE3D103F00F0343EA0C033360F5
S113314008F10108491C521C98F900300D2B5BD082
S1133150B9F1020F58D35145C9D38A4525D1C44684
S113316000234FF0010E9CF90040002CAEF1010E3B
S113317046D0A4F130070A2F38BF303C0AD3A4F15B
S11331804107062F38BF373C04D3A4F16105062D4F
S113319036D2573CBEF1000F04EB03130CF1010CC3
S11331A0E1D103F00F03B360CAE7030024D1C4469E
S11331B000234FF0020E9CF90040AEF1010EFCB169
S11331C0A4F130070A2F38BF303C0AD3A4F14107D9
S11331D0062F38BF373C04D3A4F16105062D0FD266
S11331E0573CBEF1000F04EB03130CF1010CE2D1C8
S11331F0137008F1020801E008F101088945A1D221
S11332004FF0FF30BDE8F6870020BDE8F6872DE9D2
S1133210F84F9146040099F801701CBF0029B9F1D8
S1133220000F1D464FF0030802D10320BDE8F28FC2
S113323009EB87061B21706A03F0F4FAB9440020F5
S113324089F84400706099F84C0058B3716A5420AE
S113325008704FF0080899F84400401C89F84400AD
S113326004F110010020012291F90030521EABB18B
S11332700001A3F130070A2F38BF303B0AD3A3F172
S11332804107062F38BF373B04D3A3F16107062F4C
S113329004D2573B1818491C002AE5D1400000F11C
S11332A0090726E0716A74200870A11D99F844008A
S11332B0401C89F844000122002091F90030521E7C
S11332C0ABB10001A3F130070A2F38BF303B0AD35A
S11332D0A3F14107062F38BF373B04D3A3F161079D
S11332E0062F04D2573B1818491C002AE5D1400088
S11332F0071DFFB2002010E0AEF1570E521CBCF1C6
S1133300000F0EEB031315D103F00F02114371608C
S1133310641C2978491C2970401C94F900100D295B
S113332028D0404526D271680901716022460023E5
S11333304FF0010C92F900E0BEF1000FACF1010C6A
S113334014D0AEF1300BBBF10A0F38BFAEF1300E22
S1133350D4D3AEF1410BBBF1060F38BFAEF1370E3B
S1133360CCD3AEF1610ABAF1060FC5D34FF0FF30EA
S1133370BDE8F28F706A3A462146401C03F056FAC3
S113338099F84400381889F84400C0B2726A0D21D3
S1133390115499F84400401C89F8440028783818DE
S11333A028700020BDE8F28F70B5002818BF0029EE
S11333B006D10FF2BC410FF2CC4000F089FD1FE0B2
S11333C000220A8004220B881B010B80521E047801
S11333D0A4F130060A2E07D2303C401CE318002A20
S11333E00B80F0D1012070BDA4F14106062E38BF38
S11333F0373CF2D3A4F16105062D38BF573CECD31A
S1133400002070BD0000000070B500280D4616466F
S113341038D04FF4B4714418206800281CBF616888
S113342000290BD000F06EFC020007D00FF27041AF
S11334300FF2844000F04CFD002070BD0020032EEC
S1133440A06019D8DFE806F002121502681C80019A
S1133450606000F00AFC206088B90FF244410FF26A
S1133460804000F035FD0020606070BD681CC00124
S1133470EEE7681C4002EBE76060206070BD00204E
S1133480A060012070BD00B9704710B54FF4BA7147
S11334904418206800281CBF616800290BD000F084
S11334A031FC020007D00FF268410FF27C4000F0BB
S11334B00FFD002010BD0020A0601020606080205F
S11334C000F0D3FB206040B90FF244410FF27C407E
S11334D000F0FEFC0020606010BD0020A060012010
S11334E010BD2DE9F04104000F4618BF002F82B033
S11334F0154609D10FF284410FF2984000F0E8FC20
S11335004FF0FF30BDE8F681A168480DC90200F014
S1133510010004D5722100B15221012603E0742177
S113352000B1542100263970E26840B10FF27C41A9
S1133530781C00F0DBFC07F109020A2106E00FF217
S11335407441781C00F0D2FC3A1D0521A068000CDF
S113355000F00F0303F1300002F8010BC6B9012B90
S113356016DB5818191804F11006307800090A28D7
S1133570ACBF373030301070307800F00F000A28BC
S1133580ACBF373030305070921C761C5B1EECD1CF
S1133590D61C00220423A068D04000F00F000A28A3
S11335A0ACBF37303030121D5B1E06F80109F2D172
S11335B0207C102801F1050847D1686800270028FD
S11335C045D0E16881421CD105EB87003946426849
S11335D00FF2E83000F07CFC2F70002000900023F4
S11335E0FF227F21012003F066FD142002F05EFF1C
S11335F000200090002300227F21012003F05BFDC6
S113360025E0A868012710B38142DDD0E8680227CD
S1133610E8B18142D8D028690327C0B18142D3D010
S11336206869042798B18142CED0A869052770B192
S11336308142C9D0E869062748B18142C4D0286ACA
S1133640072720B1814202D1BEE7FF2028700D2058
S113365070715FFA88F0BDE8F68110B5027843789E
S113366023B1002A14BF5222542203E0002A0CBFC3
S1133670742272220CE010B50278437823B1002A38
S113368014BF5222542203E0002A0CBF7422722277
S11336900A704C1C42680FF21431204600F026FCDC
S11336A0092010BDF8B5451800EB810495F84C00CD
S11336B0164658B1462006F8010B304662680FF2F0
S11336C0EC2100F013FC083609270AE0662006F80E
S11336D0010B304662680FF2DC2100F007FCF61C97
S11336E0042795F84400616A421E304603F09EF8B0
S11336F095F84400C019401E40B2F2BD70B50446AE
S11337004F4800680D4601F033FA060005D1BDE8C4
S113371070400FF2FC2000F0DBBB2A46214606F184
S1133720110003F083F80121002000F03DFFB08078
S11337300321002000F038FF708005F11100308073
S1133740032030743046BDE8704001F0D3B8000067
S1133750AC8A0100006CDC0200879303A0A9FF1F60
S11337604FBE87FBF0B50FF2E0219BB0D1E90023F7
S113377068460821C0E90023FFF7C0FF322002F0A9
S113378095FE0FF2CC217CC915A811217CC015A887
S1133790FFF7B4FF322002F089FE0FF2C8217CC982
S11337A010A811217CC010A8FFF7A8FF322002F056
S11337B07DFE0FF2C421B1E8FC5008A82021A0E846
S11337C0FC5008A8FFF79AFF322002F06FFE0FF2B8
S11337D0C8211CC905A809211CC005A8FFF78EFF34
S11337E0322002F063FE0FF2BC211CC902A81CC0E7
S11337F01348006801F0BCF9040004D10FF2102052
S113380000F066FB16E0092202A904F1110003F09E
S11338100DF80121002000F0C7FEA0800321002044
S113382000F0C2FE60801A2020800320207420460D
S113383001F060F8322002F039FE1BB0F0BD000048
S1133840288BFF1F706172736541736369546F55F0
S1133850496E740025733A4552524F52207061727A
S1133860736541736369546F496E740A0000000004
S1133870706172736541736369546F53686F7274D6
S11338800000000025733A4552524F522070617275
S1133890736541736369546F53686F72740A0000EF
S11338A0416C6C6F636174654649464F46696C743C
S11338B065725461626C650025733A4552524F52E9
S11338C0282564292066726565204649464F20668E
S11338D0696C746572207461626C650A0000000092
S11338E025733A4552524F5220616C6C6F63617478
S11338F065204649464F2049442066696C746572C8
S1133900207461626C6520656C656D0A00000000BE
S1133910416C6C6F636174654649464F4D61736BCE
S11339205461626C6500000025733A4552524F524F
S1133930282564292066726565204649464F206D16
S113394061736B207461626C650A000025733A45EB
S113395052524F522C20616C6C6F63617465204627
S113396049464F2049442066696C7465722074612D
S1133970626C6520656C656D0A00000050617273AD
S11339806543616E4D657373546F537472696E67EA
S11339900000000025733A4552524F522C20777292
S11339A06F6E6720706172616D730A00253038781C
S11339B00000000025303378000000000A666C6FB8
S11339C07720636F6E74726F6C20666F756E6420FF
S11339D0617420696E6465782025642C206D73679A
S11339E069642025640A0000436865636B436F6D56
S11339F06D616E64496453757070000025733A45B7
S1133A0052524F522C20706172616D0A0000000006
S1133A10434443335F7265737620555342205461A7
S1133A20736B3A204552524F523A206D657373615D
S1133A30676520616C6C6F636174696F6E20666189
S1133A40696C65640A0000004375303030310D0044
S1133A506D74303030303037464675303030320D8A
S1133A60000000004D743030303030374530753050
S1133A703030330D000000004D663765303765384F
S1133A80383031303230333034303530363037300E
S1133A903875303030340D00533275303030350DD8
S1133AA0000000004F3175303030360D000000004A
S1133AB02DE9F04704468846154699460027A8682C
S1133AC0DFF80414884203D0382003F0E1FE57E005
S1133AD004F10C00102838BF10200F300409240111
S1133AE004F0DCF86E69D5F814A001E0B246B668BB
S1133AF0B6B3AE6104F0E0F804F0D0F8A8698642E9
S1133B0002D06E69B2465EB33068A042EED3011BA8
S1133B10102906D3301901604560B16881603460B2
S1133B2001E00446B06869698E420CBF6861CAF856
S1133B300800D8F80C0030817781756030688019EE
S1133B40401EE96A814238BFE862B9F1000F05D02E
S1133B50A4F10C0106F10C0002F064FE06F10C075E
S1133B606869A8616869E86168692862E8686862E8
S1133B70E868A86204F0A0F817B9042003F088FEEE
S1133B803846BDE8F0872DE9F84307468846914654
S1133B901D460026A868DFF83013884203D0382079
S1133BA003F076FE5CE007F10C00102838BF10200B
S1133BB00F3007093F0104F071F86C6900E0A46854
S1133BC0002C3DD0AC6104F077F804F067F8A869E4
S1133BD0844201D06C699CB32068A8F10C0104F103
S1133BE01002914221BF211808EB07020C3A9142BE
S1133BF0E5D3A8F10C010A1BC01B801A226010280F
S1133C0006D3CA1910605560A0689060A26001E0F4
S1133C10C719A2680F608A60D9F80C0008814E8128
S1133C204D6020680019401EE96A814238BFE8628D
S1133C30089820B1A7F10C01404602F0F3FD464676
S1133C406869A8616869E86168692862E868686207
S1133C50E868A86204F030F816B9042003F018FEEE
S1133C603046BDE8F283002300E00123DFF85C1254
S1133C700968D1F81C23DFF854120968C96917E7E9
S1133C80F8B504460D461646DFF840020768A81941
S1133C9000090001206105F10F0000090001E06046
S1133CA0E0622169091A0160002181604460606159
S1133CB0A061E061206203F0F1FFD7F80C0328B99A
S1133CC000214FF44370384404F0C0F821464FF407
S1133CD04370384404F0C1F803F0EEFFDFF8E80164
S1133CE0A060B5F1005F0BD2A819B0F1005F07D353
S1133CF0002000902346FA694FF00051FFF743FF7C
S1133D002046F2BD70B5DFF8C411096800B9BDE002
S1133D10A0F10C046568A868DFF8AC21904204D0D7
S1133D20382003F0B5FD382070BD2089C969C96801
S1133D3089B288421CBF4FF6FF71884200D0AAE0C6
S1133D4003F0ACFF08E00646EE6103F0B5FF03F0B4
S1133D50A5FFE869864200D06E69686910B1686998
S1133D60844212D26E6920682044B0420AD120688D
S1133D70316808182060B068A0600020002100228B
S1133D8007C600E0A6606C6126E0B068844201D3F7
S1133D900028D8D120682044B16888420BD120681B
S1133DA0096808182060B0688068A0600C21B068B9
S1133DB002F038FD00E0A16030683044A0420AD12E
S1133DC03068216808183060A068B06000200021C5
S1133DD0002207C400E0B4606869A8616869E8610A
S1133DE068692862E8686862E868A86203F064FFAA
S1133DF0002070BD00235DE080B5DFF8D0000268CC
S1133E00D2F8D801C2F81C0300F13001D2F8DC2149
S1133E10521AFFF735FF002002BDF8B50446DFF85B
S1133E20AC00056819B9D5F80C63F76804E0A1F192
S1133E300C0046680168471803F030FF706901E020
S1133E4039680F4431698F4210D23989E26892B2DD
S1133E509142F5D100E0806808B1B842FBD3B84282
S1133E60EED003F029FF07F10C00F2BD3668F768C5
S1133E704FF4437028448642E0D103F01DFF002034
S1133E80F2BD10B120F8021C01207047012003F09C
S1133E90FFFC012070BD032003F0FAFC032070BD79
S1133EA0C96820F8041C7047D16820F8041C00205D
S1133EB07047012305490968D1F81C23034909689F
S1133EC05031FFF7F5BD000070656D6CD8B3FF1F6E
S1133ED00EB400B582B003A9009103464FF0FF323F
S1133EE00B490C48406804F042F80EE00DB400B5EC
S1133EF082B004A800900B464FF0FF32064903A895
S1133F0004F035F80021039A117006BC5DF810FB2B
S1133F100D89010014B4FF1F4189000038B5040065
S1133F200D4608D003E0204600F010F80C34206859
S1133F3010F1010FF7D145B103E0284600F057F81E
S1133F400C35286810F1010FF7D131BD2DE9F0418E
S1133F5004462068C0F3072500F0FF06634850F8C4
S1133F602570634850F82580284602F0B4FF58F8BD
S1133F7026006049084040F4807048F8260000227A
S1133F803146384604F0E1FC08EB86004001217913
S1133F9000F1844242F8041F00F184426179116007
S1133FA000F18440A17940F8101FD8F8C000E179ED
S1133FB0B1400843C8F8C0004F4958F826000840EB
S1133FC0217A090401F47021084348F82600207A74
S1133FD058B14A484057010007D0012100F01F02A0
S1133FE09140474A400942F82010BDE8F081F8B5F5
S1133FF004462168C1F3072001F0FF053B4951F84D
S113400020603B4951F8207002F065FF57F8250005
S11340103849084040F4807047F8250001222946B9
S1134020304604F092FC62682946304604F098FC5D
S113403007EB85004001217A00F1844242F8081F11
S113404000F18442617A42F8181F00F18440A17A99
S113405040F8141FF1BD0A4600F0FF01234BC0F3E2
S1134060072053F8200004F07BBC2049C0F307224A
S113407051F82210012202FA00F0486070471B49EF
S1134080C0F3072251F82210012202FA00F08860DE
S113409070471649C0F3072251F822100969C1403C
S11340A001F0010070471249C0F3072251F82210B1
S11340B000F0FF0001EB8000400100F1844060301B
S11340C00068401E8041C043C00F70470849C0F3D8
S11340D0072251F8221000F0FF0001EB800040019C
S11340E000F18440012140F8601F7047AC88010052
S11340F0C0880100FFF8FFFEFFFFF0FED488010036
S113410000E100E00901002806D54B4A00F00F0049
S1134110104400F8041C7047484A1154704770B5A5
S11341200D46202D0446164608D3FF220FF2301107
S11341300FF2201004F01CFCC046C04654F82500C1
S11341403F490840310201F4E061084344F8250086
S113415070BD10B510B1012824D010BD394C022215
S113416013212046FFF7DBFF022212212046FFF72E
S1134170D6FF03211D20FFF7C5FF03211E20FFF7F3
S1134180C1FF03211F20FFF7BDFF03212020FFF7FC
S1134190B9FF03212120FFF7B5FFBDE8104003213B
S11341A02220AFE7284C022210212046FFF7B7FF58
S11341B0022211212046FFF7B2FF2448302101706A
S11341C041708170C1700171417110BD10B5022838
S11341D015D11C4C022214212046FFF7A0FF022215
S11341E015212046FFF79BFF022216212046FFF7E8
S11341F096FF2046BDE81040022217218FE710BD2C
S113420010B5032802D0042809D010BD104C032295
S113421004212046FFF783FF0322052107E00A4C0F
S113422003220E212046FFF77AFF03220F212046A6
S1134230BDE8104073E7000018ED00E000E400E082
S1134240FFF8FFFE00A0044000B0044025E400E0B5
S113425000D0044070696E203C20333255000000C9
S1134260433A5C55736572735C616269642E65736D
S11342706D61696C5C446F63756D656E74735C6DC0
S11342806963726F6E65745C736F757263655C4E9F
S113429065743836395F4D54355C4D43555F544130
S11342A0534B535C6961722F2E2E2F2E2E2F4D519E
S11342B0585F4F532F4253502F706C6174666F7266
S11342C06D2F68616C2F696E635C66736C5F706FD1
S11342D072745F68616C2E6800000000002204F0B4
S11342E065BB0000000000000000000000000000AA
S11342F072B6EFF3088383F309888908491C714A6D
S113430001E040F8042B491EFBD162B601DF70477F
S113431001DFFEE76C48006872B6018B31B9416A6F
S1134320C269D369994201D062B603DF62B67047AD
S113433003DF7047FEE702DF704772B61EF0040F1A
S11343400CBFEFF30881EFF30981896911F8021CAE
S1134350032905D100B500F01CF85DF804EB16E064
S1134360012902D15848006830E002290FD156488B
S11343700068C1698A6842F001028A6000B54A682F
S11343800B6813605A6000F004F85DF804EB62B641
S1134390704707B54D48416811F0805F07D1EFF3CE
S11343A01182A2F1100280F822204949416007BD20
S11343B072B645480068EFF3098C46498A78EFF3F2
S11343C011832CE9FC4FC369C3F814C072B6416A67
S11343D00A688A4203D189680900F9D1FEE741627B
S11343E0C261938C4383D2F814C0BCE8FC4F83F3BE
S11343F011888CF3098835483749416062B67047A3
S113440072B600B5304B1B68198B01F10101198399
S1134410002001B4EFF31182EFF30581586B07B468
S1134420EFF30880586308461A6B02B92FE09042F4
S11344302DD8DA6A811A2ADB9A6B4FEAD1014FEA46
S11344408101515801B922E00A6822B1824203D0A5
S1134450C9680942F8D11AE088684A6808B462B6A3
S1134460904772B608BC07BC586301BC198B491E3F
S11344701983DA69906A10F4805F0AD129B9596AFC
S11344800968914218BFFFF784FF62B600BD9A6ABB
S1134490E4E740F40030906262B600BD0000000022
S11344A070474FF08002D0E84F1F00290CBFC0E8CE
S11344B0432F01E0002BF6D108467047EFF3038049
S11344C0704700006B617473D8B3FF1F00ED00E008
S11344D00000001020ED00E0000000080060002251
S11344E0406002814181C260704730B41F4AEFF3DB
S11344F011831360302383F31188448903892500D1
S113450003D0A34201D3106826E0446824680C60F9
S11345104568296045684D606160591C01811068D7
S11345201FE030B41149EFF311820A60302282F3A4
S1134530118802890B68110002D183F311880DE000
S113454001684C680D6825606C60521E028183F31B
S11345501188084630BC704780F3118830BC0020B5
S1134560704780F3118830BC012070479089FF1F89
S11345700189481E8041C00F704738B50446206841
S1134580017841F080010170256805E0206A4FF050
S1134590FF32904218BF804728780006F6D520687D
S11345A0007800F0310032BDDFF844231268FF28A0
S11345B001DD00207047030008BFD2F8B00101F00C
S11345C0FF0141EA002080B2704780B500220092CA
S11345D00023012200F001F802BD2DE9F84304464E
S11345E0884616469946DFF808030568D5F81C7214
S11345F027B900F00EFBD5F81C723FB303F04EFB55
S113460020001CD1B8694FF480710844082401E0EB
S11346102030641C7969A1420CD3818AA2B29142F0
S1134620F6D0A0B230B1B869A4B200EB4410818ACC
S1134630A1420ED103F040FB40F2117006E078690C
S11346408442F0D303F038FB40F21B7003F020F9EE
S11346508AE2848200210160416001610181C68295
S1134660A0F80A80C0F818900899C161012E12D1EF
S1134670E969C160D1F88C203AB9C1F88C00C1F85D
S113468090000020C1F8940007E0D1F89020106158
S1134690C1F8900001E00021C16003F00DFBD5F8E2
S11346A0B00104F0FF0141EA002080B2BDE8F283CA
S11346B010B584B0044608000DD001A9401E04F0D2
S11346C08FF9DDE90101801C41F10001CDE901010F
S11346D06B46022201E06B46002201A9204600F04D
S11346E002F804B010BD2DE9F84F044688469346FD
S11346F01F46002038607E480168088B20B10D20D9
S113470003F0C6F80D2007E0D1F81C02009028B988
S1134710182003F0BDF818203860E8E10025D1F82E
S11347201C9020002CD1D9F88C00002841D003F033
S1134730B5FAD9F89400C0B90720C9F80800C9F837
S11347403850C9F89850BBF1000F02D1FFF7F3FDC0
S113475008E0BBF1020F404602D101F0E5FE01E0A2
S113476001F039FFD9F89850A0E0D9F88C6000E046
S11347703669002E00F0B68030890028F8D099E020
S113478004F0FF0A200AD1F8B011884202D1BAF12C
S1134790000F07D14FF4E26003F07AF84FF4E260BF
S11347A03860A1E00098806900EB4A16B08A504551
S11347B007D040F2137003F06BF840F213703860C6
S11347C092E0F068002818BF484507D040F2127004
S11347D003F05EF840F21270386085E003F05EFA90
S11347E03089002866D1F06800287BD00520C9F8FC
S11347F00800C9F838A0C9F89850BBF1000F02D1DD
S1134800FFF799FD08E0BBF1020F404602D101F029
S11348108BFE01E001F0DFFED9F89850002D1FBF98
S11348206888A0423089002840D000988069A9781F
S113483000EB4114608918B120896189884230D223
S1134840A5F11401088946F66752904218BF40F258
S1134850167028D10122204600F04CF9E06828B1F6
S1134860D0F89400401CE168C1F894003089401EDF
S1134870308131680868306000280FBF7060002004
S113488032685060F06828B1D0F89400401EF26895
S1134890C2F8940001F114050020C872C1F8109008
S11348A004E040F2177002F0F3FF00250020C9F87D
S11348B0980017E0401E3081316808683060002895
S11348C00EBF706032685560F06828B1D0F894006B
S11348D0401EF268C2F8940001F114050020C87269
S11348E0C1F8109003F0E8F92846BDE8F28F000003
S11348F0D8B3FF1F4288002100E000002DE9F84FE3
S11349000446894692460648D0F800B0DBF81C827B
S1134910B8F1000F06D1182002F0BAFFE7E000BF9B
S1134920D8B3FF1F5CB1A4F11405288946F667517A
S1134930884204BFA87A002801D1E87A20B140F265
S1134940167002F0A5FFD2E05FEA1A2006D1DBF868
S1134950B001618860F30F21618003E0DBF8B011DE
S1134960884202D11AF0FF0707D1204600F0D4F99B
S11349704FF4E26002F08CFFB9E0D8F8180000EBC5
S11349804716B08AB84200D13EB9204600F0C4F9B7
S113499040F2137002F07CFFA9E003F07FF9708904
S11349A020B130897189884280F09780F08A01288B
S11349B040F08480F168087A072804D0052804BFF1
S11349C0886BB84224D105F11400C1F8980029611C
S11349D08868C0050ED548680A6802605060BBF854
S11349E08C01401EABF88C01886820F4807040F084
S11349F003008860084603F062F8B06910B1F069FA
S1134A00B1698847B9F1000F4ED1FFF783FC5FE02D
S1134A100022A0791F2318421CBFD1F89800002857
S1134A202ED00746A079C0060AD4B879C00627D488
S1134A30B87900F00F00A37903F00F0398421FD256
S1134A40C1F8984044F8041CA7F114052A61012216
S1134A507888824514D0D8F81800B97800EB41164C
S1134A60708968B130897189884209D303F024F9C7
S1134A70384600F051F940F2177002F009FF36E0B1
S1134A802946304600F036F8F06828B1D0F8940092
S1134A90401CF168C1F89400B06910B1F069B169C3
S1134AA08847B9F1000F13D0BBF8180080B90D2066
S1134AB0DBF81C108860FFF73EFC09E00022294661
S1134AC0304600F017F8B06910B1F069B169884751
S1134AD003F0F2F80120BDE8F28F03F0EDF840F2A4
S1134AE0177002F0D5FE05F1140000F015F900204E
S1134AF0BDE8F28F30B4036823B900224A600A602B
S1134B00016029E08B7EDB0612D48AB98A7E0F23EA
S1134B101A421BD002F00F0200230468A57E05F0A0
S1134B200F05954203D323462468002CF6D13BB9E4
S1134B3002680A6000224A600268516001600CE069
S1134B4024B14B600C601960616006E042684A6001
S1134B5000220A604268116041600289521C02818D
S1134B600120C87230BC70470020BDE8F283FEE724
S1134B7070B50446DFF89C020568D5F81C0208B934
S1134B80182028E0A08A46F66751884206BFA0692B
S1134B90052840F203701ED12089A0B9608A90B123
S1134BA06089E18A884201D308000CD1618AE08AD5
S1134BB06289801A80B288423CBFE08A811A89B235
S1134BC0204603F0D3FF03F069F8E6683EB903F02A
S1134BD073F840F2017002F05BFE002070BD306893
S1134BE0E0602089401E208103F066F80020B07246
S1134BF0F072288B002814BF0020E869306106F1A8
S1134C001400002141808180218A0180602181710A
S1134C1070BDF8B57F4804684FF4F070204404F088
S1134C20B3F8002877D1D4F81C0228B14FF4F070FF
S1134C30204404F076F86DE02020FFF73AF90500EF
S1134C4006D14FF4F070204404F06BF80420F2BD58
S1134C500921FFF716F9D4F8C80110B90120C4F8E6
S1134C60C801D4F8C801C0EBC0018800FFF721F9DE
S1134C70060007D14FF4F070204404F052F840F2DB
S1134C800670F2BD0B21FFF7FCF8D4F8CC014FF607
S1134C90FF72904228BF4FF6FE7001D200B9012086
S1134CA0C4F8CC01401C4001FFF703F907000AD106
S1134CB04FF4F070204404F034F83046FFF722F843
S1134CC040F21970F2BD0A21FFF7DBF8686860B999
S1134CD02861A860E860D4F8C8012860D4F8CC0141
S1134CE068616E600026AF6100274B48E861C4F834
S1134CF01C520FF27100C4F84C024FF4F0702044BF
S1134D0004F00FF816B13046FEF7FCFF17B1384631
S1134D10FEF7F8FF0020F2BD38B5A0F11404208995
S1134D2046F66751884218BF012007D1A07A08B11E
S1134D30032003E0E07A28B140F21A70BDE8324063
S1134D4002F0A6BDE5680120A07202F0A7FFE868A2
S1134D502060EC602889401C2881BDE8314002F0C5
S1134D60ABBF00002DE9F04780462A480068D0F820
S1134D701C62002E4CD0D8F88C700FE02C680020F8
S1134D80E87205F11400FFF7C7FF2546002DF5D1A1
S1134D9038463F69002101600161818257B1F8689A
S1134DA030B1D0F894003989401AF968C1F89400F8
S1134DB03D68EBE70020C8F88C00C8F890007768DD
S1134DC03068461C00E01C37761E21D0B88A46F6AF
S1134DD067518842F7D13C6810E02869404504BF18
S1134DE0A87A002805D1E87A18B905F11400FFF76C
S1134DF093FF4D44BAF1010AEFD12468002CE2D0AC
S1134E00D4F8049004F11005A06800F1010AF1E758
S1134E10BDE8F087D8B3FF1F7373656D38B5DFF84D
S1134E2014494FF478712046FFF758FA4FF46E7026
S1134E30251843F2DE006860FEF715FF69682860F4
S1134E4020B90FF6D010FFF743F80EE00FF6EC1080
S1134E50FFF73EF84FF470700021204403F0FEFE8B
S1134E6028B10FF6F810FFF733F8002032BD012007
S1134E7032BD10B5052808DB02460FF6F0110FF617
S1134E800020FFF725F8002010BDDFF8A81800EB7C
S1134E90C00201EB021404F1600002F0F9FF28B92A
S1134EA004F17000BDE8104002F0F2BF10BD70B50F
S1134EB004000D4601D0052D06DB0FF6E4110FF6B4
S1134EC0F410FFF705F82EE0217BDFF8686805EBA6
S1134ED0C500002906EB0010214618D0703002F0FE
S1134EE0BCFF30B923462A460FF6B4110FF6E01082
S1134EF017E04FF47070304403F013FFA8B12A4652
S1134F000FF69C110FF6F010FEF7E2FF0BE0603095
S1134F1002F0A3FF48B923462A460FF684110FF680
S1134F20F410FEF7D5FF002070BD012070BD0A29E2
S1134F3017DA1168097A00F84D1F1168497A41702F
S1134F401168897A81701168C97AC1701168097B06
S1134F5001711168497B41711168897B817100205D
S1134F607047CE2070470A2904DA1168097800F8DE
S1134F70541F0AE0CE2070470A2904DA1168097820
S1134F8000F8561F01E0CE2070471168497841703F
S1134F90002070472DE9F04F0FF6A811DFF8949721
S1134FA08DB0D1E900230BA80026C0E9002300201E
S1134FB0029009F1040804F08BF8C046C0464FF48F
S1134FC0567048440190056E4FF43770484407907A
S1134FD0824609F18400069009F1F00000904FF434
S1134FE08A70484405904FF4C07048440A904FF4C6
S1134FF0D270484404904FF40470484409904FF42C
S11350000D70484403904FF42870484408904FF4BE
S1135010317009EB00040FF2FD20CAF80000CAF851
S11350200480CAF8148007220FF24530CAF8100031
S11350300BA9DFF80407CAF81C0000208AF8200036
S1135040DFF8F806CAF8180002208AF8280008F1E8
S11350504D0001F0EBFB0DF10A0008F15401027858
S11350600A7042784A7002A808F1560102780A7060
S113507042784A7008F14A0000210170867308F1F1
S11350808800C8F844100160416008F15C0002F037
S1135090DDFE002108F16C0002F0D8FE042E00F2BF
S11350A0E080DFE806F003548EABC6007DB9002231
S11350B00FF6DC210FF6E820FEF70AFF31460FF663
S11350C08C00FEF705FF00200DB0BDE8F08F0698B8
S11350D045600520069908700020A86028732946B9
S11350E009F1600002F0B9FE58B305F1520700203F
S11350F0B8603873394609F1600002F0AEFE00B3BF
S113510052370020B8603873394609F1600002F064
S1135110A4FEB0B152370020B8603873394609F1A3
S1135120600002F09AFE60B152370020B860387314
S1135130394609F1600002F090FE10B14FF4CD70D1
S11351408EE000210FF67020FEF7C2FEB6E70DB91F
S11351500122ADE7059845600520059908700020F7
S1135160A86028732946009802F077FE38B305F149
S113517094070020B86038733946009802F06DFE39
S1135180E8B194370020B86038733946009802F0CB
S113519064FEA0B194370020B86038733946009893
S11351A002F05BFE58B194370020B860387339467A
S11351B0009802F052FE10B14FF4397050E0012112
S11351C0C0E72F0001D1022272E704984560142041
S11351D00499087083460020B860387339460A98E9
S11351E002F03BFE40B14FF488703F18BBF1010B55
S11351F0F1D14FF4AA5033E00221A3E72F0001D1EB
S1135200032255E7039845601420039908708346E8
S11352100020B86038733946099802F01EFE30B198
S11352204FF488703F18BBF1010BF1D1E1E7032182
S113523088E72F0001D104223AE765600A20207034
S113524083460020B86038733946089802F005FE9A
S113525000285CD03037BBF1010BF2D14FF4F07071
S11352600544761C052E08F190080AF12C0AFFF675
S1135270D2AEDFF8CC04002101804A4640214180AF
S1135280818005202074079860614FF4357009EB24
S11352900001002003F042FF09F14F000221417098
S11352A0032101700521E06BC9F8040009F1DF0056
S11352B041700621017009F18401A06E0861082182
S11352C009F26F104170092101704FF48A7101983D
S11352D000684944086109F2FF100B2141700C2158
S11352E001704FF4D2710198C06A4944086109F20F
S11352F08F200E2141700F2101704FF40D71019820
S1135300806D49440DB008610120BDE8F08F04218F
S113531018E7000038B51468010011D1002082F8A4
S113532048002046DFF81854294604F041FAF0B941
S11353302988204603F066FE40206880A88031BD9D
S113534001280CD1DFF8F803438802F14805121D47
S1135350E978204604F025FA0120287031BD06289A
S113536005D1BDE832400FF2F850FEF7B1BD31BDB2
S1135370F8B5069D2E680024042871D0052855D060
S1135380202827D021280FD0232814D0242819D04E
S1135390252824D0262827D063283AD0642829D069
S11353A0672800F0AE80ABE0C9B20A2980F2A88079
S11353B005F14D000CE0C9B20A2980F2A18005F183
S11353C0540005E0C9B20A2980F29A8005F156001A
S11353D0106096E0C9B22846FFF7A9FD08E0C9B2FB
S11353E02846FFF7C0FD03E0C9B22846FFF7C4FD15
S11353F0044686E005F144073879002800F08180EE
S1135400397D0FF29850FEF763FD01207871B87171
S113541077E005F144073879002872D0397D0FF21E
S11354209050FEF755FD7C71BC716AE005F14407AC
S1135430387900281CBF7879002862D01868386051
S1135440002818BF10F1010F5BD0284600F0B8F80F
S1135450BB484388F9792A1D304604F0A2F950E08C
S1135460002B1CBF1868002805F144070DD0B4496F
S11354708988B0FBF1FC01FB1C0030B9397A0023A8
S11354800022304604F086F93BE0387900281CBF3E
S1135490787900281ED0106808B9186898B9B96BD3
S11354A059B105F15C0002F0D8FC28B9BA6B397D1A
S11354B00FF21050FEF70CFDBC630120B871B86CFC
S11354C0401CB8641DE0B86BD8B10FF22450FEF74D
S11354D0FFFC16E0BA6B0FF2AC410FF21C50FEF762
S11354E0F7FCB96B69B105F15C0002F0B6FC28B9B0
S11354F0BA6B397D0FF2CC40FEF7EAFCBC6300E0E6
S1135500CE242046F2BDF0B50FF20C5085B0D0E9A0
S11355100023CDE9002302A80021002200230EC0AD
S1135520FFF738FD28B90FF2F840FEF7D1FCFEF77B
S113553002FF0020009002A964200190684601F057
S113554059F928B90FF2C4410FF2F840FEF7C0FC34
S1135550784C4FF4707002A9204403F060FC0D28CD
S113556018BF1F2806D101460FF2F440FEF7B0FC25
S113557064201DE04C3405250FF2F8460FF28C47E9
S1135580207800281CBF607800280DD0A07858B17E
S113559054F8480CA4F1480100F0D8F820B9227C52
S11355A039463046FEF794FC90346D1EE8D1012054
S11355B000F07CFF634800780028BAD005B0F0BD45
S11355C030B5040085B000F0B2805A4920684A68BA
S11355D0904221D120797E286AD15B480068FFF788
S11355E0C7FA050004D10FF29C40FEF771FC5FE09E
S11355F0626C211D05F1110001F018F90121002050
S1135600FEF7D2FFA8800C210020FEF7CDFF6880B2
S1135610606C2880002047E0D1F89420904200F08C
S11356208680D1F8242190421DD147480068FFF7B5
S11356309FFA050008BF0FF2844058D0626C211D08
S113564005F1110001F0F2F801210020FEF7ACFF92
S1135650A88002210020FEF7A7FF6880606C11304B
S11356602880022020E0D1F8B421904224D1364889
S11356700068FFF77DFA050008BF0FF2784036D0C6
S1135680626C211D05F1110001F0D0F80121002008
S1135690FEF78AFFA88003210020FEF785FF6880BB
S11356A0606C11302880032028742846FFF722F903
S11356B00020606405B030BDD1F84412884236D170
S11356C0684600210022002300252EC0616C0329B6
S11356D005D20FF25840FEF7FBFB05B030BD1A4867
S11356E00068FFF745FA050005D10FF26C40FEF79C
S11356F0EFFB05B030BD626C05F11101684604F0A2
S113570080F8626C211D684604F082F802982880B3
S113571001210020FEF748FFA88006210020FEF7A3
S113572043FF6880042028742846FFF7E3F805B097
S113573030BD0000BC8EFF1F4D120100C0B3FF1F1F
S1135740B4A4FF1FBBA4FF1F288BFF1FF8B50F00D5
S1135750064606D10FF284410FF29040FEF7B8FBE3
S113576039E007F17C0507F14A04296861B107F1C2
S11357705C0002F072FB28B92A68A17B0FF2442076
S1135780FEF7A6FB0020286007F16C0002F080FB06
S1135790286080B30021217000F10D02037BA17801
S11357A0304603F0F7FFC0B1A27B0FF230410FF295
S11357B05040FEF78DFB296807F15C0002F04DFBB9
S11357C028B92A68A17B0FF2FC10FEF781FB0020A8
S11357D02860012020700020F2BDE868431C28697D
S11357E0EB60984207D30090A27B0FF2F0310FF2E6
S11357F02C40FEF76DFB2078002804BF28680028A1
S113580006D1A27B0FF2D4310FF24C40FEF760FBBD
S11358100120F2BD4552524F5220616C6C6F63619E
S1135820746520555342206F7574206275666665F1
S1135830727320733D25640A000000005553422012
S11358404F7574206275666665727320616C6C6F47
S1135850636174656420733D25640A004552524FA8
S113586052205553422073656D610A004765745593
S1135870534257726974654275666665720000002A
S113588025733A4552524F5220746865205553424D
S113589020706F72742025642077726F6E670A001F
S11358A053657455534257726974654275666665EB
S11358B07200000025733A4552524F5220706172B3
S11358C0616D65746572732077726F6E670A00008C
S11358D025733A4552524F522061646420717565B4
S11358E0756520656C656D2063646325642C206197
S11358F06464722025780A0025733A4552524F5247
S1135900207365742073656D20666F722063646311
S113591025640A0025733A4552524F52206164644B
S113592020746F20667265652071756575652065E4
S11359306C656D2063646325642C2061646472204B
S113594025780A0000C20100000008004552524FA9
S1135950522073746172742043444325640A000026
S11359604552524F52205553422067657420555377
S1135970425F4445565F4556454E545F4552524F2B
S1135980520A0A005553425F4170705F436C617361
S1135990735F43616C6C6261636B0000506F72747F
S11359A02564206163746976617465640A0000008B
S11359B0506F7274256420646561637469766174E0
S11359C065640A0025733A204572726F722061641F
S11359D06420746F20667265652071756575652035
S11359E0706F72742564206D656D2025780A00003F
S11359F073746F70310A000025733A204576436F43
S1135A006D70352025780A0A000000005573625F26
S1135A107461736B000000000000000000000000CF
S1135A204572726F7220696E69616C697A6520557E
S1135A305342207461736B20626C6F636B65640AFC
S1135A400000000025733A204572726F7220636F64
S1135A506E762074696D653274696B730A00000098
S1135A6025733A204572726F722025642073656D28
S1135A700A00000025733A5741524E206364635F65
S1135A8025640A00434443305F726573762055539E
S1135A9042205461736B3A204552524F523A206D62
S1135AA065737361676520616C6C6F636174696FA2
S1135AB06E206661696C65640A00000043444332E9
S1135AC05F7265737620555342205461736B3A209C
S1135AD04552524F523A206D657373616765206178
S1135AE06C6C6F636174696F6E206661696C656468
S1135AF00A000000434443335F72657376205553B4
S1135B0042205461736B3A204552524F523A206DF1
S1135B1065737361676520616C6C6F636174696F31
S1135B206E206661696C65640A0000004344433476
S1135B305F7265737620555342205461736B3A202B
S1135B4072656320646174612073697A65202564D9
S1135B50203C2033200A0000434443345F726573C1
S1135B607620555342205461736B3A204552524F6C
S1135B70523A206D65737361676520616C6C6F6365
S1135B806174696F6E206661696C65640A00000067
S1135B904344435F51756575655F696E69740000C0
S1135BA04572726F20706172616D202573204344C9
S1135BB0432025640A0000004552524F522061647C
S1135BC06420656C656D656E7420746F2043444376
S1135BD02025642071756575650A00004344435FA0
S1135BE053656E64446174610000000025733A20BB
S1135BF04572726F7220706172616D0A000000005C
S1135C0025733A204572726F722073656E64205555
S1135C10534220706F72745F25640A0025733A2022
S1135C207061636B657420616C7265616479207363
S1135C30656E74205420505F25643A2073656E6449
S1135C405061636B6574733A2025642C20636F6D17
S1135C50706C3A2025640A0025733A205365742039
S1135C6073656E6452205420505F25640A0000005E
S1135C7080B5DFF80C2852F8200003F04BFE00201A
S1135C8002BDDFF8FC2752F8200004F043BA80B5C7
S1135C90DFF8EC3753F820000B0004D1114604F070
S1135CA05AFA002002BD012903D1114604F069FA11
S1135CB0F7E7032002BD18B414461A46DFF8C037CC
S1135CC053F820000B0003D1214618BC04F078BA25
S1135CD0012903D1214618BC04F099BA12BC03204F
S1135CE07047F8B50446DFF8980750F824700D465D
S1135CF01646204601F01EF90121384603F0D5FD71
S1135D0001005ED1384603F0B1FD384603F0D5FDFD
S1135D10010056D13168384604F0A7F8707918B1FB
S1135D203179384604F06BF8B179384604F0AEFAAC
S1135D30010046D1002105F1080004F00FFB002109
S1135D4005F1280004F00AFBDFF838070257DFF8F2
S1135D503807012102F01F0301FA03F3520940F846
S1135D602230DFF82827125702F01F0301FA03F349
S1135D70520940F82230DFF81827125702F01F03A7
S1135D8001FA03F3520940F82230DFF808271257CA
S1135D9002F01F039940520940F8221005F148000F
S1135DA000210170417005F14A00102100F03AFD14
S1135DB0002028606860DFF8E00600EB8400C5631B
S1135DC00020F2BD30B5DFF8D04604EB800485B086
S1135DD0E46B6160556803951278DFF8A4568DF87A
S1135DE00820082201920022009201AA55F82000FE
S1135DF003F0C0FD01001CBF002184F8481005B069
S1135E0030BD30B5DFF8904604EB800483B0E46B1A
S1135E10002584F85A50079C0194069C009400F0D5
S1135E206FFA010008BF002003B030BD70B50C4606
S1135E30DFF84C1684B051F82060DFF85C1601EBF3
S1135E4080001D46C06B01680123A3401943016013
S1135E502B4650680290214610788DF804006A465B
S1135E600F200090304603F01AFF010011D10020EA
S1135E7000902B466A462146304603F010FF01008D
S1135E8007D1042000902B466A462146304603F091
S1135E9006FF04B070BD80B5DFF8E43553F8200088
S1135EA004F010F8010008BF002002BD18B4DFF8A8
S1135EB0E83503EB80030024DB6B0B4483F85C4080
S1135EC018BC60E2DFF8D02502EB80020023D26B1D
S1135ED082F85B307EE2F8B50446DFF8BC0500EBDF
S1135EE08405DFF89C0550F82460EF6B00224FF422
S1135EF00041304604F094F800224FF480413046CB
S1135F0004F08EF8B06A0020B062052000F0CEFAEA
S1135F1007F1080004F049FA07F1280004F045FAF3
S1135F20DFF860050257DFF87405012102F01F0352
S1135F3001FA03F3520940F82230DFF850251257D2
S1135F4002F01F0301FA03F3520940F82230DFF88C
S1135F504025125702F01F0301FA03F3520940F8D7
S1135F602230DFF83025125702F01F0399405209FE
S1135F7040F82210304604F0BCF9304603F085FCAA
S1135F800020E863204600F0D8FF0020F2BD0000A6
S1135F902DE9F04F044687B0206BDFF8FC540E4621
S1135FA0A16A0840049005F11401204604F07DF82C
S1135FB016B9206B20638FE1206A009040F207310C
S1135FC00098084217D00098400711D5DFF8B004B4
S1135FD00068A04205D1E86B90F8480040B1002069
S1135FE004E0286C90F8480010B1012000F028FA71
S1135FF0204604F063F80498002800F06C8171686E
S1136000012000FA01F7206B07420ED0A869401C5A
S1136010A861DFF86C040068A0420CBF00200120D6
S113602000F00EFA206B38402063206B10F0E00F74
S113603076D0600100F184407430006800286FD08D
S113604006F1EC073878002840F0458101203870CB
S1136050206B400602D52869401C2861206B00068D
S113606009D5E868401CE86005E02869401C2861FF
S113607000BF00BF00BF206B80063DD578680028B4
S11360801CBFB96800292AD0FEF74BFA060017D0C6
S113609006F10801204604F018F8206B00F02000F7
S11360A02063206B400603D5206B00F04000206382
S11360B03146B868FEF719FA2868401C28600EE0DB
S11360C0A068206B00F020002063206B400603D5FD
S11360D0206B00F0400020636868401C6860012267
S11360E04FF48041204603F09BFF01224FF400410E
S11360F0204603F095FFBEE7206B4006B5D4206B25
S1136100400603D5206B00F040002063206B00069E
S113611003D5206B00F08000206300203870DBE0A2
S11361203068049911EA000A1EBF06F1EC0778688A
S113613000281CBFB868002800F0CD804FF000088C
S113614006F170095FEACA7040F1BA807868FEF718
S11361500FFAB8B97868FEF7E4F9060015D041469D
S1136160204603F03DFE06F108024146204603F0B6
S1136170FEFDB8683146FEF7B8F9A0682868401CEF
S1136180286002E06868401C6860012000FA08F09A
S11361900590C0430490BA48D0F800B0CDF818B0C8
S11361A05846A04203D1CDF800B0EE6B03E0B448EA
S11361B0406800902E6C0022414603F01EFF3068B8
S11361C0049908403060306828B9009800224FF4E0
S11361D0804103F025FF06EB08004A300090807CE4
S11361E018B106F1280004F0DCF8009900200870CA
S11361F00598206319F8030C002861D0069919F852
S1136200020CD9F80060A1422AD1E96B0A68059B07
S11362101A430A608DF8080008210F2003910190A9
S1136220334601AA4146584603F039FD78B9019036
S1136230334601AA4146584603F031FD38B90420DB
S11362400190334601AA4146584603F028FD19F847
S1136250041CEA6B0A44002082F85C0000222DE052
S11362608749D1F804B0296C0A68059B1A430A606F
S11362708DF8080008210F2003910190334601AAEC
S11362804146584603F00BFD78B90190334601AA04
S11362904146584603F003FD38B9042001903346C3
S11362A001AA4146584603F0FAFC19F8041C2A6C6A
S11362B00A44002082F85C000022012000F063F808
S11362C05FEA5A0A08F1010809F1080903D0B8F194
S11362D0100FFFF437AF00BF07B0BDE8F08F80B5F3
S11362E06D4A02EB8001C96BD1F8F41031B1084654
S11362F00089C046002814BF00200420C0B202BD9B
S1136300F0B50FF29C1585B0B5E8C0100C4601A994
S1136310A1E8C010604901EB8001CD6B584951F8E8
S113632020606C6021465068039010788DF8080056
S113633001AA0B98002814BF1C200C2001900A9875
S11363400090304603F016FB070011D101222146CC
S1136350304603F052FE01224FF48041304603F0F0
S11363605FFE01224FF40041304603F059FE07E07E
S113637000222146304603F040FE002085F8480004
S1136380384605B0F0BD38B53D4A52F82040424A7F
S113639002EB80001029C06B01D3012032BD0844F8
S11363A090F84A200AB1072032BD012280F84A2021
S11363B0204603F022FE054601224FF48041204688
S11363C003F02EFE01224FF40041204603F028FE84
S11363D0284632BD10B52A4951F820402E4901EB18
S11363E08000C06B90F8491009B1072010BD01214D
S11363F080F849100122002180F8EC102046052184
S113640003F0FBFD01001AD101220621204603F00E
S1136410F4FD010013D101220721204603F0EDFD14
S113642001000CD101224FF48041204603F0F8FD15
S113643001224FF40041204603F0F2FD002010BD7C
S113644038B50F4951F82040134901EB8000002270
S1136450C56B6968204603F0D0FD00224FF48041EB
S1136460204603F0DDFD05F14804A07C18B105F1D8
S1136470080003F096FF0020207031BD00000000EA
S1136480AC8A0100B48A010000E100E0B68A010090
S1136490B88A0100BA8A0100A493FF1F80E100E0DA
S11364A00C000000000000000000000038B5DFF818
S11364B06C130C68002804BFBDE8314004F04CB8EC
S11364C0E56905F14401401E02F08AFAD5E911019B
S11364D0801C41F10001C5E9110101F0DFFB05F168
S11364E044024FF4B670211805F1440004F0BAF8E0
S11364F0284600F033F813E001F0D0FBA068C00593
S11365000ED56068216801604860B5F88C01401EB2
S1136510A5F88C01A06820F4807040F00300A0600E
S1136520BDE8314001F0C8BB70B50400DFF8EC02EF
S1136530056804D10C20BDE8704001F0A9B9EE69EA
S113654001F0ACFB06F144024FF4B6702918204662
S113655004F088F8304600F001F838E0F8B5044655
S1136560DFF8B80200684FF4C2710144B0F88C211E
S1136570DAB1D0F8845102F1010C01E029462D680A
S1136580BCF1010C11D0D4E91167D5E911239F4264
