S0120000426F6F744C6F616465722E7372656327
S11300000080002015050000C30400004F05000017
S11300105B050000790500007B050000000000007E
S11300200000000000000000000000007D0500004A
S11300307F0500000000000081050000830500002A
S113004075050000750500007505000075050000C4
S113005075050000750500007505000075050000B4
S113006075050000750500007505000075050000A4
S11300707505000075050000750500007505000094
S11303F0750500007505000075050000FFFFFFFF8F
S1130400FFFFFFFFFFFFFFFFFFFFFFFFFEFFFFFFF9
S113041010B5114C606800F07F40B0F17C4F18BFFC
S11304204FF4016008D140F60800406800F07F40B6
S1130430B0F17C4F02D0094800F012F840F60801F0
S113044020680968884234BF04484FF4016000F012
S113045007F8002010BD0000080800101008001064
S11304604368D0F800D0184600477047103A07D3C5
S113047030B4B1E83810103AA0E83810F9D230BCE2
S1130480530724BFB1E80810A0E8081044BF51F88E
S1130490043B40F8043BD20724BF31F8022B20F878
S11304A0022B44BF0B7803707047083A07D3B1E8B6
S11304B00810083A40F8043B40F804CBF7D253073D
S11304C0E4E7FEE780B50748800806D005488208BF
S11304D0920005490548FFF7C9FF0448044908602C
S11304E001BD00BF0000000000000000000000008B
S11304F008ED00E04CF22050044908804DF6281025
S113050008804FF4E9700249088070470E200540C6
S11305100020054072B6034880470348804762B60E
S113052002480047F5040000C50400006905000006
S11305300120C046002801D0C046C0460020C04665
S1130540C046FFF765FF00F000F800F001B8FEE7D1
S11305500746384600F002F8FBE7FEE720210903CE
S113056026311820ABBEF9E7C046C046C046C04697
S1130570FFF7DEFFFFF7FEBFFEE7FEE7FEE7FEE75D
S1070580FEE7FEE7A9
S1130800FFFFFFFFFFFFFFFFFFFFFFFFFFFFFFFCF7
S113081000800020F18001005F4A00002381010074
S1130820278101002B8101002F81010000000000BD
S11308300000000000000000000000002B42000047
S11308403381010000000000A14200001F8101006B
S113085075850100758501007585010075850100A8
S11308607585010075850100758501007585010098
S11308707585010075850100758501007585010088
S11308807585010075850100758501007585010078
S11308907585010075850100758501007585010068
S11308A07585010075850100758501007585010058
S11308B07585010075850100758501007585010048
S11308C0758501009D7F0100A77F0100BB7F0100AA
S11308D07585010075850100C57F010075850100DE
S11308E075850100CF7F0100D97F0100ED7F0100F4
S11308F07585010075850100F77F0100758501008C
S113090075850100758501007585010075850100F7
S113091075850100758501007585010075850100E7
S113092075850100758501007585010075850100D7
S113093075850100758501007585010075850100C7
S1130C001B8101001B8101001B810100FFFFFFFF0D
S1130C1038B5050014D04FF4C0702C18606A50B178
S1130C2002F0E8FF38B101220FF25C010FF26C0010
S1130C3003F0C6F804E0D82002F08FFF606208B920
S1130C40002032BD4FF4E2704FF4C27128442944AD
S1130C500022042300250D6005700572656A1544A1
S1130C600D6200254D6045704572801C656A15440F
S1130C701B354D62363208315B1EEBD1FF202070EC
S1130C8000206070012032BD666C6F775F636F6E09
S1130C9074726F6C5F696E697400000025733A4565
S1130CA052524F5228256429206672656520666C6D
S1130CB06F7720636F6E74726F6C20726573706FE0
S1130CC06E7365207461626C650A000038B54FF478
S1130CD0836003F042F90A2003F03FF940F2062052
S1130CE003F045F94FF4037003F041F940F20D208D
S1130CF003F03DF9082003F030F9002003F0A1F9D6
S1130D00012003F09EF94FF4EA74074D214628466A
S1130D1003F05CFA2146681803F058FA00202870A2
S1130D20012085F8D40131BDE885FF1F2DE9F04F7E
S1130D30A1B001218DF80D10804600218DF80C1012
S1130D4014A8342103F042FA00208DF81100B8F100
S1130D50000F98F8002001D0022A08DBDFF8941C69
S1130D60DFF8940C03F02CF821B0BDE8F08F0420D8
S1130D708DF8220008F1F40A07208DF823000120E1
S1130D808DF821001020079002208DF8200000200B
S1130D908DF82C004FF4406002F0DDFECAF87000BC
S1130DA0DFF850BC30B95946DFF8600D03F008F89D
S1130DB003F039FA9DF82C209DF82010404602F0EB
S1130DC0DBFA30B95946DFF8480D02F0F9FF03F0B9
S1130DD02AFA404602F00FFB30B95946DFF8340DC9
S1130DE002F0EEFF03F01FFA4046FFF711FF30B99F
S1130DF05946DFF8240D02F0E3FF03F014FA4FF430
S1130E00A2700021404403F0E1FA4FF4AA700021DB
S1130E10404403F0DBFA98F80000002807BF0021E3
S1130E2002200021032003F048FBADF81200BDF8B6
S1130E30120040B998F80020DFF8E00C594602F09F
S1130E40BFFF03F0F0F998F80020DFF8D40C5946FE
S1130E5002F0B6FF4FF4BA7008EB000778E3641CA5
S1130E60A9F1010920460026012190F90020491E1C
S1130E70130036D03601A2F130030A2B38BF303AC2
S1130E800AD3A2F14103062B38BF373A04D3A2F1A7
S1130E906103062B25D2573A9619401C0029E4D148
S1130EA0641CA9F1010927D02078752808D10DF117
S1130EB00E01601C02F031FA10B1641DA9F105099C
S1130EC0F6B232460A2A2FDA98F80000010008BF69
S1130ED0022A18D102465946DFF8480C02F070FF86
S1130EE07FE02278DFF8400CF3B2594602F068FF45
S1130EF001208DF80D0074E0DFF84C1DDFF82C0C98
S1130F0002F05EFFDCE78DF823605946DFF8A80D98
S1130F1002F056FF00208DF80D0020780D2809D12D
S1130F20641CA9F1010971E05946DFF8900D02F043
S1130F3047FF56E05946DFF8880D02F041FF0120D3
S1130F408DF80D004DE001208DF82200641C9DF801
S1130F500D00A9F1010928B15946DFF8680D02F026
S1130F602FFF3EE020460026012190F90020491E73
S1130F7013002FD03601A2F130030A2B38BF303AC8
S1130F800AD3A2F14103062B38BF373A04D3A2F1A6
S1130F906103062B1ED2573A9619401C0029E4D14E
S1130FA0641CA9F101091ED02078752808D10DF11F
S1130FB00E01601C02F0B1F910B1641DA9F105091C
S1130FC014F8010B0D2815D05946DFF8FC0C02F07B
S1130FD0F7FE06E02278DFF8F40CF3B2594602F08B
S1130FE0EFFE07251DE0DFF8601CDFF8400B02F080
S1130FF0E7FEE5E79AF81200A9F1010918B398F899
S11310000020DFF8CC0C594602F0DAFEB9F1010FEA
S113101007DB0D2D02BFDFF8BC0C0078002800F0C0
S1131020A582059803F0F0FD98F80000801CC0B27A
S113103003F097FE060040F017865946DFF8980C37
S113104002F0BEFE84E298F80000002807BF0021E9
S113105007A807A9002001F02BFD02465946DFF836
S11310607C0C02F0ADFE4FF4A2704044CAF80000BC
S11310704FF4AA704044CAF80400F0B2002898F86B
S113108000000ED1010004D14FF4836002F065FF2B
S113109011E0012803D10A2002F05FFF0BE00322D4
S11310A00AE0010008BF4FF4836002D00128F6D1A2
S11310B00A2002F05CFF0022F3B25946DFF8200C4C
S11310C002F07EFE404601F095FD02465946DFF8E7
S11310D0140C02F075FE01208AF812009DF821001C
S11310E0002800F0128198F80000002104F041FD6E
S11310F000225946DFF8F00B02F062FE98F8000077
S11311006FF00042012104F03AFD98F8000001213B
S113111004F02FFD00200090002618E0396889199A
S11311206FF06040486001203968891948700020D8
S1131130396888553868009A80194368417898F866
S1131140000004F030FD0098401C00900836009820
S1131150796888420ED2B9688842EBD3C007DDD5DE
S11311603968891940F2FF7048600020396889198C
S11311704870DDE75946DFF8740B02F021FE0026C3
S11311800696DAF8740006993A68069BD7F804C004
S11311900844134441785A78002914BF4AA14BA14A
S11311A0002A14BF48A249A2664534BF5B686FF0A9
S11311B060430291594640680190009232460FF60E
S11311C0403002F0FDFD0698761C0830182E06907B
S11311D0D7D359460FF6643002F0F2FD4FF4E670AF
S11311E008EB0006594630780028386B019014BF8C
S11311F035A336A33869009000220FF6883002F038
S1131200DFFD70780028786B019014BF2EA32FA304
S113121078690090012259460FF6683002F0D0FD3B
S1131220B0780028B86B019014BF27A327A3B8692E
S11312300090022259460FF64C3002F0C1FDF078BE
S11312400028F86B019014BF1FA320A3F869009035
S1131250032259460FF62C3002F0B2FD30790028F3
S1131260386C019014BF18A318A3386A00900422A4
S113127059460FF6103002F0A3FD70790028786CFF
S1131280019014BF10A311A3786A00900522594657
S11312900FF6F02002F094FDB0790028B86C0190AC
S11312A014BF09A309A3B86A0090062259460FF691
S11312B0D42002F085FDF0790028F86C019014BF69
S11312C001A302A304E000BF657874007374640092
S11312D0F86A0090072259460FF6A82002F070FD24
S11312E0DAF874209DF82C1098F8000004F04BFDF7
S11312F028B10E9A0FF6C820594602F061FD98F8FD
S11313000000002104F056FD2DE098F800000121B2
S113131004F02FFC002259460FF6E82002F050FD9D
S1131320002698F800004FF4E0633246002104F0F0
S11313303AFC43B2324659460FF6043002F040FDFF
S1131340012000904FF4E06332460021404601F052
S11313503FFD0346324659460FF6283002F030FD71
S1131360761C0E2EDDDB98F8000020B94FF40070D7
S113137002F0F3FD4AE69DF92300022814D15946F0
S11313800FF6383002F01CFD40F2062002F0E5FDB5
S11313904FF4037002F0E1FD40F20D2002F0DDFD98
S11313A0082002F0E4FD0EE040F2062002F0DFFD2A
S11313B04FF4037002F0DBFD40F20D2002F0D7FD84
S11313C0082002F0CAFD142004F0E8FF4FF4017075
S11313D0CEE7641CA9F1010915D02078752808D13D
S11313E00DF10E01601C01F098FF10B1641DA9F10C
S11313F0050914F8010B0D280CD059460FF6EC2002
S113140002F0DEFCEDE5DFF84018DFF8200702F01B
S1131410D7FCEEE701208DF80D00A9F1010998F839
S1131420000000280CBF4FF400704FF4017002F06C
S11314309EFD98F80000010008BF4FF4836002D0BD
S1131440012804D10A2002F088FD002200E00322D2
S113145059460FF6C82002F0B3FC404601F076FB73
S1131460024659460FF6F02002F0AAFC00208AF842
S113147012009DF82C209DF82010404601F07CFFBE
S113148030B959460FF6043002F09AFC02F0CBFE54
S1131490404601F0B0FF30B959460FF6243002F04F
S11314A08FFC02F0C0FE4046FFF7B2FB30B959464C
S11314B00FF6403002F084FC02F0B5FE00208DF8F7
S11314C0220007208DF8230001208DF82100102030
S11314D0079002208DF8200000208DF82C00642055
S11314E004F05CFF92E58DF80C009DF822000128C1
S11314F005D159460FF6383002F062FC71E5542AE2
S11315000AD101208DF80C000025B9F1040F0DDA81
S11315109DF80C0068B910E0522A03D101208DF81F
S11315200C0001E0722AEFD10125EEE7B9F1090FB1
S113153052DA9DF80C0000284ED059460FF61C30A4
S113154002F03EFC059803F05FFB012004F026FF47
S1131550BDF81200012103F023F800280590F4D00F
S113156000F111040088A0F111090D250020ADF847
S11315700E002278432A3FF42CAF462A00F046831B
S1131580472A00F05C824C2A3FF4DDAC4D2A00F07F
S11315901A814F2A3FF4DAAC522AA6D0532A08D033
S11315A0542AA2D06D2A50D0722A18BF742A9AD015
S11315B051E3B9F1030FFFF629AD9AF812000028A0
S11315C01CBF9DF8220001283FF449AC59460FF690
S11315D0B82002F0F5FB04E500950FAA9DF80C3045
S11315E0A9F10101601C01F019FD40BB9AF8120039
S11315F0F8B19DF840000F9B8DF830000CAA1198AB
S11316000D900E2198F8000004F054FB58B9019590
S113161012A800900CAA0F9B98F800000E2104F069
S113162068FB30B98EE7DFF8C816DFF8C80602F0A9
S1131630C7FB59460FF6902002F0C2FB82E75946D9
S11316400FF6BC2002F0BCFBCBE4B9F10A0F02DBBD
S11316509AF8120038B19AF812200FF6CC205946A5
S113166002F0AEFBBDE43868641C28B959460FF695
S1131670EC2002F0A5FBB4E4B8687968884206D38C
S113168059460FF6043002F09BFB0020B86038681E
S1131690BA68082100EBC20005F030F8207852281F
S11316A006D0542810D0722808D0742819D012E01B
S11316B03868B96800EBC100012141700120396824
S11316C0BA6801F832000CE03868B96800EBC10070
S11316D00121417005E059460FF6F02002F070FB3D
S11316E007253868B968641C00EBC100A9F1020938
S11316F0061D002CA9F101004DD0C0B2082801DA62
S1131700002848D1002E46D000203060694620468B
S113171001F003FE002844D0BDF8000030606946A3
S1131720201D01F0FAFD00283BD03068BDF8001000
S113173041EA004030600834BA68386800EBC200FF
S1131740A9F108094168019141780091594603784B
S11317500FF6A02002F034FB4CB32078752808D192
S11317600DF10E01601C01F0D8FD10B1641DA9F14A
S1131770050914F8010B0D2820D059460FF6B020A6
S113178002F01EFB3868BA68082100EBC20004F0BE
S1131790B5FF072545E4DFF86015DFF8600502F0C2
S11317A00FFB59460FF6BC2002F00AFB19E4DFF8E0
S11317B09814DFF8780302F003FBDAE7B868401CFA
S11317C0B860FFF7AEBBB9F10A0F02DB9AF812005A
S11317D040B19AF812200FF6B420594602F0F0FAFC
S11317E0FFF7FFBB14F8010F462818BF6628A9F1BC
S11317F0010921D0DAF8740030B959460FF6C02037
S113180002F0DEFAFFF7EDBBDAF87C00DAF87810C4
S1131810B0EBD10F07D359460FF6D02002F0D0FA1F
S11318200020CAF87C00DAF87400DAF87C20082179
S113183000EBC20004F062FF00268DF800602078FF
S1131840462823D0522808D0542816D0662821D000
S113185072280AD0742825D01EE0DAF87400DAF869
S11318607C1000EBC100012141700122DAF8740000
S1131870DAF87C1000F8312014E0DAF87400DAF8B1
S11318807C1000EBC100012141700BE001268DF8B2
S1131890006007E0012605E059460FF6942002F0A7
S11318A08FFA0725641C002EA9F101095AD0787B10
S11318B0810800EB5171C908A0EBC10078739DF851
S11318C0000020B1797B4144012081F8CC01002043
S11318D08DF811000DF111034FF4C07008EB0002F4
S11318E04946204601F04CFC30B159460FF66820B9
S11318F002F066FAFFF775BB9DF811007A7B241895
S1131900A9EB000908EB8200D0F8A4110191594613
S1131910D0F88401009008EB020090F8CC310FF667
S1131920702002F04DFA002C68D02078752808D178
S11319300DF10E01601C01F0F0FC10B1641DA9F161
S1131940050920780D286DD0002E59465BD00FF67E
S1131950902002F035FA787B08EB80001B21D0F848
S1131960A4015BE0DAF87400DAF87C1000EBC10043
S1131970001D0190A9F1010084B3C0B2082800DA67
S113198060BB019850B30199002008606946204665
S113199001F0C3FC30B30199BDF80000086069464A
S11319A0201D01F0BAFCE8B10198BDF800100068F0
S11319B041EA004001990860DAF87C20DAF8740002
S11319C000EBC200083441680191A9F1080941788B
S11319D00091594603780FF64420A2E7C649C74848
S11319E002F0EEF959460FF6782002F0E9F9FFF714
S11319F0F8BA00BFE0710100F071010092494B4850
S1131A0002F0DEF99DE70FF68C2002F0D9F9DAF83E
S1131A107400DAF87C20082100EBC20004F06EFEAA
S1131A20FFF7DFBA26B1787B401C7873FFF778BAEA
S1131A30DAF87C00401CCAF87C00FFF771BAB9F1EF
S1131A40040F06DA59460FF68C2002F0B9F9FFF7B5
S1131A50C8BA60784D28A9F1010505D0662805D0DB
S1131A606D2807D1002002E0012000E002208DF85B
S1131A70100004E059460FF6902002F0A1F9A41CCE
S1131A806E1E20460025022190F90020491E1300F5
S1131A902FD0A2F130030A2B38BF303A0AD3A2F177
S1131AA04103062B38BF373A04D3A2F16103062B56
S1131AB01FD2573A401C002902EB0515E4D1A41C9F
S1131AC0A6F102091CD02078752808D10DF10E0169
S1131AD0601C01F022FC10B1641DA9F105092078F5
S1131AE00D2825D059460FF64C2002F069F9FFF76E
S1131AF078BA59460FF6682002F062F9FFF771BA16
S1131B0051490A4802F05CF9E9E700BF0C72010090
S1131B1038720100647201008C720100BC72010011
S1131B20F8720100507301001C730100EC380000CE
S1131B3047208DF85000A9F101099DF81000F0B17B
S1131B40022801D00CD329E0EDB2082D24DA4FF499
S1131B50C0700DF151022946404401F04EFD19E0D8
S1131B60DAF87800EDB2B5EBD00F15D2DAF87400DC
S1131B700DF1510100EBC50001F028FD0AE0786881
S1131B80EDB2854208D238680DF1510100EBC50071
S1131B9001F00EFD441C03E0002401E04FF0FF348B
S1131BA064B25CB398F80000801CC0B203F0D9F8AA
S1131BB0060006D159460FF6D81002F001F9FFF7D6
S1131BC010BA224614A906F10D0004F09BFD3473EB
S1131BD098F80000811CC9B2304603F0E0F848B917
S1131BE098F80000821C59460FF6D01002F0E8F86D
S1131BF0FFF7F7B90D250024FFF708BA9DF8102068
S1131C000FF6F410EBB25946FFF7E9B9641CA9F1D9
S1131C10010916D02078752808D10DF10E01601C39
S1131C2001F07BFB10B1641DA9F1050920780D2892
S1131C303FF476A959460FF6F01002F0C1F8FFF709
S1131C40D0B9014902E000BFD8380000DFF8F40D34
S1131C5002F0B6F8EAE7CDF80090134659460FF6BD
S1131C60EC1002F0ADF86DE40020307306F10D04C1
S1131C70BDF80E0040B102460FF61021204602F0D6
S1131C80ADF805203073641D2570307B401C307323
S1131C9098F80000811CC9B2304603F080F800288F
S1131CA07FF456AC98F80000821C59460FF6E410F5
S1131CB002F086F84CE400BF88730100B47301009D
S1131CC0E473010018740100987401006074010049
S1131CD0C8740100BBA4FF1F08290000F0740100B0
S1131CE0247501006C750100A0750100E875010000
S1131CF0CC2F0000E42F0000603700007037000094
S1131D0025733A494E464F2C2063617365204F2C4E
S1131D10204649464F207461626C655B253032640D
S1131D205D3A2025303878203A202573203A202542
S1131D30303878203A202573200A00000A0A2573D7
S1131D403A494E464F2C2063617365204F2C204640
S1131D506C6F77636F6E74726F6C207461626C6504
S1131D605B695D3A20657874203A2049442020203C
S1131D70202020203A20726573706F6E7365200AEC
S1131D800000000025733A494E464F2C20636173CE
S1131D9065204F2C20466C6F77636F6E74726F6C86
S1131DA0207461626C655B253031645D3A20257373
S1131DB0203A2025303878203A2025730A00000084
S1131DC025733A4552524F522C2063617365204F5C
S1131DD02C200D0A20464C455843414E5F44525630
S1131DE05F436F6E66696752784669666F20666105
S1131DF0696C65642E20726573756C743A20307852
S1131E00256C780025733A494E464F2C2063617344
S1131E1065204F2C20466C657843616E4465766975
S1131E2063655F53657452784D61736B5479706563
S1131E302820292072657475726E2025640A0000BA
S1131E4025733A494E464F2C2063617365204F2C0D
S1131E5020466C657843616E4465766963655F53BB
S1131E6065745278496E646976696475616C4D6114
S1131E70736B2025642072657475726E2025640A64
S1131E800000000025733A494E464F2C20636173CD
S1131E9065204F2C20466C657843616E44657669F5
S1131EA063655F7365744D61696C626F7820256446
S1131EB02072657475726E2025640A0025733A4990
S1131EC04E464F2C2063617365204F2C205365745C
S1131ED020656C656320666F2033332E33332062B4
S1131EE0617564726174650A0000000025733A45E7
S1131EF052524F522C206361736520432C20636C33
S1131F006F736520636F6D6D616E642C200D206EA0
S1131F106F7420666F756E640A00000025733A4979
S1131F204E464F2C206361736520432C20466C651C
S1131F307843616E4465766963655F53657454657F
S1131F40726D696E6174696F6E28202920726574E0
S1131F5075726E2025640A0025733A494E464F2C4B
S1131F60206361736520432C20466C657843616E61
S1131F704465766963655F4465496E697428202900
S1131F802072657475726E2025640A0025733A45C3
S1131F9052524F522C206361736520432C20616C94
S1131FA06C6F636174696E67204649464F204944EB
S1131FB02066696C746572207461626C650A000045
S1131FC025733A4552524F522C2063617365204366
S1131FD02C20616C6C6F636174696E67204649469E
S1131FE04F204944206D61736B207461626C650AF3
S1131FF00000000025733A4552524F522C20636171
S1132000736520432C20616C6C6F636174696E6727
S113201020666C6F7720636F6E74726F6C206D65D1
S1132020737361676573206275666665720A000082
S113203025733A4552524F522C20636173652074C4
S11320407254522C2043414E20696E206C69737483
S1132050656E6572206D6F64650A000025733A45EC
S113206052524F522C206361736520747254522C67
S11320702043414E207472616E736D697420666FE3
S1132080726D61740A00000025733A4552524F5232
S11320902C206361736520532C205472696564207D
S11320A0746F206368616E67652062617564726134
S11320B07465207768656E2043414E206973206FF4
S11320C070656E0A0000000025733A4552524F5263
S11320D02C206361736520747254522C20466C6505
S11320E07843616E4465766963655F54784D6573C2
S11320F073616765206661696C65640A00000000AD
S113210025733A4552524F522C20636173652074F3
S11321107254522C206465636F6465206D6573731B
S11321206167650A0000000025733A4552524F5218
S11321302C2063617365206D2C20696E636F72724D
S1132140656374206D73672073697A652C206361FD
S11321506E496E73742025640A00000025733A45A5
S113216052524F522C2063617365206D2C207046AF
S113217049464F49644D61736B5461626C65204EEE
S1132180554C4C0A0000000025733A494E464F2C2A
S11321902063617365206D2C204F766572777269B8
S11321A07465204649464F204D61736B207461620B
S11321B06C652C204649464F4D61736B5461626CCB
S11321C065496E64783D300A0000000025733A4585
S11321D052524F522C2063617365206D2C20696E1E
S11321E0636F7272656374206D73672074797065B0
S11321F00A00000025733A494E464F2C2063617350
S113220065206D2C20536574204649464F204D614E
S1132210736B5B25645D205254522025642049442D
S1132220452025642076616C2025780A0000000092
S113223025733A4552524F522C2063617365206DC9
S11322402C20736574206D61736B20636F6D6D61F9
S11322506E642C200D206E6F7420666F756E640A98
S11322600000000025733A4552524F522C206361FE
S11322707365206D2C2070617273696E6720464906
S1132280464F204944204D41534B0A0025733A459B
S113229052524F522C2063617365204D2C20696E7D
S11322A0636F7272656374206D73672073697A65F6
S11322B02C2063616E496E73742025640A0000004B
S11322C025733A4552524F522C2063617365204D59
S11322D02C20736574204649464F2049442074617C
S11322E0626C65204E554C4C0A00000025733A4937
S11322F04E464F2C2063617365204D2C204F76652C
S11323007277726974696E67204649464F20494462
S11323102046696C746572207461626C652046495C
S1132320464F5461626C65496E64783D300A000022
S113233025733A4552524F522C2063617365204DE8
S11323402C20696E636F7272656374206D736720ED
S1132350747970650A00000025733A4552524F5251
S11323602C2063617365204D2066462C20646563D0
S11323706F64696E6720666C6F7720636F6E74722A
S11323806F6C206D657373616765200A000000003F
S113239025733A494E464F2C2063617365204D20C6
S11323A0547452722C2053657420666C6F77636F7B
S11323B06E74726F6C207461626C655B25645D2061
S11323C04944453D25642C206D736749643D257857
S11323D020726573706F6E73653D25730A0000008B
S11323E025733A4552524F522C2063617365204D38
S11323F02066462C2073657420666C6F77636F6E5D
S113240074726F6C20636F6D6D616E642C200D208F
S11324106E6F7420666F756E64200A0025733A49E6
S11324204E464F2C2063617365204D2054745272C4
S11324302C20536574204649464F207461626C65B4
S11324405B25645D205254523D25642C204944454B
S11324503D25642C2076616C3D25780A000000003F
S113246025733A4552524F522C2063617365204DB7
S113247020547452722C2070617273652046494650
S11324804F204944207461626C652076616C7565E7
S11324900A00000025733A4552524F522C206361C2
S11324A07365204D20547452722C20736574204639
S11324B049464F2049442066696C746572207461F2
S11324C0626C652C200D206E6F7420666F756E64CF
S11324D00A00000025733A204552524F522C2063C3
S11324E061736520472C20696E636F727265637433
S11324F02073697A65206F66206765742072657140
S1132500756573740A00000025733A4552524F52A0
S11325102C206361736520472C206765745F6D65AB
S1132520737361676520496E76616C6964207479A0
S113253070650A0025733A4552524F522C2063614C
S1132540736520472C206765745F6D6573736167DD
S1132550652C200D206E6F7420666F756E640A0002
S113256025733A4552524F522C20636173652047BC
S11325702C206765745F6D65737361676520706196
S11325807273696E6720696E6465780A00000000E2
S113259025733A4552524F522C206361736520478C
S11325A02C20676574206D656D20666F722055530D
S11325B04220726573706F6E73650A0025733A4525
S11325C052524F522C206361736520472C2073654F
S11325D06E64696E67206765745F6D6573736167A8
S11325E0652072657370206461746120746F204388
S11325F044435F25640A000025733A4552524F5202
S11326002C206361736520472C206D6573736167AB
S1132610655F747970653D2564202C696E64657806
S11326203D25640A0000000025733A4552524F527A
S11326303A4620636F6D6D616E642C200D206E6FC1
S11326407420666F756E640A0000000025733A45B5
S113265052524F522C206361736520646566617524
S11326606C742C20436F6D6D616E64206E6F7420EA
S11326707265636F676E697A6564202563202564DB
S11326802073697A652025640A00000075253034BA
S11326907800000025733A4552524F522C2073653E
S11326A06E64206461746120746F204344435F2529
S11326B0640A00002DE9F84F05002A7801D0022AA7
S11326C007DB0FF2FC110FF2CC1001F079FBBDE82F
S11326D0F18F0FF2EC1B0FF2F8100FF2102859468D
S11326E001F06EFB95F8060108B90220C7E02878CE
S11326F00022694603F06BFD002840F0BF804FF0D4
S11327000009002402E0012003F048FE4FF4AA70FF
S113271028440089C04621283EBF21464C1C02297A
S1132720F1D3002800F0AA80044686B92878801CDA
S1132730C0B202F016FB060005D159460FF2C810CC
S113274001F03EFB8AE0002006F10D0930734FF4DE
S1132750AA70284401F05DFE070070D04FF4C070E9
S11327602A184946384600F074FE82464FF4A27097
S11327703946284401F031FE95F88001FF2833D012
S1132780DFF88408006802F06BF9070005D15946A8
S11327900FF2981001F014FB26E095F88001291837
S11327A005EB800091F8C421D0F8A41107F11100C1
S11327B003F0A8FF0121002001F06EFEB880287804
S11327C000281ABF03210020022101F065FE788051
S11327D095F88001284490F8C40111303880022013
S11327E03874384601F0FEFFBAF1000F05D559469A
S11327F00FF2641001F0E4FA19E0307BDFF80C18F2
S113280050443073C0B20988081A20280EDA287898
S1132810811CC9B2304602F0C2FA4FF0000918B95F
S11328205946404601F0CCFA002600E0D144DFF8D6
S1132830E007DFF8DC178068401C88600EE0287829
S1132840811CC9B2304602F0AAFA18B9594640466A
S113285001F0B6FA022003F0A1FD0026641E7FF405
S113286064AF5EB12878811CC9B2304602F097FA91
S113287018B95946404601F0A3FA0026012003F096
S11328808DFDDFF89007007800283FF42BAFBDE8FA
S1132890F18F000025733A4552524F522C43414E5A
S11328A05F52582074687265616420696E636F7248
S11328B07265637420706172616D2025750A000071
S11328C0464C455843414E5F52785F5461736B00E8
S11328D025733A494E464F204C6F6F7020696E73D2
S11328E074616E6365202575200A000025733A45DE
S11328F052524F522073656E642064617461207477
S11329006F20434443310A0025733A4552524F52D3
S11329102C20676574206D656D20666F7220555399
S11329204220726573706F6E73650A0025733A45B1
S113293052524F523A20617070206D657373616713
S11329406520616C6C6F636174696F6E2066616988
S11329506C65640A0000000025733A4552524F52D8
S113296020706172732043414E20746F205374723F
S1132970696E670A00000000F8B50E00054601D034
S1132980022D01DB00F011BE4FF4EA71DFF8880676
S113299011FB05F14418802104F1700003F0AEFE30
S11329A004F1FC07B079B87100217079787130684E
S11329B0401E386030793871F079787201203872AD
S11329C04FF48670204403F060FF064640B258B1CD
S11329D073B22A460FF29C010FF26C0001F0F0F979
S11329E0002038724FF0FF36BD6E45B34FF4AA7025
S11329F0271802E0384601F00CFD384601F030FD9E
S1132A000028F7D04FF4A2702718384601F028FDAB
S1132A1018B9384601F0FDFCF4E78024294638460D
S1132A2001F0DBFC40B90FF24C010FF2640001F03D
S1132A30C7F94FF0FF3602E01835641EEED170B2CC
S1132A40F2BD0000EC38000025733A4552524F5253
S1132A502C20696E6974206D7574657820666F72B8
S1132A6020696E7374616E6365202575202D2025A1
S1132A70780A0000466C657843616E446576696344
S1132A80655F496E6974496E7374616E63650000B5
S1132A9025733A4552524F522061646420656C6537
S1132AA06D656E7420746F2071756575650A00001C
S1132AB038B50C46002558B101460020FFF75CFFED
S1132AC0050005D50FF24C010FF2240001F078F94E
S1132AD05CB121460120FFF74FFF050005D50FF239
S1132AE034010FF2440001F06BF9284632BD0000B6
S1132AF025733A4552524F5220496E697469616C8C
S1132B00697A696E6720696E7374616E63652030DB
S1132B100A000000466C657843616E44657669631B
S1132B20655F496E6974000025733A4552524F52ED
S1132B3020496E697469616C697A696E6720696E8F
S1132B407374616E636520310A00000038B50400B7
S1132B5001D1032032BD94F80401F0B1012084F8BE
S1132B604001204600F0B0F8050006D02A460FF2D6
S1132B7050010FF2280001F023F94FF4867020442D
S1132B8003F035FE28B10FF238010FF24C0001F0CA
S1132B9017F9002084F80401284632BD25733A450C
S1132BA052524F5220466C657843616E4465766993
S1132BB063655F53746F70202D2025780A00000030
S1132BC0466C657843616E4465766963655F446508
S1132BD0496E69740000000025733A4552524F5201
S1132BE0205F6D757465785F64657374726F790ABC
S1132BF00000000070B5040001D1032070BD4FF443
S1132C0082702518287840B90FF270010FF23C0049
S1132C1001F0D6F84FF0FF3070BD207804F1FC02CB
S1132C20211D02F0D6FF46B23246012A07DB0FF21D
S1132C304C010FF25C0001F0C3F8304670BD95F909
S1132C4001102046BDE870404DE0000025733A4570
S1132C5052524F522C20496E7374616E6365206E1C
S1132C606F7420696E697469616C697A6564206344
S1132C706F72726563746C790A000000466C657843
S1132C8043616E4465766963655F53746172740071
S1132C900A25733A4552524F523A464C45584341DD
S1132CA04E20696E697469616C697A6174696F6ECA
S1132CB0206661696C65642E20726573756C743A64
S1132CC02030782578200A0010B5040001D10320B3
S1132CD010BD94F8060128B1207803F074F80020A0
S1132CE084F8060110BDF8B504001FBF4FF48270CC
S1132CF02618307800280D4601D00A2D01DB032068
S1132D00F2BDDFF8A409217850F82100001D40012C
S1132D1000F184403430006800281ABF01210020EB
S1132D20002104F031F8074677603A460FF2680153
S1132D300FF2800001F044F87068DFF870198842DF
S1132D400ED0DFF86C19884213D1DFF8680905EB5F
S1132D50850100EB8101207802F002FF40B2F2BD50
S1132D60DFF8500905EB850100EB810000F16401F7
S1132D70F1E7DFF84409C01942F21071884209D220
S1132D80DFF8300905EB850100EB81004FF4967103
S1132D900144E0E70420F2BD466C657843616E446B
S1132DA065766963655F53657442697472617465BD
S1132DB00000000025733A494E464F3A466C657848
S1132DC043616E20636C6F636B2025750A000000FD
S1132DD02DE9F04F050083B0894693461E4608D07E
S1132DE095F8060110B94FF0FF3070E0BBF1100FF9
S1132DF001D303206BE005EBCB0000F170073878BA
S1132E000C9C584504BF7868B04206D1B878884213
S1132E1002BF7878A042002059D097F801A087F823
S1132E2000B04FF4867005EB00087E60200087F840
S1132E3002907C7040463DD003F074FD2878334600
S1132E405A46494602F0AFFE0FF28C0946B25B4681
S1132E50324649460FF29C0000F0B2FFA24524D04E
S1132E60B8788DF800005A460820019049460FF2C0
S1132E70B80000F0A5FF7B6828786A46594602F03E
S1132E804DFF41B229B142B249460FF2C80000F0E9
S1132E9097FF39782878002202F080FF46B2324644
S1132EA049460FF2F00000F08BFF404603F0EDFDC1
S1132EB030460CE003F036FD287800235A46494694
S1132EC002F071FE0446404603F0DFFD60B203B039
S1132ED0BDE8F08F00000000466C657843616E44E5
S1132EE065766963655F7365744D61696C626F785B
S1132EF0000000000A25733A494E464F2C20466CC8
S1132F00657843414E205365745278496E646976FE
S1132F10696475616C4D61736B20726574202575ED
S1132F20204D422025780A000A25733A494E464F1F
S1132F302C20466C657843414E204D4220726563D7
S1132F406569766520636F6E666967204D4220254A
S1132F50780A00000A25733A4552524F522C2046F3
S1132F606C657843414E205258204D4220636F6E69
S1132F7066696775726174696F6E206661696C65F4
S1132F80642E20726573756C743A203078256C78E1
S1132F900A0000000A25733A494E464F2C20464C3D
S1132FA0455843414E5F4452565F52784D657373A2
S1132FB06167654275666665722E20726573756C0D
S1132FC0743A203078256C78200A0000466C6578C5
S1132FD043616E4465766963655F54784D657373C8
S1132FE06167650025733A4552524F522C20464C76
S1132FF0455843414E5F4452565F436F6E6669675E
S113300054784D620A000000288BFF1F6085010080
S1133010A493FF1FBBA4FF1FE885FF1F2DE9FC47F6
S113302089465FEA000818BFB9F1000F16461C462E
S11330304FF0030A00D016B90320BDE8F687142127
S1133040304603F05BFB3471012C08BF4FF0080AD3
S1133050CAF10000304400F10B020A9800212CE070
S113306033684FEA031CC6F800C0C6460023012497
S11330709EF90050641E002D7BD0A5F130070A2F65
S113308038BF303D0AD3A5F14107062F38BF373D7D
S113309004D3A5F16107062F6BD2573D002C05EB35
S11330A003130EF1010EE3D103F00F0343EA0C0303
S11330B0336008F10108491C521C98F900300D2BAB
S11330C05BD0B9F1020F58D35145C9D38A4525D1F4
S11330D0C44600234FF0010E9CF90040002CAEF1D1
S11330E0010E46D0A4F130070A2F38BF303C0AD372
S11330F0A4F14107062F38BF373C04D3A4F161057E
S1133100062D36D2573CBEF1000F04EB03130CF12D
S1133110010CE1D103F00F03B360CAE7030024D12B
S1133120C44600234FF0020E9CF90040AEF1010E9C
S1133130FCB1A4F130070A2F38BF303C0AD3A4F104
S11331404107062F38BF373C04D3A4F16105062D8F
S11331500FD2573CBEF1000F04EB03130CF1010C2A
S1133160E2D1137008F1020801E008F10108894571
S1133170A1D24FF0FF30BDE8F6870020BDE8F68706
S11331802DE9F84F9146040099F801701CBF0029FD
S1133190B9F1000F1D464FF0030802D10320BDE82A
S11331A0F28F09EB87061B21706A03F0A7FAB94472
S11331B0002089F84400706099F84C0058B3716A93
S11331C0542008704FF0080899F84400401C89F80E
S11331D0440004F110010020012291F90030521E34
S11331E0ABB10001A3F130070A2F38BF303B0AD33B
S11331F0A3F14107062F38BF373B04D3A3F161077E
S1133200062F04D2573B1818491C002AE5D1400068
S113321000F1090726E0716A74200870A11D99F86D
S11332204400401C89F844000122002091F9003038
S1133230521EABB10001A3F130070A2F38BF303B57
S11332400AD3A3F14107062F38BF373B04D3A3F1B8
S11332506107062F04D2573B1818491C002AE5D1F0
S11332604000071DFFB2002010E0AEF1570E521CC3
S1133270BCF1000F0EEB031315D103F00F02114341
S11332807160641C2978491C2970401C94F9001051
S11332900D2928D0404526D2716809017160224663
S11332A000234FF0010C92F900E0BEF1000FACF1E5
S11332B0010C14D0AEF1300BBBF10A0F38BFAEF1E4
S11332C0300ED4D3AEF1410BBBF1060F38BFAEF1D3
S11332D0370ECCD3AEF1610ABAF1060FC5D34FF065
S11332E0FF30BDE8F28F706A3A462146401C03F075
S11332F009FA99F84400381889F84400C0B2726A8F
S11333000D21115499F84400401C89F84400287890
S1133310381828700020BDE8F28F70B5002818BF57
S1133320002906D10FF264410FF2744000F048FD09
S11333301FE000220A8004220B881B010B80521E0E
S11333400478A4F130060A2E07D2303C401CE3185E
S1133350002A0B80F0D1012070BDA4F14106062E95
S113336038BF373CF2D3A4F16105062D38BF573C72
S1133370ECD3002070BD000070B500280D46164641
S113338038D04FF4B4714418206800281CBF616819
S113339000290BD000F02EFC020007D00FF21C41D4
S11333A00FF2304000F00CFD002070BD0020032E11
S11333B0A06019D8DFE806F002121502681C80012B
S11333C0606000F0CAFB206088B90FF2F0310FF2A0
S11333D02C4000F0F5FC0020606070BD681CC0014A
S11333E0EEE7681C4002EBE76060206070BD0020DF
S11333F0A060012070BD00B9704710B54FF4BA71D8
S11334004418206800281CBF616800290BD000F014
S1133410F1FB020007D00FF214410FF2284000F034
S1133420CFFC002010BD0020A06010206060802030
S113343000F093FB206040B90FF2F0310FF2284006
S113344000F0BEFC0020606010BD0020A0600120E0
S113345010BDF8B504000F4618BF002F154606D15D
S11334600FF234410FF2484000F0AAFC9DE0A0683E
S1133470410DC00201F0010104D5722001B15220B6
S1133480012603E0742001B154200026387000297D
S1133490E26808D00FF23041781C00F09FFC07F17D
S11334A009020A2006E00FF22841781C00F096FC7D
S11334B03A1D0520A168090C01F00F0303F1300146
S11334C002F8011BC6B9012B16DB1818181804F1F1
S11334D01006317809090A29ACBF3731303111702F
S11334E0317801F00F010A29ACBF37313031517006
S11334F0921C761C5B1EECD1D61C00220423A1680E
S1133500D14001F00F010A29ACBF37313031121D0F
S11335105B1E06F80119F2D1471D207C10283ED10C
S11335206968002000293CD0E2688A4213D12870DF
S1133530FF22002000907F21012003F028FD1420A9
S113354002F02CFF00200090002300227F210120A4
S113355003F01DFD25E0A968012011B38A42E6D0DD
S1133560E9680220E9B18A42E1D029690320C1B1A6
S11335708A42DCD06969042099B18A42D7D0A9690A
S1133580052071B18A42D2D0E969062049B18A4244
S1133590CDD0296A072021B18A4202D1C7E7FF2092
S11335A028700D207071F8B2F2BD4FF0FF30F2BDFB
S11335B010B50278437823B1002A14BF5222542252
S11335C003E0002A0CBF742272220CE010B50278CA
S11335D0437823B1002A14BF5222542203E0002A64
S11335E00CBF742272220A704C1C42680FF2D8215C
S11335F0204600F0F3FB092010BDF8B5451800EB98
S1133600810495F84C00164658B1462006F8010B83
S1133610304662680FF2B02100F0E0FB083609275B
S11336200AE0662006F8010B304662680FF2A0211A
S113363000F0D4FBF61C042795F84400616A421E8E
S1133640304603F05FF895F84400C019401E40B2BC
S1133650F2BD70B50446194800680D4601F000FA41
S1133660060005D1BDE870400FF2942000F0A8BB1D
S11336702A46214606F1110003F044F801210020F6
S113368000F00AFFB0800321002000F005FF7080E5
S113369005F111003080032030743046BDE87040DD
S11336A001F0A0B800000000FC840100006CDC0202
S11336B000879303A0A9FF1F4FBE87FB288BFF1F22
S11336C0F0B50FF274219BB0D1E9002368460821BC
S11336D0C0E90023FFF7BDFF322002F05FFE0FF2C6
S11336E060217CC915A811217CC015A8FFF7B1FF82
S11336F0322002F053FE0FF25C217CC910A8112184
S11337007CC010A8FFF7A5FF322002F047FE0FF29D
S11337105821B1E8FC5008A82021A0E8FC5008A8D2
S1133720FFF797FF322002F039FE0FF25C211CC92B
S113373005A809211CC005A8FFF78BFF322002F061
S11337402DFE0FF250211CC902A809211CC002A899
S1133750FFF77FFF322002F021FE1BB0F0BD000016
S1133760706172736541736369546F55496E740077
S113377025733A4552524F522070617273654173FA
S11337806369546F496E740A0000000070617273BB
S11337906541736369546F53686F7274000000006D
S11337A025733A4552524F522070617273654173CA
S11337B06369546F53686F72740A0000416C6C6FD4
S11337C0636174654649464F46696C746572546119
S11337D0626C650025733A4552524F52282564297C
S11337E02066726565204649464F2066696C74659B
S11337F072207461626C650A0000000025733A450A
S113380052524F5220616C6C6F636174652046495B
S1133810464F2049442066696C7465722074616265
S11338206C6520656C656D0A00000000416C6C6F6E
S1133830636174654649464F4D61736B5461626CB4
S11338406500000025733A4552524F5228256429D9
S11338502066726565204649464F206D61736B2072
S11338607461626C650A000025733A4552524F52E6
S11338702C20616C6C6F63617465204649464F204F
S113388049442066696C746572207461626C6520B9
S1133890656C656D0A000000506172736543616E6A
S11338A04D657373546F537472696E670000000042
S11338B025733A4552524F522C2077726F6E67200F
S11338C0706172616D730A00253038780000000061
S11338D02530337800000000436865636B436F6DE7
S11338E06D616E64496453757070000025733A45C8
S11338F052524F522C20706172616D0A0000000018
S1133900434443335F7265737620555342205461B8
S1133910736B3A204552524F523A206D657373616E
S1133920676520616C6C6F636174696F6E2066619A
S1133930696C65640A0000004375303030310D0055
S11339406D74303030303037464675303030320D9B
S1133950000000004D743030303030374530753061
S11339603030330D000000004D6637653037653860
S1133970383031303230333034303530363037301F
S11339803875303030340D00533275303030350DE9
S1133990000000004F3175303030360D000000005B
S11339A02DE9F04704468846154699460027A8683D
S11339B0DFF80414884203D0382003F0D5FE57E022
S11339C004F10C00102838BF10200F300409240122
S11339D004F0D0F86E69D5F814A001E0B246B668D8
S11339E0B6B3AE6104F0D4F804F0C4F8A869864212
S11339F002D06E69B2465EB33068A042EED3011BBA
S1133A00102906D3301901604560B16881603460C3
S1133A1001E00446B06869698E420CBF6861CAF867
S1133A200800D8F80C0030817781756030688019FF
S1133A30401EE96A814238BFE862B9F1000F05D03F
S1133A40A4F10C0106F10C0002F058FE06F10C077B
S1133A506869A8616869E86168692862E8686862F9
S1133A60E868A86204F094F817B9042003F07CFE17
S1133A703846BDE8F0872DE9F84307468846914665
S1133A801D460026A868DFF83013884203D038208A
S1133A9003F06AFE5CE007F10C00102838BF102028
S1133AA00F3007093F0104F065F86C6900E0A46871
S1133AB0002C3DD0AC6104F06BF804F05BF8A8690D
S1133AC0844201D06C699CB32068A8F10C0104F114
S1133AD01002914221BF211808EB07020C3A9142CF
S1133AE0E5D3A8F10C010A1BC01B801A2260102820
S1133AF006D3CA1910605560A0689060A26001E006
S1133B00C719A2680F608A60D9F80C0008814E8139
S1133B104D6020680019401EE96A814238BFE8629E
S1133B20089820B1A7F10C01404602F0E7FD464693
S1133B306869A8616869E86168692862E868686218
S1133B40E868A86204F024F816B9042003F00CFE17
S1133B503046BDE8F283002300E00123DFF85C1265
S1133B600968D1F81C23DFF854120968C96917E7FA
S1133B70F8B504460D461646DFF840020768A81952
S1133B8000090001206105F10F0000090001E06057
S1133B90E0622169091A016000218160446060616A
S1133BA0A061E061206203F0E5FFD7F80C0328B9B7
S1133BB000214FF44370384404F0B4F821464FF424
S1133BC04370384404F0B5F803F0E2FFDFF8E8018D
S1133BD0A060B5F1005F0BD2A819B0F1005F07D364
S1133BE0002000902346FA694FF00051FFF743FF8D
S1133BF02046F2BD70B5DFF8C411096800B9BDE014
S1133C00A0F10C046568A868DFF8AC21904204D0E8
S1133C10382003F0A9FD382070BD2089C969C9681E
S1133C2089B288421CBF4FF6FF71884200D0AAE0D7
S1133C3003F0A0FF08E00646EE6103F0A9FF03F0DD
S1133C4099FFE869864200D06E69686910B16869B5
S1133C50844212D26E6920682044B0420AD120689E
S1133C60316808182060B068A0600020002100229C
S1133C7007C600E0A6606C6126E0B068844201D308
S1133C800028D8D120682044B16888420BD120682C
S1133C90096808182060B0688068A0600C21B068CA
S1133CA002F02CFD00E0A16030683044A0420AD14B
S1133CB03068216808183060A068B06000200021D6
S1133CC0002207C400E0B4606869A8616869E8611B
S1133CD068692862E8686862E868A86203F058FFC7
S1133CE0002070BD00235DE080B5DFF8D0000268DD
S1133CF0D2F8D801C2F81C0300F13001D2F8DC215B
S1133D00521AFFF735FF002002BDF8B50446DFF86C
S1133D10AC00056819B9D5F80C63F76804E0A1F1A3
S1133D200C0046680168471803F024FF706901E03D
S1133D3039680F4431698F4210D23989E26892B2EE
S1133D409142F5D100E0806808B1B842FBD3B84293
S1133D50EED003F01DFF07F10C00F2BD3668F768E2
S1133D604FF4437028448642E0D103F011FF002051
S1133D70F2BD10B120F8021C01207047012003F0AD
S1133D80F3FC012070BD032003F0EEFC032070BDA2
S1133D90C96820F8041C7047D16820F8041C00206E
S1133DA07047012305490968D1F81C2303490968B0
S1133DB05031FFF7F5BD000070656D6CD8B3FF1F7F
S1133DC00EB400B582B003A9009103464FF0FF3250
S1133DD00B490C48406804F036F80EE00DB400B509
S1133DE082B004A800900B464FF0FF32064903A8A6
S1133DF004F029F80021039A117006BC5DF810FB49
S1133E005D83010014B4FF1F1988000038B5040055
S1133E100D4608D003E0204600F010F80C3420686A
S1133E2010F1010FF7D145B103E0284600F057F82F
S1133E300C35286810F1010FF7D131BD2DE9F0419F
S1133E4004462068C0F3072500F0FF06634850F8D5
S1133E502570634850F82580284602F0A8FF58F8DA
S1133E6026006049084040F4807048F8260000228B
S1133E703146384604F0D5FC08EB86004001217930
S1133E8000F1844242F8041F00F184426179116018
S1133E9000F18440A17940F8101FD8F8C000E179FE
S1133EA0B1400843C8F8C0004F4958F826000840FC
S1133EB0217A090401F47021084348F82600207A85
S1133EC058B14A484057010007D0012100F01F02B1
S1133ED09140474A400942F82010BDE8F081F8B506
S1133EE004462168C1F3072001F0FF053B4951F85E
S1133EF020603B4951F8207002F059FF57F8250023
S1133F003849084040F4807047F8250001222946CA
S1133F10304604F086FC62682946304604F08CFC86
S1133F2007EB85004001217A00F1844242F8081F22
S1133F3000F18442617A42F8181F00F18440A17AAA
S1133F4040F8141FF1BD0A4600F0FF01234BC0F3F3
S1133F50072053F8200004F06FBC2049C0F3072267
S1133F6051F82210012202FA00F0486070471B4900
S1133F70C0F3072251F82210012202FA00F08860EF
S1133F8070471649C0F3072251F822100969C1404D
S1133F9001F0010070471249C0F3072251F82210C2
S1133FA000F0FF0001EB8000400100F1844060302C
S1133FB00068401E8041C043C00F70470849C0F3E9
S1133FC0072251F8221000F0FF0001EB80004001AD
S1133FD000F18440012140F8601F7047FC82010019
S1133FE010830100FFF8FFFEFFFFF0FE24830100B1
S1133FF000E100E00901002806D54B4A00F00F005B
S1134000104400F8041C7047484A1154704770B5B6
S11340100D46202D0446164608D3FF220FF2301118
S11340200FF2201004F010FCC046C04654F82500DE
S11340303F490840310201F4E061084344F8250097
S113404070BD10B510B1012824D010BD394C022226
S113405013212046FFF7DBFF022212212046FFF73F
S1134060D6FF03211D20FFF7C5FF03211E20FFF704
S1134070C1FF03211F20FFF7BDFF03212020FFF70D
S1134080B9FF03212120FFF7B5FFBDE8104003214C
S11340902220AFE7284C022210212046FFF7B7FF69
S11340A0022211212046FFF7B2FF2448302101707B
S11340B041708170C1700171417110BD10B5022849
S11340C015D11C4C022214212046FFF7A0FF022226
S11340D015212046FFF79BFF022216212046FFF7F9
S11340E096FF2046BDE81040022217218FE710BD3D
S11340F010B5032802D0042809D010BD104C0322A7
S113410004212046FFF783FF0322052107E00A4C20
S113411003220E212046FFF77AFF03220F212046B7
S1134120BDE8104073E7000018ED00E000E400E093
S1134130FFF8FFFE00A0044000B0044025E400E0C6
S113414000D0044070696E203C20333255000000DA
S1134150433A5C55736572735C616269642E65737E
S11341606D61696C5C446F63756D656E74735C6DD1
S11341706963726F6E65745C736F757263655C4EB0
S113418065743836395F4D54355C4D43555F544141
S1134190534B535C6961722F2E2E2F2E2E2F4D51AF
S11341A0585F4F532F4253502F706C6174666F7277
S11341B06D2F68616C2F696E635C66736C5F706FE2
S11341C072745F68616C2E6800000000002204F0C5
S11341D059BB0000000000000000000000000000C7
S11341E072B6EFF3088383F309888908491C714A7E
S11341F001E040F8042B491EFBD162B601DF704791
S113420001DFFEE76C48006872B6018B31B9416A80
S1134210C269D369994201D062B603DF62B67047BE
S113422003DF7047FEE702DF704772B61EF0040F2B
S11342300CBFEFF30881EFF30981896911F8021CBF
S1134240032905D100B500F01CF85DF804EB16E075
S1134250012902D15848006830E002290FD156489C
S11342600068C1698A6842F001028A6000B54A6840
S11342700B6813605A6000F004F85DF804EB62B652
S1134280704707B54D48416811F0805F07D1EFF3DF
S11342901182A2F1100280F822204949416007BD31
S11342A072B645480068EFF3098C46498A78EFF303
S11342B011832CE9FC4FC369C3F814C072B6416A78
S11342C00A688A4203D189680900F9D1FEE741628C
S11342D0C261938C4383D2F814C0BCE8FC4F83F3CF
S11342E011888CF3098835483749416062B67047B4
S11342F072B600B5304B1B68198B01F101011983AB
S1134300002001B4EFF31182EFF30581586B07B479
S1134310EFF30880586308461A6B02B92FE0904205
S11343202DD8DA6A811A2ADB9A6B4FEAD1014FEA57
S11343308101515801B922E00A6822B1824203D0B6
S1134340C9680942F8D11AE088684A6808B462B6B4
S1134350904772B608BC07BC586301BC198B491E50
S11343601983DA69906A10F4805F0AD129B9596A0D
S11343700968914218BFFFF784FF62B600BD9A6ACC
S1134380E4E740F40030906262B600BD0000000033
S113439070474FF08002D0E84F1F00290CBFC0E8DF
S11343A0432F01E0002BF6D108467047EFF303805A
S11343B0704700006B617473D8B3FF1F00ED00E019
S11343C00000001020ED00E0000000080060002262
S11343D0406002814181C260704730B41F4AEFF3EC
S11343E011831360302383F31188448903892500E2
S11343F003D0A34201D3106826E0446824680C600B
S11344004568296045684D606160591C01811068E8
S11344101FE030B41149EFF311820A60302282F3B5
S1134420118802890B68110002D183F311880DE011
S113443001684C680D6825606C60521E028183F32C
S11344401188084630BC704780F3118830BC0020C6
S1134450704780F3118830BC012070479089FF1F9A
S11344600189481E8041C00F704738B50446206852
S1134470017841F080010170256805E0206A4FF061
S1134480FF32904218BF804728780006F6D520688E
S1134490007800F0310032BDDFF844231268FF28B1
S11344A001DD00207047030008BFD2F8B00101F01D
S11344B0FF0141EA002080B2704780B500220092DB
S11344C00023012200F001F802BD2DE9F84304465F
S11344D0884616469946DFF808030568D5F81C7225
S11344E027B900F00EFBD5F81C723FB303F042FB72
S11344F020001CD1B8694FF480710844082401E0FD
S11345002030641C7969A1420CD3818AA2B2914201
S1134510F6D0A0B230B1B869A4B200EB4410818ADD
S1134520A1420ED103F034FB40F2117006E0786929
S11345308442F0D303F02CFB40F21B7003F014F917
S11345408AE2848200210160416001610181C682A6
S1134550A0F80A80C0F818900899C161012E12D100
S1134560E969C160D1F88C203AB9C1F88C00C1F86E
S113457090000020C1F8940007E0D1F89020106169
S1134580C1F8900001E00021C16003F001FBD5F8FF
S1134590B00104F0FF0141EA002080B2BDE8F283DB
S11345A010B584B0044608000DD001A9401E04F0E3
S11345B083F9DDE90101801C41F10001CDE901012C
S11345C06B46022201E06B46002201A9204600F05E
S11345D002F804B010BD2DE9F84F0446884693460E
S11345E01F46002038607E480168088B20B10D20EA
S11345F003F0BAF80D2007E0D1F81C02009028B9A6
S1134600182003F0B1F818203860E8E10025D1F84B
S11346101C9020002CD1D9F88C00002841D003F044
S1134620A9FAD9F89400C0B90720C9F80800C9F854
S11346303850C9F89850BBF1000F02D1FFF7F3FDD1
S113464008E0BBF1020F404602D101F0E5FE01E0B3
S113465001F039FFD9F89850A0E0D9F88C6000E057
S11346603669002E00F0B68030890028F8D099E031
S113467004F0FF0A200AD1F8B011884202D1BAF13D
S1134680000F07D14FF4E26003F06EF84FF4E260DC
S11346903860A1E00098806900EB4A16B08A504562
S11346A007D040F2137003F05FF840F213703860E3
S11346B092E0F068002818BF484507D040F2127015
S11346C003F052F840F21270386085E003F052FAB9
S11346D03089002866D1F06800287BD00520C9F80D
S11346E00800C9F838A0C9F89850BBF1000F02D1EE
S11346F0FFF799FD08E0BBF1020F404602D101F03B
S11347008BFE01E001F0DFFED9F89850002D1FBFA9
S11347106888A0423089002840D000988069A97830
S113472000EB4114608918B120896189884230D234
S1134730A5F11401088946F66752904218BF40F269
S1134740167028D10122204600F04CF9E06828B107
S1134750D0F89400401CE168C1F894003089401EF0
S1134760308131680868306000280FBF7060002015
S113477032685060F06828B1D0F89400401EF268A6
S1134780C2F8940001F114050020C872C1F8109019
S113479004E040F2177002F0E7FF00250020C9F89A
S11347A0980017E0401E30813168086830600028A6
S11347B00EBF706032685560F06828B1D0F894007C
S11347C0401EF268C2F8940001F114050020C8727A
S11347D0C1F8109003F0DCF92846BDE8F28F000020
S11347E0D8B3FF1F4288002100E000002DE9F84FF4
S11347F00446894692460648D0F800B0DBF81C828D
S1134800B8F1000F06D1182002F0AEFFE7E000BFB8
S1134810D8B3FF1F5CB1A4F11405288946F667518B
S1134820884204BFA87A002801D1E87A20B140F276
S1134830167002F099FFD2E05FEA1A2006D1DBF885
S1134840B001618860F30F21618003E0DBF8B011EF
S1134850884202D11AF0FF0707D1204600F0D4F9AC
S11348604FF4E26002F080FFB9E0D8F8180000EBE2
S11348704716B08AB84200D13EB9204600F0C4F9C8
S113488040F2137002F070FFA9E003F073F970892D
S113489020B130897189884280F09780F08A01289C
S11348A040F08480F168087A072804D0052804BF02
S11348B0886BB84224D105F11400C1F8980029612D
S11348C08868C0050ED548680A6802605060BBF865
S11348D08C01401EABF88C01886820F4807040F095
S11348E003008860084603F056F8B06910B1F06917
S11348F0B1698847B9F1000F4ED1FFF783FC5FE03F
S11349000022A0791F2318421CBFD1F89800002868
S11349102ED00746A079C0060AD4B879C00627D499
S1134920B87900F00F00A37903F00F0398421FD267
S1134930C1F8984044F8041CA7F114052A61012227
S11349407888824514D0D8F81800B97800EB41165D
S1134950708968B130897189884209D303F018F9E4
S1134960384600F051F940F2177002F0FDFE36E0CF
S11349702946304600F036F8F06828B1D0F89400A3
S1134980401CF168C1F89400B06910B1F069B169D4
S11349908847B9F1000F13D0BBF8180080B90D2077
S11349A0DBF81C108860FFF73EFC09E00022294672
S11349B0304600F017F8B06910B1F069B169884762
S11349C003F0E6F80120BDE8F28F03F0E1F840F2CD
S11349D0177002F0C9FE05F1140000F015F900206B
S11349E0BDE8F28F30B4036823B900224A600A603C
S11349F0016029E08B7EDB0612D48AB98A7E0F23FC
S1134A001A421BD002F00F0200230468A57E05F0B1
S1134A100F05954203D323462468002CF6D13BB9F5
S1134A2002680A6000224A600268516001600CE07A
S1134A3024B14B600C601960616006E042684A6012
S1134A4000220A604268116041600289521C02819E
S1134A500120C87230BC70470020BDE8F283FEE735
S1134A6070B50446DFF89C020568D5F81C0208B945
S1134A70182028E0A08A46F66751884206BFA0693C
S1134A80052840F203701ED12089A0B9608A90B134
S1134A906089E18A884201D308000CD1618AE08AE6
S1134AA06289801A80B288423CBFE08A811A89B246
S1134AB0204603F0C7FF03F05DF8E6683EB903F053
S1134AC067F840F2017002F04FFE002070BD3068BC
S1134AD0E0602089401E208103F05AF80020B07263
S1134AE0F072288B002814BF0020E869306106F1B9
S1134AF01400002141808180218A0180602181711C
S1134B0070BDF8B57F4804684FF4F070204404F099
S1134B10A7F8002877D1D4F81C0228B14FF4F0701C
S1134B20204404F06AF86DE02020FFF73AF905000C
S1134B3006D14FF4F070204404F05FF80420F2BD75
S1134B400921FFF716F9D4F8C80110B90120C4F8F7
S1134B50C801D4F8C801C0EBC0018800FFF721F9EF
S1134B60060007D14FF4F070204404F046F840F2F8
S1134B700670F2BD0B21FFF7FCF8D4F8CC014FF618
S1134B80FF72904228BF4FF6FE7001D200B9012097
S1134B90C4F8CC01401C4001FFF703F907000AD117
S1134BA04FF4F070204404F028F83046FFF722F860
S1134BB040F21970F2BD0A21FFF7DBF8686860B9AA
S1134BC02861A860E860D4F8C8012860D4F8CC0152
S1134BD068616E600026AF6100274B48E861C4F845
S1134BE01C520FF27100C4F84C024FF4F0702044D0
S1134BF004F003F816B13046FEF7FCFF17B138464F
S1134C00FEF7F8FF0020F2BD38B5A0F114042089A6
S1134C1046F66751884218BF012007D1A07A08B12F
S1134C20032003E0E07A28B140F21A70BDE8324074
S1134C3002F09ABDE5680120A07202F09BFFE868CB
S1134C402060EC602889401C2881BDE8314002F0D6
S1134C509FBF00002DE9F04780462A480068D0F83D
S1134C601C62002E4CD0D8F88C700FE02C68002009
S1134C70E87205F11400FFF7C7FF2546002DF5D1B2
S1134C8038463F69002101600161818257B1F868AB
S1134C9030B1D0F894003989401AF968C1F8940009
S1134CA03D68EBE70020C8F88C00C8F890007768EE
S1134CB03068461C00E01C37761E21D0B88A46F6C0
S1134CC067518842F7D13C6810E02869404504BF29
S1134CD0A87A002805D1E87A18B905F11400FFF77D
S1134CE093FF4D44BAF1010AEFD12468002CE2D0BD
S1134CF0D4F8049004F11005A06800F1010AF1E76A
S1134D00BDE8F087D8B3FF1F7373656D38B5DFF85E
S1134D1014494FF478712046FFF758FA4FF46E7037
S1134D20251843F2DE006860FEF715FF6968286005
S1134D3020B90FF6D010FFF743F80EE00FF6EC1091
S1134D40FFF73EF84FF470700021204403F0F2FEA8
S1134D5028B10FF6F810FFF733F8002032BD012018
S1134D6032BD10B5052808DB02460FF6F0110FF628
S1134D700020FFF725F8002010BDDFF8A81800EB8D
S1134D80C00201EB021404F1600002F0EDFF28B947
S1134D9004F17000BDE8104002F0E6BF10BD70B52C
S1134DA004000D4601D0052D06DB0FF6E4110FF6C5
S1134DB0F410FFF705F82EE0217BDFF8686805EBB7
S1134DC0C500002906EB0010214618D0703002F00F
S1134DD0B0FF30B923462A460FF6B4110FF6E0109F
S1134DE017E04FF47070304403F007FFA8B12A466F
S1134DF00FF69C110FF6F010FEF7E2FF0BE06030A7
S1134E0002F097FF48B923462A460FF684110FF69D
S1134E10F410FEF7D5FF002070BD012070BD0A29F3
S1134E2017DA1168097A00F84D1F1168497A417040
S1134E301168897A81701168C97AC1701168097B17
S1134E4001711168497B41711168897B817100206E
S1134E507047CE2070470A2904DA1168097800F8EF
S1134E60541F0AE0CE2070470A2904DA1168097831
S1134E7000F8561F01E0CE20704711684978417050
S1134E80002070472DE9F04F0FF6A811DFF8949732
S1134E908DB0D1E900230BA80026C0E9002300202F
S1134EA0029009F1040804F07FF8C046C0464FF4AC
S1134EB0567048440190056E4FF43770484407908B
S1134EC0824609F18400069009F1F00000904FF445
S1134ED08A70484405904FF4C07048440A904FF4D7
S1134EE0D270484404904FF40470484409904FF43D
S1134EF00D70484403904FF42870484408904FF4D0
S1134F00317009EB00040FF2FD20CAF80000CAF862
S1134F100480CAF8148007220FF24530CAF8100042
S1134F200BA9DFF80407CAF81C0000208AF8200047
S1134F30DFF8F806CAF8180002208AF8280008F1F9
S1134F404D0001F0DFFB0DF10A0008F15401027875
S1134F500A7042784A7002A808F1560102780A7071
S1134F6042784A7008F14A0000210170867308F102
S1134F708800C8F844100160416008F15C0002F048
S1134F80D1FE002108F16C0002F0CCFE042E00F2E8
S1134F90E080DFE806F003548EABC6007DB9002242
S1134FA00FF6DC210FF6E820FEF70AFF31460FF674
S1134FB08C00FEF705FF00200DB0BDE8F08F0698C9
S1134FC045600520069908700020A86028732946CA
S1134FD009F1600002F0ADFE58B305F1520700205C
S1134FE0B8603873394609F1600002F0A2FE00B3DC
S1134FF052370020B8603873394609F1600002F076
S113500098FEB0B152370020B8603873394609F1C0
S1135010600002F08EFE60B152370020B860387331
S1135020394609F1600002F084FE10B14FF4CD70EE
S11350308EE000210FF67020FEF7C2FEB6E70DB930
S11350400122ADE705984560052005990870002008
S1135050A86028732946009802F06BFE38B305F166
S113506094070020B86038733946009802F061FE56
S1135070E8B194370020B86038733946009802F0DC
S113508058FEA0B194370020B860387339460098B0
S113509002F04FFE58B194370020B8603873394697
S11350A0009802F046FE10B14FF4397050E001212F
S11350B0C0E72F0001D1022272E704984560142052
S11350C00499087083460020B860387339460A98FA
S11350D002F02FFE40B14FF488703F18BBF1010B72
S11350E0F1D14FF4AA5033E00221A3E72F0001D1FC
S11350F0032255E7039845601420039908708346FA
S11351000020B86038733946099802F012FE30B1B5
S11351104FF488703F18BBF1010BF1D1E1E7032193
S113512088E72F0001D104223AE765600A20207045
S113513083460020B86038733946089802F0F9FDB8
S113514000285CD03037BBF1010BF2D14FF4F07082
S11351500544761C052E08F190080AF12C0AFFF686
S1135160D2AEDFF8CC04002101804A4640214180C0
S1135170818005202074079860614FF4357009EB35
S11351800001002003F036FF09F14F0002214170B5
S1135190032101700521E06BC9F8040009F1DF0067
S11351A041700621017009F18401A06E0861082193
S11351B009F26F104170092101704FF48A7101984E
S11351C000684944086109F2FF100B2141700C2169
S11351D001704FF4D2710198C06A4944086109F220
S11351E08F200E2141700F2101704FF40D71019831
S11351F0806D49440DB008610120BDE8F08F0421A1
S113520018E7000038B51468010011D1002082F8B5
S113521048002046DFF81854294604F035FAF0B95E
S11352202988204603F05AFE40206880A88031BDBA
S113523001280CD1DFF8F803438802F14805121D58
S1135240E978204604F019FA0120287031BD0628B7
S113525005D1BDE832400FF2F850FEF7B1BD31BDC3
S1135260F8B5069D2E680024042871D0052855D071
S1135270202827D021280FD0232814D0242819D05F
S1135280252824D0262827D063283AD0642829D07A
S1135290672800F0AE80ABE0C9B20A2980F2A8808A
S11352A005F14D000CE0C9B20A2980F2A18005F194
S11352B0540005E0C9B20A2980F29A8005F156002B
S11352C0106096E0C9B22846FFF7A9FD08E0C9B20C
S11352D02846FFF7C0FD03E0C9B22846FFF7C4FD26
S11352E0044686E005F144073879002800F08180FF
S11352F0397D0FF29850FEF763FD01207871B87183
S113530077E005F144073879002872D0397D0FF22F
S11353109050FEF755FD7C71BC716AE005F14407BD
S1135320387900281CBF7879002862D01868386062
S1135330002818BF10F1010F5BD0284600F0B8F820
S1135340BB484388F9792A1D304604F096F950E0A9
S1135350002B1CBF1868002805F144070DD0B44980
S11353608988B0FBF1FC01FB1C0030B9397A0023B9
S11353700022304604F07AF93BE0387900281CBF5B
S1135380787900281ED0106808B9186898B9B96BE4
S113539059B105F15C0002F0CCFC28B9BA6B397D37
S11353A00FF21050FEF70CFDBC630120B871B86C0D
S11353B0401CB8641DE0B86BD8B10FF22450FEF75E
S11353C0FFFC16E0BA6B0FF2AC410FF21C50FEF773
S11353D0F7FCB96B69B105F15C0002F0AAFC28B9CD
S11353E0BA6B397D0FF2CC40FEF7EAFCBC6300E0F7
S11353F0CE242046F2BDF0B50FF20C5085B0D0E9B2
S11354000023CDE9002302A80021002200230EC0BE
S1135410FFF738FD28B90FF2F840FEF7D1FCFEF78C
S113542002FF0020009002A964200190684601F068
S11354304DF928B90FF2C4410FF2F840FEF7C0FC51
S1135440784C4FF4707002A9204403F054FC0D28EA
S113545018BF1F2806D101460FF2F440FEF7B0FC36
S113546064201DE04C3405250FF2F8460FF28C47FA
S1135470207800281CBF607800280DD0A07858B18F
S113548054F8480CA4F1480100F0D8F820B9227C63
S113549039463046FEF794FC90346D1EE8D1012065
S11354A000F07CFF634800780028BAD005B0F0BD56
S11354B030B5040085B000F0B2805A4920684A68CB
S11354C0904221D120797E286AD15B480068FFF799
S11354D0C7FA050004D10FF29C40FEF771FC5FE0AF
S11354E0626C211D05F1110001F00CF9012100206D
S11354F0FEF7D2FFA8800C210020FEF7CDFF6880C4
S1135500606C2880002047E0D1F89420904200F09D
S11355108680D1F8242190421DD147480068FFF7C6
S11355209FFA050008BF0FF2844058D0626C211D19
S113553005F1110001F0E6F801210020FEF7ACFFAF
S1135540A88002210020FEF7A7FF6880606C11305C
S11355502880022020E0D1F8B421904224D136489A
S11355600068FFF77DFA050008BF0FF2784036D0D7
S1135570626C211D05F1110001F0C4F80121002025
S1135580FEF78AFFA88003210020FEF785FF6880CC
S1135590606C11302880032028742846FFF722F914
S11355A00020606405B030BDD1F84412884236D181
S11355B0684600210022002300252EC0616C0329C7
S11355C005D20FF25840FEF7FBFB05B030BD1A4878
S11355D00068FFF745FA050005D10FF26C40FEF7AD
S11355E0EFFB05B030BD626C05F11101684604F0B3
S11355F074F8626C211D684604F076F802982880DD
S113560001210020FEF748FFA88006210020FEF7B4
S113561043FF6880042028742846FFF7E3F805B0A8
S113562030BD0000BC8EFF1FBD100100C0B3FF1FC2
S1135630B4A4FF1FBBA4FF1F288BFF1FF8B50F00E6
S1135640064606D10FF284410FF29040FEF7B8FBF4
S113565039E007F17C0507F14A04296861B107F1D3
S11356605C0002F066FB28B92A68A17B0FF2442093
S1135670FEF7A6FB0020286007F16C0002F074FB23
S1135680286080B30021217000F10D02037BA17812
S1135690304603F0EBFFC0B1A27B0FF230410FF2B2
S11356A05040FEF78DFB296807F15C0002F041FBD6
S11356B028B92A68A17B0FF2FC10FEF781FB0020B9
S11356C02860012020700020F2BDE868431C28698E
S11356D0EB60984207D30090A27B0FF2F0310FF2F7
S11356E02C40FEF76DFB2078002804BF28680028B2
S11356F006D1A27B0FF2D4310FF24C40FEF760FBCF
S11357000120F2BD4552524F5220616C6C6F6361AF
S1135710746520555342206F757420627566666502
S1135720727320733D25640A000000005553422023
S11357304F7574206275666665727320616C6C6F58
S1135740636174656420733D25640A004552524FB9
S113575052205553422073656D610A0047657455A4
S1135760534257726974654275666665720000003B
S113577025733A4552524F5220746865205553425E
S113578020706F72742025642077726F6E670A0030
S113579053657455534257726974654275666665FC
S11357A07200000025733A4552524F5220706172C4
S11357B0616D65746572732077726F6E670A00009D
S11357C025733A4552524F522061646420717565C5
S11357D0756520656C656D2063646325642C2061A8
S11357E06464722025780A0025733A4552524F5258
S11357F0207365742073656D20666F722063646323
S113580025640A0025733A4552524F52206164645C
S113581020746F20667265652071756575652065F5
S11358206C656D2063646325642C2061646472205C
S113583025780A0000C20100000008004552524FBA
S1135840522073746172742043444325640A000037
S11358504552524F52205553422067657420555388
S1135860425F4445565F4556454E545F4552524F3C
S1135870520A0A005553425F4170705F436C617372
S1135880735F43616C6C6261636B0000506F727490
S11358902564206163746976617465640A0000009C
S11358A0506F7274256420646561637469766174F1
S11358B065640A0025733A204572726F7220616430
S11358C06420746F20667265652071756575652046
S11358D0706F72742564206D656D2025780A000050
S11358E073746F70310A000025733A204576436F54
S11358F06D70352025780A0A000000005573625F38
S11359007461736B000000000000000000000000E0
S11359104572726F7220696E69616C697A6520558F
S11359205342207461736B20626C6F636B65640A0D
S11359300000000025733A204572726F7220636F75
S11359406E762074696D653274696B730A000000A9
S113595025733A204572726F722025642073656D39
S11359600A00000025733A5741524E206364635F76
S113597025640A00434443305F72657376205553AF
S113598042205461736B3A204552524F523A206D73
S113599065737361676520616C6C6F636174696FB3
S11359A06E206661696C65640A00000043444332FA
S11359B05F7265737620555342205461736B3A20AD
S11359C04552524F523A206D657373616765206189
S11359D06C6C6F636174696F6E206661696C656479
S11359E00A000000434443335F72657376205553C5
S11359F042205461736B3A204552524F523A206D03
S1135A0065737361676520616C6C6F636174696F42
S1135A106E206661696C65640A0000004344433487
S1135A205F7265737620555342205461736B3A203C
S1135A3072656320646174612073697A65202564EA
S1135A40203C2033200A0000434443345F726573D2
S1135A507620555342205461736B3A204552524F7D
S1135A60523A206D65737361676520616C6C6F6376
S1135A706174696F6E206661696C65640A00000078
S1135A804344435F51756575655F696E69740000D1
S1135A904572726F20706172616D202573204344DA
S1135AA0432025640A0000004552524F522061648D
S1135AB06420656C656D656E7420746F2043444387
S1135AC02025642071756575650A00004344435FB1
S1135AD053656E64446174610000000025733A20CC
S1135AE04572726F7220706172616D0A000000006D
S1135AF025733A204572726F722073656E64205567
S1135B00534220706F72745F25640A0025733A2033
S1135B107061636B657420616C7265616479207374
S1135B20656E74205420505F25643A2073656E645A
S1135B305061636B6574733A2025642C20636F6D28
S1135B40706C3A2025640A0025733A20536574204A
S1135B5073656E6452205420505F25640A0000006F
S1135B6080B5DFF80C2852F8200003F03FFE002037
S1135B7002BDDFF8FC2752F8200004F037BA80B5E4
S1135B80DFF8EC3753F820000B0004D1114604F081
S1135B904EFA002002BD012903D1114604F05DFA3A
S1135BA0F7E7032002BD18B414461A46DFF8C037DD
S1135BB053F820000B0003D1214618BC04F06CBA42
S1135BC0012903D1214618BC04F08DBA12BC03206C
S1135BD07047F8B50446DFF8980750F824700D466E
S1135BE01646204601F012F90121384603F0C9FD9A
S1135BF001005ED1384603F0A5FD384603F0C9FD27
S1135C00010056D13168384604F09BF8707918B118
S1135C103179384604F05FF8B179384604F0A2FAD5
S1135C20010046D1002105F1080004F003FB002126
S1135C3005F1280004F0FEFADFF838070257DFF810
S1135C403807012102F01F0301FA03F3520940F857
S1135C502230DFF82827125702F01F0301FA03F35A
S1135C60520940F82230DFF81827125702F01F03B8
S1135C7001FA03F3520940F82230DFF808271257DB
S1135C8002F01F039940520940F8221005F1480020
S1135C9000210170417005F14A00102100F02EFD31
S1135CA0002028606860DFF8E00600EB8400C5632C
S1135CB00020F2BD30B5DFF8D04604EB800485B097
S1135CC0E46B6160556803951278DFF8A4568DF88B
S1135CD00820082201920022009201AA55F820000F
S1135CE003F0B4FD01001CBF002184F8481005B086
S1135CF030BD30B5DFF8904604EB800483B0E46B2C
S1135D00002584F85A50079C0194069C009400F0E6
S1135D106FFA010008BF002003B030BD70B50C4617
S1135D20DFF84C1684B051F82060DFF85C1601EB04
S1135D3080001D46C06B01680123A3401943016024
S1135D402B4650680290214610788DF804006A466C
S1135D500F200090304603F00EFF010011D1002007
S1135D6000902B466A462146304603F004FF0100AA
S1135D7007D1042000902B466A462146304603F0A2
S1135D80FAFE04B070BD80B5DFF8E43553F82000A6
S1135D9004F004F8010008BF002002BD18B4DFF8C5
S1135DA0E83503EB80030024DB6B0B4483F85C4091
S1135DB018BC60E2DFF8D02502EB80020023D26B2E
S1135DC082F85B307EE2F8B50446DFF8BC0500EBF0
S1135DD08405DFF89C0550F82460EF6B00224FF433
S1135DE00041304604F088F800224FF480413046E8
S1135DF004F082F8B06A0020B062052000F0CEFA08
S1135E0007F1080004F03DFA07F1280004F039FA1C
S1135E10DFF860050257DFF87405012102F01F0363
S1135E2001FA03F3520940F82230DFF850251257E3
S1135E3002F01F0301FA03F3520940F82230DFF89D
S1135E404025125702F01F0301FA03F3520940F8E8
S1135E502230DFF83025125702F01F03994052090F
S1135E6040F82210304604F0B0F9304603F079FCD3
S1135E700020E863204600F0CCFF0020F2BD0000C3
S1135E802DE9F04F044687B0206BDFF8FC540E4632
S1135E90A16A0840049005F11401204604F071F849
S1135EA016B9206B20638FE1206A009040F207311D
S1135EB00098084217D00098400711D5DFF8B004C5
S1135EC00068A04205D1E86B90F8480040B100207A
S1135ED004E0286C90F8480010B1012000F028FA82
S1135EE0204604F057F80498002800F06C8171688B
S1135EF0012000FA01F7206B07420ED0A869401C6C
S1135F00A861DFF86C040068A0420CBF00200120E7
S1135F1000F00EFA206B38402063206B10F0E00F85
S1135F2076D0600100F184407430006800286FD09E
S1135F3006F1EC073878002840F0458101203870DC
S1135F40206B400602D52869401C2861206B00069E
S1135F5009D5E868401CE86005E02869401C286110
S1135F6000BF00BF00BF206B80063DD578680028C5
S1135F701CBFB96800292AD0FEF74BFA060017D0D7
S1135F8006F10801204604F00CF8206B00F0200014
S1135F902063206B400603D5206B00F04000206393
S1135FA03146B868FEF719FA2868401C28600EE0EC
S1135FB0A068206B00F020002063206B400603D50E
S1135FC0206B00F0400020636868401C6860012278
S1135FD04FF48041204603F08FFF01224FF400412B
S1135FE0204603F089FFBEE7206B4006B5D4206B42
S1135FF0400603D5206B00F040002063206B0006B0
S113600003D5206B00F08000206300203870DBE0B3
S11360103068049911EA000A1EBF06F1EC0778689B
S113602000281CBFB868002800F0CD804FF000089D
S113603006F170095FEACA7040F1BA807868FEF729
S11360400FFAB8B97868FEF7E4F9060015D04146AE
S1136050204603F031FE06F108024146204603F0D3
S1136060F2FDB8683146FEF7B8F9A0682868401C0C
S1136070286002E06868401C6860012000FA08F0AB
S11360800590C0430490BA48D0F800B0CDF818B0D9
S11360905846A04203D1CDF800B0EE6B03E0B448FB
S11360A0406800902E6C0022414603F012FF3068D5
S11360B0049908403060306828B9009800224FF4F1
S11360C0804103F019FF06EB08004A300090807C01
S11360D018B106F1280004F0D0F8009900200870E7
S11360E00598206319F8030C002861D0069919F863
S11360F0020CD9F80060A1422AD1E96B0A68059B19
S11361001A430A608DF8080008210F2003910190BA
S1136110334601AA4146584603F02DFD78B9019053
S1136120334601AA4146584603F025FD38B90420F8
S11361300190334601AA4146584603F01CFD19F864
S1136140041CEA6B0A44002082F85C0000222DE063
S11361508749D1F804B0296C0A68059B1A430A6080
S11361608DF8080008210F2003910190334601AAFD
S11361704146584603F0FFFC78B90190334601AA22
S11361804146584603F0F7FC38B9042001903346E1
S113619001AA4146584603F0EEFC19F8041C2A6C87
S11361A00A44002082F85C000022012000F063F819
S11361B05FEA5A0A08F1010809F1080903D0B8F1A5
S11361C0100FFFF437AF00BF07B0BDE8F08F80B504
S11361D06D4A02EB8001C96BD1F8F41031B1084665
S11361E00089C046002814BF00200420C0B202BDAC
S11361F0F0B50FF29C1585B0B5E8C0100C4601A9A6
S1136200A1E8C010604901EB8001CD6B584951F8F9
S113621020606C6021465068039010788DF8080067
S113622001AA0B98002814BF1C200C2001900A9886
S11362300090304603F00AFB070011D101222146E9
S1136240304603F046FE01224FF48041304603F00D
S113625053FE01224FF40041304603F04DFE07E0A7
S113626000222146304603F034FE002085F8480021
S1136270384605B0F0BD38B53D4A52F82040424A90
S113628002EB80001029C06B01D3012032BD084409
S113629090F84A200AB1072032BD012280F84A2032
S11362A0204603F016FE054601224FF480412046A5
S11362B003F022FE01224FF40041204603F01CFEAD
S11362C0284632BD10B52A4951F820402E4901EB29
S11362D08000C06B90F8491009B1072010BD01215E
S11362E080F849100122002180F8EC102046052195
S11362F003F0EFFD01001AD101220621204603F02C
S1136300E8FD010013D101220721204603F0E1FD3D
S113631001000CD101224FF48041204603F0ECFD32
S113632001224FF40041204603F0E6FD002010BD99
S113633038B50F4951F82040134901EB8000002281
S1136340C56B6968204603F0C4FD00224FF4804108
S1136350204603F0D1FD05F14804A07C18B105F1F5
S1136360080003F08AFF0020207031BD0000000007
S1136370FC8401000485010000E100E006850100C1
S1136380088501000A850100A493FF1F80E100E055
S11363900C000000000000000000000038B5DFF829
S11363A054130C68002804BFBDE8314004F040B821
S11363B0E56905F14401401E02F07EFAD5E91101B8
S11363C0801C41F10001C5E9110101F0D3FB05F185
S11363D044024FF4B670211805F1440004F0AEF8FD
S11363E0284600F033F813E001F0C4FBA068C005B0
S11363F00ED56068216801604860B5F88C01401EC4
S1136400A5F88C01A06820F4807040F00300A0601F
S1136410BDE8314001F0BCBB70B50400DFF8D40224
S1136420056804D10C20BDE8704001F09DB9EE6907
S113643001F0A0FB06F144024FF4B670291820467F
S113644004F07CF8304600F001F838E0F8B5044672
S1136450DFF8A00200684FF4C2710144B0F88C2147
S1136460DAB1D0F8845102F1010C01E029462D681B
S1136470BCF1010C11D0D4E91167D5E911239F4275
S11364800BD301D8964208D3D5E91167D4E9112377
S11364909F42EBD301D89642E8D362682368136025
S11364A05A6022464FF4C273184401F074FCA06889
S11364B040F48070A060BDE8F140FDF7B1BEBDE8D6
S11364C0704001F065BB38B520B90C20BDE83240FE
S11364D001F04AB9DFF81C120968CC6904F14401DF
S11364E02CC82CC101F046FB2046FFF7AFFF8FE715
S11364F080B5002818BF002900D00AB90C2002BDBD
S113650004F03EF8002002BD10B584B014466A467B
S1136510FFF7EEFF2146684604F09CF804B010BD76
S113652038B5040014D0DFF8CC01056801F022FB73
S11365304FF4B67028440EC80EC40C3CD5F8A8011C
S113654028B1D5F8AC01D5F8A8118847A06049E076
S113655031BD38B5040012D0DFF8980101684FF45A
S1136560B67008442CC82CC40C3CD1F8A80128B13E
S1136570D1F8AC01D1F8A8118847A06034E031BD4E
S113658010B584B00446684600F00CF8214668460D
